:020000040800F2
:1000000000500020012A0008252900082B2900089B
:1000100031290008372900083D29000800000000A8
:10002000000000000000000000000000432900085C
:100030004F290008000000005B290008672900081C
:10004000492A0008492A0008492A0008492A0008C4
:10005000492A0008492A0008492A0008492A0008B4
:10006000492A0008492A0008492A0008492A0008A4
:10007000492A0008492A0008492A0008492A000894
:10008000492A0008492A0008492A0008492A000884
:10009000492A0008492A0008492A0008492A000874
:1000A000492A0008492A0008492A0008492A000864
:1000B00075290008492A0008492A0008492A000829
:1000C000492A0008492A0008492A0008492A000844
:1000D000492A0008492A0008492A0008492A000834
:1000E000492A0008492A0008492A0008000000009F
:1000F0000000000000000000000000000000000000
:0C01000000000000000000005FF808F1A3
:10010C0010B5054C237833B9044B13B10448AFF345
:10011C0000800123237010BD9C0100200000000012
:10012C006C54000808B5034B1BB103490348AFF3EB
:10013C00008008BD00000000A00100206C540008E5
:10014C0080B582B000AF00237B60D0E06C4A7B6846
:10015C00134419786B4A7B6813440A461A706A4A2E
:10016C007B6813441978664A7B6813440A461A70F4
:10017C007B68002B0BD10221644802F055FF03462B
:10018C001946614A7B6813440A461A702BE07B6857
:10019C00012B0BD110215D4802F046FF0346194696
:1001AC00594A7B6813440A461A701CE07B68022B80
:1001BC000BD10121564802F037FF03461946524A2B
:1001CC007B6813440A461A700DE07B68032B0AD136
:1001DC0001214E4802F028FF034619464A4A7B6823
:1001EC0013440A461A70484A7B6813441A784449E7
:1001FC007B680B441B789A4223D1434A7B68134497
:10020C001A7840497B680B441B789A4219D1414AB1
:10021C007B6813441B78012B0AD13B4A7B6813443F
:10022C001B78002B04D13C4A7B68012142F8231037
:10023C00354A7B6813441978364A7B6813440A465E
:10024C001A70344A7B6813441B78002B17D1334A3D
:10025C007B6832F81330B3F5967F0AD22F4A7B684D
:10026C0032F81330013399B22C4A7B6822F8131000
:10027C003AE02B4A7B68134401221A7034E0254A79
:10028C007B6813441B78012B1AD1254A7B681344D5
:10029C001B78012B14D1234A7B68012142F82310CF
:1002AC001D4A7B68002142F823101C4A7B68002100
:1002BC0022F813101A4A7B68134400221A7013E0B8
:1002CC00184A7B68002142F82310134A7B680021EE
:1002DC0042F82310114A7B68002122F81310104AAF
:1002EC007B68134400221A707B6801337B607B6847
:1002FC00032B7FF72BAF00BF00BF0837BD4680BD77
:10030C00C0010020C4010020BC01002000080140F5
:10031C00000C0140B8010020D4010020CC010020C9
:10032C00C8010020E401002080B483B000AF7860E5
:10033C00094A7B6852F82330012B06D1064A7B68A8
:10034C00002142F82310012300E0002318460C374B
:10035C00BD4680BC704700BFD401002080B483B080
:10036C0000AF7860094A7B6852F82330012B06D124
:10037C00064A7B68002142F82310012300E0002389
:10038C0018460C37BD4680BC704700BFE401002006
:10039C0080B483B000AF0346FB71FB79032B01D90A
:1003AC00002307E0FB79064AD35C002B0CBF01232A
:1003BC000023DBB218460C37BD4680BC704700BF2B
:1003CC00B801002080B483B000AF0346FB71FB7909
:1003DC00032B01D9FF2307E0FB79064AD35C012BE1
:1003EC000CBF01230023DBB218460C37BD4680BC82
:1003FC00704700BFC801002080B588B000AF7B4BB0
:10040C001B78042B00F25E8301A252F823F000BF8C
:10041C00310400088B04000845060008C5070008D5
:10042C0081090008714B01221A7001F019FD704B03
:10043C001B68704A82FB03129211DB17D31A6E4AA7
:10044C0013606E4B1B686B4A82FB03129211DB1715
:10045C00D31A6B4A13604FF47A7002F05FF8694B51
:10046C0000221A606849694804F080FB03469AB27E
:10047C004FF47A736549664804F0DBF92BE30321EA
:10048C00012001F081FC634B1B68012B02D104207D
:10049C0001F004FD5F4B1B68002B02D1062001F01C
:1004AC00FDFC5D4B1B68012B0ED1504B0D221A70BD
:1004BC005A49564804F05AFB03469AB24FF47A73E1
:1004CC005249534804F0B5F90020FFF72DFF0346BD
:1004DC00002B14D051494D4804F048FB03469AB206
:1004EC004FF47A7349494A4804F0A3F93F4B0D2263
:1004FC001A70494B01221A60494B00221A600020E5
:10050C00FFF760FF0346002B0AD001F0A9FC374B24
:10051C0005221A70434B01221A60FA2001F0E2FF07
:10052C000320FFF701FF0346002B02D0394B0122B9
:10053C001A603D4B1B68012B40F0C6822E4B1B688A
:10054C003A4A82FB03129210DB17D31A7B602A4BB8
:10055C001A68364B83FB02139910D317C91A0B4632
:10056C009B000B445B00D31A3B603B687A683049B4
:10057C00264804F0FBFA03469AB24FF47A732349E7
:10058C00234804F056F91C4B1B68013B1A4A1360B4
:10059C001B4B1B68013B1A4A1360194B1B68002B41
:1005AC001FD1244B1B68134A82FB03129211DB17D9
:1005BC00D31A134A13600D4B02221A70154B1B6889
:1005CC00012B0ED10F4B1B6801330E4A13600D4BE0
:1005DC001B68082B05D10B4B00221A600D4B002217
:1005EC001A604FF47A7001F099FF6DE2F40100206B
:1005FC0000000020D34D62102002002008000020D3
:10060C0024020020F8010020845400082C02002051
:10061C00F0020020180200200C0200209454000864
:10062C001402002010020020780300206766666622
:10063C00A0540008040000200221012001F0A4FBBA
:10064C004D4B1B68012B02D1042001F027FC4A4BB7
:10065C001B68002B02D1062001F020FC0020FFF7C4
:10066C0063FE0346002B05D0444B01221A60444B19
:10067C0000221A600320FFF757FE0346002B02D01E
:10068C003D4B01221A600020FFF79CFE0346002B15
:10069C000AD001F0E5FB3B4B05221A703A4B0122C4
:1006AC001A60FA2001F01EFF384B1B68012B40F03A
:1006BC000D82374B1B68374A82FB03129210DB17F3
:1006CC00D31AFB60324B1A68324B83FB021399101E
:1006DC00D317C91A0B469B000B445B00D31ABB60A3
:1006EC00BB68FA682C492D4804F040FA03469AB2CC
:1006FC004FF47A7329492A4804F09BF8244B1B6861
:10070C00013B234A1360274B1B68013B254A1360AE
:10071C00244B1B68002B29DC234B1B68234A82FBD0
:10072C0003129211DB17D31A194A1360204B1B6862
:10073C001E4A82FB03129211DB17D31A194A13605B
:10074C00104B03221A700C4B1B68012B0ED1194B4A
:10075C001B680133174A1360164B1B68082B05D115
:10076C00144B00221A60044B00221A604FF47A706A
:10077C0001F0D4FEAAE100BF180200200C020020F8
:10078C0014020020F4010020100200207803002045
:10079C002002002067666666A05400082C02002028
:1007AC00F00200202402002008000020D34D62102B
:1007BC0000000020F80100200121032001F0E4FAE0
:1007CC005C4B1B68012B02D1052001F067FB594BD8
:1007DC001B68002B02D1062001F060FB564B1B68F6
:1007EC00012B0ED1554B0F221A705549554804F068
:1007FC00BDF903469AB24FF47A735249524804F049
:10080C0018F80020FFF790FD0346002B1AD00020AB
:10081C00FFF7A4FD0346002B14D1484B0F221A708E
:10082C004749484804F0A2F903469AB24FF47A7348
:10083C004449454803F0FDFF3F4B01221A60434BEE
:10084C0000221A600020FFF7BDFD0346002B0AD0E2
:10085C0001F006FB394B05221A703D4B01221A6040
:10086C00FA2001F03FFE0320FFF75EFD0346002B4C
:10087C0002D0304B01221A60364B1B68012B40F022
:10088C002781354B1B68354A82FB03129210DB170C
:10089C00D31A7B61304B1A68304B83FB02139910CF
:1008AC00D317C91A0B469B000B445B00D31A3B6150
:1008BC003B697A692A49234804F058F903469AB2ED
:1008CC004FF47A731F49204803F0B3FF224B1B6887
:1008DC00013B214A1360234B1B68013B214A1360E7
:1008EC001D4B1B68002B1FDC1F4B1B681F4A82FB18
:1008FC0003129211DB17D31A174A13600F4B042201
:10090C001A700C4B1B68012B0ED1194B1B68013351
:10091C00174A1360164B1B68082B05D1144B002289
:10092C001A60044B00221A604FF47A7001F0F6FD45
:10093C00CEE000BF180200200C020020F4010020C1
:10094C00945400082C020020F00200201402002015
:10095C0010020020780300202002002067666666E3
:10096C00A05400082402002004000020D34D621083
:10097C00F80100200121022001F006FA584B1B68F7
:10098C00012B02D1052001F089FA554B1B68002B75
:10099C0002D1062001F082FA0020FFF7C5FC0346C5
:1009AC00002B05D04F4B01221A604F4B00221A60CE
:1009BC000020FFF707FD0346002B0AD001F050FA88
:1009CC004A4B05221A704A4B01221A60FA2001F098
:1009DC0089FD0320FFF7A8FC0346002B02D0404BF7
:1009EC0001221A603E4B1B68012B02D1414B0122A4
:1009FC001A60414B1B68012B6CD1404B1B68404A61
:100A0C0082FB03129210DB17D31AFB613B4B1A6863
:100A1C003B4B83FB02139910D317C91A0B469B004F
:100A2C000B445B00D31ABB61BB69FA693549364884
:100A3C0004F09CF803469AB24FF47A733249334867
:100A4C0003F0F7FE2D4B1B68013B2C4A1360304B17
:100A5C001B68013B2E4A1360284B1B68002B2CDCB7
:100A6C002C4B1B682C4A82FB03129211DB17D31AF6
:100A7C00224A1360294B1B68274A82FB03129211EE
:100A8C00DB17D31A224A1360184B01221A70194B28
:100A9C0000221A60124B1B68012B0ED1204B1B68D5
:100AAC0001331F4A13601E4B1B68082B05D11C4BCE
:100ABC0000221A600A4B00221A604FF47A7001F07F
:100ACC002DFD07E000BF06E000BF04E000BF02E020
:100ADC0000BF00E000BF00BF2037BD4680BD00BF97
:100AEC00180200200C02002014020020F401002047
:100AFC0010020020FC0100207803002020020020BE
:100B0C0067666666A05400082C020020F0020020E4
:100B1C002402002000000020D34D621008000020A9
:100B2C00F801002080B5A8B000AF8A4B1B78053BBC
:100B3C00062B00F2298701A252F823F0650B00085E
:100B4C00070C0008A10D0008690F0008F51000083B
:100B5C0005130008FD1400087F4B01221A607F4B1F
:100B6C0000221A607E4B00221A607E4B01221A6012
:100B7C00784B06221A707C4B1B687C4A82FB031252
:100B8C009211DB17D31A7A4A13607A497A4803F028
:100B9C00EDFF03469AB24FF47A737749774803F026
:100BAC0048FE734B1B68764A82FB03129210DB17CC
:100BBC00D31A7B606E4B1A68714B83FB021399102E
:100BCC00D317C91A0B469B000B445B00D31A3B602E
:100BDC003B687A686B49684803F0C8FF03469AB2D1
:100BEC004FF47A736449654803F023FE01F038F939
:100BFC00FA2001F077FC00F0D4BE574B01221A60AA
:100C0C00564B00221A60564B00221A600020FFF748
:100C1C008BFB0346002B33D05B4B1B68534A82FB88
:100C2C0003129211DB17D31A514A136001F018F911
:100C3C004F4B1B68524A82FB03129210DB17D31ADC
:100C4C007B614B4B1A684E4B83FB02139910D317E5
:100C5C00C91A0B469B000B445B00D31A3B613B69E2
:100C6C007A694A49444803F081FF03469AB24FF42B
:100C7C007A734149414803F0DCFD364B07221A7068
:100C8C000120FFF751FB0346002B02D0314B092208
:100C9C001A700120FFF77CFB0346002B3DD001208E
:100CAC00FFF790FB0346002B37D02A4B0A221A7011
:100CBC002F4B1B680A332E4A13602D4B1B68304A8E
:100CCC0082FB03129210DB17D31AFB60284B1A68B5
:100CDC002B4B83FB02139910D317C91A0B469B009D
:100CEC000B445B00D31ABB60BB68FA6825492248E9
:100CFC0003F03CFF03469AB24FF47A731E491F4827
:100D0C0003F097FD1A4B1B68632B02DD184B002276
:100D1C001A604FF47A7001F0C9FB0220FFF704FB54
:100D2C000346002B00F032860A4B0B221A7018492E
:100D3C00114803F01BFF03469AB24FF47A730E4925
:100D4C000E4803F076FD40F6B83001F093FB00F04E
:100D5C001DBE00BFF4010020000200200402002090
:100D6C00080200201002002000000020D34D621069
:100D7C001C020020B05400082C020020F0020020BD
:100D8C0067666666BC54000804000020D054000856
:100D9C00E4540008634B00221A60634B01221A6072
:100DAC00624B00221A600020FFF7BEFA0346002BAC
:100DBC0033D05F4B1B685F4A82FB03129211DB1727
:100DCC00D31A5D4A136001F04BF85B4B1B685B4A0E
:100DDC0082FB03129210DB17D31A7B62564B1A68F4
:100DEC00564B83FB02139910D317C91A0B469B0061
:100DFC000B445B00D31A3B623B6A7A6A50495148F8
:100E0C0003F0B4FE03469AB24FF47A734D494E4840
:100E1C0003F00FFD4D4B08221A700120FFF784FAE6
:100E2C000346002B02D0494B09221A700120FFF710
:100E3C00AFFA0346002B59D00120FFF7C3FA034643
:100E4C00002B53D0414B0A221A703B4B1B680A33C0
:100E5C00394A1360384B1B68384A82FB03129210D4
:100E6C00DB17D31AFB61344B1A68344B83FB021328
:100E7C009910D317C91A0B469B000B445B00D31A6D
:100E8C00BB61BB69FA6932492E4803F06FFE034619
:100E9C009AB24FF47A732B492B4803F0CAFC264BB9
:100EAC001B68632B02DD244B00221A60204B1B684D
:100EBC00204A82FB03129211DB17D21A1E4B1B68BD
:100ECC001344632B0EDD23491E4803F04FFE0346EB
:100EDC009AB24FF47A731B491B4803F0AAFC164BC9
:100EEC0000221A604FF47A7001F0E0FA0220FFF74A
:100EFC001BFA0346002B00F04B85144B0B221A7087
:100F0C001549104803F032FE03469AB24FF47A7337
:100F1C000C490D4803F08DFC40F6B83001F0AAFAEC
:100F2C0000F036BD00020020040200200802002060
:100F3C0008000020D34D62101C0200206766666614
:100F4C00F45400082C020020F0020020F4010020D0
:100F5C00D05400080855000824550008AA4B00225C
:100F6C001A60AA4B00221A60A94B01221A600020B9
:100F7C00FFF7DAF90346002B31D0A64B1B68A64AC3
:100F8C0082FB03129211DB17D31AA44A1360A34BF2
:100F9C001B68A34A82FB03129210DB17D31A7B63E4
:100FAC009E4B1A689E4B83FB02139910D317C91AD8
:100FBC000B469B000B445B00D31A3B633B6B7A6B79
:100FCC009849994803F0D2FD03469AB24FF47A73CC
:100FDC009549964803F02DFC954B06221A7001207A
:100FEC00FFF7A2F90346002B02D0914B09221A708D
:100FFC000120FFF7CDF90346002B59D00120FFF754
:10100C00E1F90346002B53D0894B0A221A70834B0B
:10101C001B680A33814A1360804B1B68804A82FB31
:10102C0003129210DB17D31AFB627C4B1A687C4BB1
:10103C0083FB02139910D317C91A0B469B000B4460
:10104C005B00D31ABB62BB6AFA6A7A49764803F032
:10105C008DFD03469AB24FF47A737349734803F0CB
:10106C00E8FB6E4B1B68632B02DD6C4B00221A6095
:10107C00714B1B68684A82FB03129211DB17D21A60
:10108C00664B1B681344632B0EDD6C49664803F0FA
:10109C006DFD03469AB24FF47A736349634803F0CB
:1010AC00C8FB5E4B00221A604FF47A7001F0FEF917
:1010BC000220FFF739F90346002B00F06B845C4BE0
:1010CC000B221A705E49584803F050FD03469AB241
:1010DC004FF47A735449554803F0ABFB40F6B830E3
:1010EC0001F0C8F900F056BC474B1B68012B35D1F9
:1010FC004A4B1B680133494A1360484B1B68484AEA
:10110C0082FB03129210DB17D31AFB63434B1A6852
:10111C00434B83FB02139910D317C91A0B469B0040
:10112C000B445B00D31ABB63BB6BFA6B3D493E4867
:10113C0003F01CFD03469AB24FF47A733A493B48CC
:10114C0003F077FB354B1B68632B02DD334B00221E
:10115C001A60374B06221A7000F01EBC2B4B1B6812
:10116C00012B73D12D4B1B6801332C4A13602B4B75
:10117C001B682B4A82FB03129210DB17D31A7B6479
:10118C00264B1A68264B83FB02139910D317C91AE6
:10119C000B469B000B445B00D31A3B643B6C7A6C94
:1011AC002849214803F0E2FC03469AB24FF47A73C3
:1011BC001D491E4803F03DFB184B1B68632B02DDD9
:1011CC00164B00221A60204B1B68134A82FB031239
:1011DC009211DB17D21A114B1B681344632B0EDDD3
:1011EC001649114803F0C2FC03469AB24FF47A73C5
:1011FC000D490E4803F01DFB084B00221A600C4BE6
:10120C0007221A70C8E300BF00020020040200206D
:10121C000802002000000020D34D62101C020020A8
:10122C0067666666BC5400082C020020F0020020A1
:10123C00F4010020F45400080400002008550008B4
:10124C0034550008D054000808000020964B1B6849
:10125C00012B40F0A183954B1B680133934A13601B
:10126C00924B1B68924A82FB03129210DB17D31A23
:10127C00FB648E4B1A688E4B83FB02139910D317A9
:10128C00C91A0B469B000B445B00D31ABB64BB6CA6
:10129C00FA6C8849884803F069FC03469AB24FF40B
:1012AC007A738549854803F0C4FA804B1B68632B1D
:1012BC0002DD7E4B00221A60814B1B68814A82FB47
:1012CC0003129211DB17D21A784B1B681344632B51
:1012DC000EDD7D49784803F049FC03469AB24FF481
:1012EC007A737549754803F0A4FA704B00221A60A2
:1012FC00764B08221A704FE3754B1B68012B0ED1ED
:10130C00744B1B680133734A1360724B1B68012BBF
:10131C0002DD704B00221A60C82001F01BF96E4BE5
:10132C001B68012B40F0A080604B1B680A335F4A9E
:10133C0013606A4B1B68012B1CD1694B1B68614AFB
:10134C0082FB03129211DB17D21A584B1B68134401
:10135C00632B2FDD5C49584803F008FC03469AB216
:10136C004FF47A735449554803F063FA4F4B0022FB
:10137C001A601FE04C4B1B68012B1BD1504B1B6898
:10138C00504A82FB03129211DB17D21A474B1B688F
:10139C001344632B0EDD4C49474803F0E7FB03462F
:1013AC009AB24FF47A734449444803F042FA3F4BE3
:1013BC0000221A603D4B1B683D4A82FB03129210BF
:1013CC00DB17D31A7B65394B1A68394B83FB021335
:1013DC009910D317C91A0B469B000B445B00D31A08
:1013EC003B65404B1B68012B0ED13B6D7A6D3E4922
:1013FC00314803F0BBFB03469AB24FF47A732E4983
:10140C002E4803F016FA24E0344B1B68012B0ED146
:10141C003B6D7A6D3549284803F0A8FB03469AB218
:10142C004FF47A732449254803F003FA11E01E4B5C
:10143C001B68012B0DD13B6D7A6D1E491E4803F0C4
:10144C0095FB03469AB24FF47A731B491B4803F081
:10145C00F0F9164B1B68632B02DD144B00221A604B
:10146C004FF47A7001F022F80120FEF791FF034649
:10147C00002B40F093821B4B1B68012B03D1134BA9
:10148C0006221A708AE2154B1B68012B03D10F4BF5
:10149C0007221A7082E2044B1B68012B40F07E82FB
:1014AC000A4B08221A7079E2080200201C02002064
:1014BC0067666666F45400082C020020F0020020D7
:1014CC0004000020D34D621008550008F4010020E0
:1014DC005C030020280200204C03002004020020A2
:1014EC000800002000020020BC540008D054000862
:1014FC00A34B1B68012B40F09D80A249A24803F02E
:10150C0035FB03469AB24FF47A739F499F4803F018
:10151C0090F99F4B1B684FF47A7202FB03F39D4AC0
:10152C0013609C4B1A689C4B1B68D31A9B4A136024
:10153C00984B1B689A4A82FB03121213DB17D31ABF
:10154C00FB66944B1B68974A82FB03129211DB17C4
:10155C00D21A954B83FB02139910D317C91A0B4659
:10156C009B000B445B00D31ABB668B4B1B688C4AED
:10157C0082FB03121213DB17D31A7B66864B1B6894
:10158C00884A82FB03129211DB17D21A864B83FB1B
:10159C0002139910D317C91A0B469B000B445B001E
:1015AC00D31A3B667D4B1B687D4A82FB03121213D8
:1015BC00DB17D31AFB65794B1B687A4A82FB031243
:1015CC009211DB17D21A784B83FB02139910D317A5
:1015DC00C91A0B469B000B445B00D31ABB65BB6E50
:1015EC00FA6E7249684803F0C1FA03469AB24FF496
:1015FC007A736549654803F01CF93B6E7A6E6C4949
:10160C00614803F0B3FA03469AB24FF47A735E4919
:10161C005E4803F00EF9BB6DFA6D65495A4803F04C
:10162C00A5FA03469AB24FF47A735749574803F018
:10163C0000F96EE15F4B1B68012B40F0BD805149F6
:10164C00514803F093FA03469AB24FF47A734E4919
:10165C004E4803F0EEF84E4B1B684FF47A7202FBC7
:10166C0003F34D4A13604C4B1A684C4B1B681344E4
:10167C00484A1360474B1B68494A82FB03121213FA
:10168C00DB17D31AC7F88430424B1B68454A82FBE0
:10169C0003129211DB17D21A434B83FB02139910DE
:1016AC00D317C91A0B469B000B445B00D31AC7F81F
:1016BC008030394B1B683A4A82FB03121213DB173A
:1016CC00D31AFB67344B1B68364A82FB0312921108
:1016DC00DB17D21A344B83FB02139910D317C91A98
:1016EC000B469B000B445B00D31ABB672B4B1B6850
:1016FC002B4A82FB03121213DB17D31A7B67274B7F
:10170C001B68284A82FB03129211DB17D21A264B54
:10171C0083FB02139910D317C91A0B469B000B4479
:10172C005B00D31A3B67D7F88030D7F884201F4969
:10173C00154803F01BFA03469AB24FF47A73124918
:10174C00124803F076F8BB6FFA6F19490E4803F094
:10175C000DFA03469AB24FF47A730B490B4803F017
:10176C0068F83B6F7A6F1249074803F0FFF903469C
:10177C009AB24FF47A730449044803F05AF8C8E05B
:10178C0000020020445500082C020020F00200202A
:10179C001C02002000000020040000200800002093
:1017AC00AD8BDB68D34D62106766666654550008D6
:1017BC0068550008040200207C4B1B68012B40F08C
:1017CC00A8807B497B4803F0D1F903469AB24FF4C9
:1017DC007A737849784803F02CF8784B1B684FF4EF
:1017EC007A7202FB03F3764A1360764B1A68744BD9
:1017FC001B681344744A1360734B1B68734A82FB57
:10180C0003121213DB17D31AC7F89C306E4B1B68EC
:10181C006F4A82FB03129211DB17D21A6D4B83FBBA
:10182C0002139910D317C91A0B469B000B445B008B
:10183C00D31AC7F89830634B1B68644A82FB0312B7
:10184C001213DB17D31AC7F894305E4B1B68604A2F
:10185C0082FB03129211DB17D21A5E4B83FB02132D
:10186C009910D317C91A0B469B000B445B00D31A73
:10187C00C7F89030524B1B68544A82FB0312121368
:10188C00DB17D31AC7F88C304D4B1B68504A82FBC0
:10189C0003129211DB17D21A4E4B83FB02139910D1
:1018AC00D317C91A0B469B000B445B00D31AC7F81D
:1018BC008830D7F89830D7F89C2047493D4803F03A
:1018CC0055F903469AB24FF47A733A493A4802F002
:1018DC00B0FFD7F89030D7F894204049354803F042
:1018EC0045F903469AB24FF47A733249324802F002
:1018FC00A0FFD7F88830D7F88C2038492D4803F052
:10190C0035F903469AB24FF47A732A492A4802F001
:10191C0090FF334B00221A60324B00221A60234B8B
:10192C0000221A60304B00221A60304B00221A60E1
:10193C002F4B00221A60214B00221A6000F090FA03
:10194C000020FEF7F1FC0346002B15D0264B01229C
:10195C001A60FA2000F0C6FDC82000F0FBFD1A4BFF
:10196C001B681B4A82FB03129211DB17D31A134A12
:10197C001360204B06221A701F4B1B68012B0FD1D2
:10198C001C4B00221A700BE000BF0AE000BF08E0FD
:10199C0000BF06E000BF04E000BF02E000BF00E0B3
:1019AC0000BF00BFA037BD4680BD00BF08020020AD
:1019BC00445500082C020020F00200201C020020DC
:1019CC00080000200400002000000020AD8BDB6824
:1019DC00D34D62106766666654550008685500085A
:1019EC000002002004020020100200200C02002043
:1019FC005C030020F40100204803002080B500AFF8
:101A0C002E4B1B68012B57D12D4B1B68012B19D169
:101A1C002C4B1B68012B15D1002208212A4801F000
:101A2C001AFB00221021284801F015FB4FF48061AD
:101A3C00264801F028FB2021234801F024FBFA2042
:101A4C0000F050FD224B1B68012B17D11D4B1B685E
:101A5C00012B13D14FF480611C4801F014FB0821B9
:101A6C00194801F010FB2021174801F00CFB102144
:101A7C00154801F008FBFA2000F034FD154B1B68EB
:101A8C00012B19D10F4B1B68012B15D100224FF4E0
:101A9C0080610E4801F0DFFA002220210A4801F093
:101AAC00DAFA0821084801F0EEFA1021064801F094
:101ABC00EAFAFA2000F016FD00BF80BD50030020AA
:101ACC000002002010020020000C01400008014020
:101ADC00040200200802002080B500AF9D4B1B784B
:101AEC000D3B032B00F22A8101A252F823F000BF18
:101AFC000D1B0008811B00082D1C00089F1C0008F2
:101B0C000321012000F040F90120FEF70DFC0346F3
:101B1C00002B07D08F4B0E221A708F4B1B68184668
:101B2C0000F08CFC0220FEF7FFFB0346002B16D0C6
:101B3C008A4B01221A608A498A4803F017F8034637
:101B4C009AB24FF47A738749874802F072FE814B40
:101B5C000E221A70804B1B68184600F06FFC002098
:101B6C00FEF7FCFB0346002B00F0EA80794B0522C4
:101B7C001A70E5E00221012000F006F90220FEF7C0
:101B8C00D3FB0346002B0ED07549764802F0EEFFCE
:101B9C0003469AB24FF47A737249734802F049FEC5
:101BAC006E4B01221A60714B1B68012B07D16B4BDA
:101BBC001B68002B03D1674B0F221A7025E06B4B6F
:101BCC001B68012B21D1654B1B68012B1DD1684B68
:101BDC0000221A60674B1B68674A82FB0312921142
:101BEC00DB17D31A654A1360654B1B68624A82FB8C
:101BFC0003129211DB17D31A624A1360554B03225E
:101C0C001A704FF47A7000F089FC0020FEF7A6FBE6
:101C1C000346002B00F096804E4B05221A7091E083
:101C2C000121032000F0B0F80220FEF77DFB0346F3
:101C3C00002B16D0494B01221A604949494802F041
:101C4C0095FF03469AB24FF47A734649464802F020
:101C5C00F0FD404B10221A703F4B1B68184600F0E9
:101C6C00EDFB0120FEF760FB0346002B07D0394B40
:101C7C0010221A70384B1B68184600F0DFFB00204E
:101C8C00FEF76CFB0346002B5ED0324B05221A701C
:101C9C005AE00220FEF748FB0346002B0ED03049D9
:101CAC00304802F063FF03469AB24FF47A732D4921
:101CBC002D4802F0BEFD294B01221A6001210220A1
:101CCC0000F062F8294B1B68012B07D1234B1B68D2
:101CDC00002B03D11F4B0D221A7025E0234B1B68E0
:101CEC00012B21D11D4B1B68012B1DD1204B002238
:101CFC001A60234B1B68204A82FB03129211DB17DC
:101D0C00D31A1E4A13601B4B1B681B4A82FB03121F
:101D1C009211DB17D31A1B4A13600E4B01221A7057
:101D2C004FF47A7000F0FAFB0020FEF717FB034625
:101D3C00002B0BD0074B05221A7007E000BF06E002
:101D4C0000BF04E000BF02E000BF00E000BF00BF26
:101D5C0080BD00BFF401002004000020140200200C
:101D6C007C5500082C020020F002002040030020CB
:101D7C000C02002008000020D34D6210200200202D
:101D8C00000000202402002080B582B000AF7860F3
:101D9C0039607B68032B21D07B68032B2ADC7B68A2
:101DAC00012B03D07B68022B0CD023E001224FF4D3
:101DBC008061294801F04FF900220821274801F0E1
:101DCC004AF917E001224FF48061234801F043F9EE
:101DDC0001220821214801F03EF90BE000224FF4CA
:101DEC0080611D4801F037F9012208211B4801F0E0
:101DFC0032F900BF3B68032B1FD03B68032B27DC59
:101E0C003B68012B03D03B68022B0BD020E0012256
:101E1C002021124801F01FF9002210210F4801F077
:101E2C001AF915E0012220210C4801F014F90122C5
:101E3C0010210A4801F00FF90AE00022202107487E
:101E4C0001F009F901221021044801F004F900BF46
:101E5C0000BF0837BD4680BD00080140000C0140A2
:101E6C0080B500AF00224FF480610A4801F0F3F80E
:101E7C0000220821084801F0EEF800222021064833
:101E8C0001F0E9F800221021034801F0E4F800BF4A
:101E9C0080BD00BF00080140000C014080B582B03D
:101EAC0000AF78607B68062B23D07B68062B2CDC7C
:101EBC007B68042B03D07B68052B0DD025E0012219
:101ECC004FF48061194801F0C6F800224FF480717C
:101EDC00174801F0C0F825E000224FF48061134848
:101EEC0001F0B9F801224FF48071114801F0B3F8F8
:101EFC0018E000224FF480610C4801F0ACF800228D
:101F0C004FF480710A4801F0A6F800224FF480616A
:101F1C00064801F0A0F800224FF48071044801F04B
:101F2C009AF800BF00BF0837BD4680BD000C0140C9
:101F3C000008014080B500AF00F082FD00F026F8EB
:101F4C0000F036F900F064F800F0AEF800F006F995
:101F5C000A4801F01BFD0021094801F0B9FD0948B0
:101F6C0000F0A8F9084B00221A70FEF745FAFEF7AC
:101F7C00D9FDFFF7B1FDFFF741FDF6E76002002048
:101F8C00A802002000040040F401002080B590B0AD
:101F9C0000AF07F1180328220021184602F0DEFDDD
:101FAC003B1D00221A605A609A60DA601A610223A3
:101FBC00BB610123BB621023FB6202237B63002302
:101FCC00BB634FF46013FB6307F11803184601F071
:101FDC0073F80346002B01D000F066F90F237B60E9
:101FEC000223BB600023FB604FF480633B61002342
:101FFC007B613B1D0221184601F0E0FA0346002BE1
:10200C0001D000F051F900BF4037BD4680BD000043
:10201C0080B586B000AF07F1080300221A605A6041
:10202C009A60DA603B4600221A605A601D4B4FF0F2
:10203C0080421A601B4B41F63F725A60194B0022CA
:10204C009A60184B4F22DA60164B00221A61154B1E
:10205C0000229A61134801F049FC0346002B01D081
:10206C0000F022F94FF48053BB6007F108031946C6
:10207C000C4801F095FF0346002B01D000F014F939
:10208C0000233B6000237B603B461946054802F069
:10209C0013FB0346002B01D000F006F900BF1837E4
:1020AC00BD4680BD6002002080B58AB000AF07F14C
:1020BC00200300221A605A603B1D00221A605A60ED
:1020CC009A60DA601A615A619A61224B224A1A604C
:1020DC00204B3F225A601F4B00229A601D4B40F24E
:1020EC00E732DA601B4B00221A611A4B00229A610C
:1020FC00184801F09DFC0346002B01D000F0D4F8E9
:10210C0000233B6200237B6207F120031946114830
:10211C0002F0D2FA0346002B01D000F0C5F8602380
:10212C007B600023BB600023FB6000237B613B1DB5
:10213C0000221946074801F075FE0346002B01D01A
:10214C0000F0B2F8034800F06BFB00BF2837BD4627
:10215C0080BD00BFA80200200004004080B500AF85
:10216C00114B124A1A60104B4FF4E1325A600E4B6D
:10217C0000229A600C4B0022DA600B4B00221A6191
:10218C00094B0C225A61084B00229A61064B002223
:10219C00DA61054802F000FB0346002B01D000F089
:1021AC0083F800BF80BD00BFF00200200044004057
:1021BC0080B586B000AF07F1080300221A605A60A0
:1021CC009A60DA602E4B9B692D4A43F004039361AD
:1021DC002B4B9B6903F004037B607B68284B9B694A
:1021EC00274A43F008039361254B9B6903F00803CE
:1021FC003B603B6800224FF48761224800F02BFFC4
:10220C0000224FF4A061204800F025FF1323BB608F
:10221C000023FB6001233B6107F1080319461A48B0
:10222C0000F07EFD0123BB600023FB6001233B61BA
:10223C0007F108031946134800F072FD4FF4876349
:10224C00BB600123FB6000233B6102237B6107F130
:10225C00080319460B4800F063FD4FF4A063BB6004
:10226C000123FB6000233B6102237B6107F1080320
:10227C001946054800F054FD00BF1837BD4680BD17
:10228C0000100240000C01400008014080B582B0F3
:10229C0000AF786000F090F8FDF752FF00F092F973
:1022AC0000BF0837BD4680BD80B400AF72B600BF1A
:1022BC00FEE7000080B582B000AF78607B689B6A57
:1022CC00044A13600A2000F061F900BF0837BD46CC
:1022DC0080BD00BF3803002084B080B500AF07F18B
:1022EC00080C8CE80F00012200212D4802F0C0F9E7
:1022FC002C4B1B781A4613469B0013449B001A4622
:10230C003B6D1A44BB685A63274B1B78002B1DD1BD
:10231C00244B1A78254BA3FB021319090B46DB003F
:10232C000B44DB00D31ADBB21A46214B53F8223094
:10233C004FF47A4292FBF3F2194B9A62194B1B78C9
:10234C00072B20D1184B01221A701CE0164B1B785E
:10235C00012B18D1124B9B6A591C164BA3FB012362
:10236C00CA1A520813445A0913469B019B1ACA1ADB
:10237C000B4902F114038B620A4B1B78072B02D119
:10238C00094B00221A70074B1B780133DAB2054B4C
:10239C001A7000BFBD46BDE8804004B0704700BF56
:1023AC0000040040340300203C030020398EE33845
:1023BC000C00002005411004F0B591B010AF194B82
:1023CC001B68012B2AD1184B1B68012B13D1174EFC
:1023DC0028230E936D4606F110040FCC0FC50FCCBD
:1023EC000FC50FCC0FC594E8030085E8030096E8F1
:1023FC000F00FFF771FF0C4B1B68002B0BD1002259
:10240C0000210B4802F034F90A4B00221A70084ADA
:10241C00094B1B689362822000F0B8F800BF0437A8
:10242C00BD46F0BD60030020FC010020A802002086
:10243C0000040040340300203803002080B483B033
:10244C0000AF78607B68084A82FB03129210DB179E
:10245C00D31A064A1360064B00221A6000BF0C37D1
:10246C00BD4680BC704700BF676666666803002087
:10247C004003002080B483B000AF78607B68084ACA
:10248C0082FB03129210DB17D31A064A1360064B19
:10249C0000221A6000BF0C37BD4680BC704700BFDD
:1024AC0067666666700300204803002080B483B022
:1024BC0000AF78607B68084A82FB03129210DB172E
:1024CC00D31A064A1360064B00221A6000BF0C3761
:1024DC00BD4680BC704700BF67666666740300200B
:1024EC004C03002080B483B000AF78607B68084A4E
:1024FC0082FB03129210DB17D31A064A1360064BA9
:10250C0000221A6000BF0C37BD4680BC704700BF6C
:10251C0067666666640300205003002080B483B0B5
:10252C0000AF78607B68084A82FB03129210DB17BD
:10253C00D31A064A1360064B00221A6000BF0C37F0
:10254C00BD4680BC704700BF676666667803002096
:10255C005403002080B483B000AF78607B68084AD5
:10256C0082FB03129210DB17D31A064A1360064B38
:10257C0000221A6000BF0C37BD4680BC704700BFFC
:10258C0067666666800300205C03002080B483B01D
:10259C0000AF78607B68084A82FB03129210DB174D
:1025AC00D31A064A1360064B00221A6000BF0C3780
:1025BC00BD4680BC704700BF67666666840300201A
:1025CC006003002080B400AF494B1B68002B0BDB71
:1025DC00474B1B68013B464A1360454B1B68002B5D
:1025EC0002D1444B01221A60434B1B68002B0BDBBE
:1025FC00414B1B68013B404A13603F4B1B68002B4F
:10260C0002D13E4B01221A603D4B1B68002B0BDBA9
:10261C003B4B1B68013B3A4A1360394B1B68002B40
:10262C0002D1384B01221A60374B1B68002B0BDB95
:10263C00354B1B68013B344A1360334B1B68002B32
:10264C0002D1324B01221A60314B1B68002B0BDB81
:10265C002F4B1B68013B2E4A13602D4B1B68002B24
:10266C0002D12C4B01221A602B4B1B68002B0BDB6D
:10267C00294B1B68013B284A1360274B1B68002B16
:10268C0002D1264B01221A60254B1B68002B0BDB59
:10269C00234B1B68013B224A1360214B1B68002B08
:1026AC0002D1204B01221A601F4B1B68002B0BDB45
:1026BC001D4B1B68013B1C4A13601B4B1B68002BFA
:1026CC0002D11A4B01221A60194B1B68002B0BDB31
:1026DC00174B1B68013B164A1360154B1B68002BEC
:1026EC0002D1144B01221A6000BFBD4680BC70475A
:1026FC0068030020400300206C03002044030020EA
:10270C007003002048030020740300204C030020B9
:10271C0064030020500300207803002054030020A1
:10272C007C03002058030020800300205C03002061
:10273C00840300206003002080B485B000AF154BEB
:10274C009B69144A43F001039361124B9B6903F09C
:10275C000103BB60BB680F4BDB690E4A43F080532F
:10276C00D3610C4BDB6903F080537B607B680A4BB5
:10277C005B68FB60FB6823F0E063FB60FB6843F085
:10278C000073FB60044AFB68536000BF1437BD46FE
:10279C0080BC7047001002400000014080B584B03E
:1027AC0000AF78607B681B68B3F1804F13D10C4B82
:1027BC00DB690B4A43F00103D361094BDB6903F07E
:1027CC000103FB60FB68002200211C2000F071FA61
:1027DC001C2000F08AFA00BF1037BD4680BD00BF38
:1027EC000010024080B485B000AF78607B681B6835
:1027FC00094A93420BD1094BDB69084A43F00203A7
:10280C00D361064BDB6903F00203FB60FB6800BF7E
:10281C001437BD4680BC70470004004000100240D5
:10282C0080B588B000AF786007F1100300221A6001
:10283C005A609A60DA607B681B680F4A934217D122
:10284C000E4B9B690D4A43F0040393610B4B9B6940
:10285C0003F00403FB60FB6840233B6102237B61B4
:10286C000223FB6107F110031946054800F058FAE2
:10287C0000BF2037BD4680BD000400400010024060
:10288C000008014080B588B000AF786007F11003F4
:10289C0000221A605A609A60DA607B681B681B4AD7
:1028AC0093422FD11A4BDB69194A43F40033D3619D
:1028BC00174BDB6903F40033FB60FB68144B9B691B
:1028CC00134A43F004039361114B9B6903F0040317
:1028DC00BB60BB6804233B6102237B610323FB6168
:1028EC0007F1100319460B4800F01AFA08233B6154
:1028FC0000237B610023BB6107F1100319460548D7
:10290C0000F00EFA00BF2037BD4680BD00440040E9
:10291C00001002400008014080B400AFFEE780B414
:10292C0000AFFEE780B400AFFEE780B400AFFEE777
:10293C0080B400AFFEE780B400AF00BFBD4680BCE2
:10294C00704780B400AF00BFBD4680BC704780B4F8
:10295C0000AF00BFBD4680BC704780B500AF00F033
:10296C00B5F800BF80BD000080B500AF024801F093
:10297C0051F900BF80BD00BF6002002080B586B059
:10298C0000AF7860144A154BD31A7B617B693B61AD
:10299C00134B1B68002B02D1114B124A1A60104BBF
:1029AC001A687B6813443A699A4207D202F0ACF871
:1029BC0003460C221A604FF0FF3309E0084B1B68EA
:1029CC00FB60074B1A687B681344054A1360FB686D
:1029DC0018461837BD4680BD00500020000400008A
:1029EC0088030020A003002080B400AF00BFBD46C8
:1029FC0080BC70470C480D490D4A002302E0D458A6
:102A0C00C4500433C4188C42F9D30A4A0A4C00232C
:102A1C0001E013600432A242FBD3FFF7E5FF02F0A2
:102A2C0079F8FFF787FA7047000000209C0100201E
:102A3C00F05500089C010020A0030020FEE70000D8
:102A4C0080B500AF084B1B68074A43F010031360B6
:102A5C00032000F023F90F2000F008F8FFF76CFEBC
:102A6C000023184680BD00BF0020024080B582B014
:102A7C0000AF7860124B1A68124B1B7819464FF452
:102A8C007A73B3FBF1F3B2FBF3F3184600F03BF9A6
:102A9C000346002B01D001230EE07B680F2B0AD8D4
:102AAC00002279684FF0FF3000F003F9064A7B688A
:102ABC001360002300E0012318460837BD4680BD93
:102ACC002C010020340100203001002080B400AF24
:102ADC00054B1B781A46054B1B681344034A1360BD
:102AEC0000BFBD4680BC7047340100208C03002021
:102AFC0080B400AF024B1B681846BD4680BC7047C3
:102B0C008C03002080B485B000AF78607B6803F044
:102B1C000703FB600C4BDB68BB60BA684FF6FF0326
:102B2C001340BB60FB681A02BB68134343F0BF63DE
:102B3C0043F40033BB60044ABB68D36000BF143756
:102B4C00BD4680BC704700BF00ED00E080B400AF14
:102B5C00044BDB681B0A03F007031846BD4680BC18
:102B6C00704700BF00ED00E080B483B000AF0346B7
:102B7C00FB7197F90730002B0BDBFB7903F01F027D
:102B8C00064997F907305B09012000FA02F241F877
:102B9C00232000BF0C37BD4680BC704700E100E02D
:102BAC0080B483B000AF03463960FB7197F90730EE
:102BBC00002B0ADB3B68DAB20C4997F9073012019B
:102BCC00D2B20B4483F800230AE03B68DAB208491E
:102BDC00FB7903F00F03043B1201D2B20B441A76BB
:102BEC0000BF0C37BD4680BC704700BF00E100E061
:102BFC0000ED00E080B489B000AFF860B9607A6095
:102C0C00FB6803F00703FB61FB69C3F10703042BAB
:102C1C0028BF0423BB61FB690433062B02D9FB6973
:102C2C00033B00E000237B614FF0FF32BB6902FAEB
:102C3C0003F3DA43BB681A407B699A404FF0FF31CB
:102C4C007B6901FA03F3D9437B680B4013431846A5
:102C5C002437BD4680BC704780B582B000AF786029
:102C6C007B68013BB3F1807F01D301230FE00A4A5B
:102C7C007B68013B53600F214FF0FF30FFF790FF53
:102C8C00054B00229A60044B07221A600023184659
:102C9C000837BD4680BD00BF10E000E080B582B0B3
:102CAC0000AF78607868FFF72DFF00BF0837BD468E
:102CBC0080BD80B586B000AF0346B9607A60FB7307
:102CCC0000237B61FFF742FF78617A68B968786905
:102CDC00FFF790FF024697F90F3011461846FFF7A1
:102CEC005FFF00BF1837BD4680BD80B582B000AF16
:102CFC000346FB7197F907301846FFF735FF00BF05
:102D0C000837BD4680BD80B582B000AF786078686A
:102D1C00FFF7A2FF034618460837BD4680BD0000EA
:102D2C0080B48BB000AF7860396000237B620023E5
:102D3C003B6269E101227B6A02FA03F3FB613B68A7
:102D4C001B68FA691340BB61BA69FB699A4240F08F
:102D5C0058813B685B689A4A93425ED0984A93428A
:102D6C0075D8984A934258D0964A93426FD8964A4F
:102D7C00934252D0944A934269D8944A93424CD08D
:102D8C00924A934263D8924A934246D0904A9342D5
:102D9C005DD8122B2AD8122B59D801A252F823F045
:102DAC00272E0008012E0008132E0008552E0008AF
:102DBC005B2E00085B2E00085B2E00085B2E0008C3
:102DCC005B2E00085B2E00085B2E00085B2E0008B3
:102DDC005B2E00085B2E00085B2E00085B2E0008A3
:102DEC005B2E0008092E00081D2E0008794A93421C
:102DFC0013D02CE03B68DB683B6229E03B68DB6866
:102E0C0004333B6224E03B68DB6808333B621FE021
:102E1C003B68DB680C333B621AE03B689B68002B19
:102E2C0002D104233B6213E03B689B68012B05D164
:102E3C0008233B627B68FA691A6109E008233B624C
:102E4C007B68FA695A6103E000233B6200E000BF33
:102E5C00BB69FF2B01D87B6801E07B6804337B6185
:102E6C00BB69FF2B02D87B6A9B0002E07B6A083BA4
:102E7C009B003B617B691A680F213B6901FA03F3E4
:102E8C00DB431A40396A3B6901FA03F31A437B6945
:102E9C001A603B685B6803F08053002B00F0B18034
:102EAC004D4B9B694C4A43F0010393614A4B9B6920
:102EBC0003F00103BB60BB68484A7B6A9B08023382
:102ECC0052F82330FB607B6A03F003039B000F2254
:102EDC0002FA03F3DB43FA681340FB607B68404A59
:102EEC00934213D07B683F4A93420DD07B683E4A95
:102EFC00934207D07B683D4A934201D1032306E0FD
:102F0C00042304E0022302E0012300E000237A6A98
:102F1C0002F0030292009340FA681343FB602F49BE
:102F2C007B6A9B080233FA6841F823203B685B6894
:102F3C0003F48033002B06D02D4B1A682C49BB6947
:102F4C0013430B6006E02A4B1A68BB69DB43284924
:102F5C0013400B603B685B6803F40033002B06D016
:102F6C00234B5A682249BB6913434B6006E0204B44
:102F7C005A68BB69DB431E4913404B603B685B6876
:102F8C0003F48013002B06D0194B9A681849BB69BF
:102F9C0013438B6006E0164B9A68BB69DB431449FC
:102FAC0013408B603B685B6803F40013002B21D04B
:102FBC000F4BDA680E49BB691343CB6021E000BFAD
:102FCC00000032100000311000002210000021100F
:102FDC00000012100000111000100240000001400F
:102FEC0000080140000C0140001001400014014099
:102FFC00000401400B4BDA68BB69DB430949134001
:10300C00CB607B6A01337B623B681A687B6A22FA6D
:10301C0003F3002B7FF48EAE00BF00BF2C37BD46F0
:10302C0080BC70470004014080B485B000AF78606C
:10303C000B467B807B689A687B881340002B02D000
:10304C000123FB7301E00023FB73FB7B1846143751
:10305C00BD4680BC704780B483B000AF78600B462F
:10306C007B8013467B707B78002B03D07A887B683F
:10307C001A6103E07B881A047B681A6100BF0C3765
:10308C00BD4680BC704780B485B000AF78600B46FD
:10309C007B807B68DB68FB607A88FB6813401A04D2
:1030AC00FB68D9437B880B401A437B681A6100BFCD
:1030BC001437BD4680BC704780B586B000AF7860D1
:1030CC007B68002B01D1012372E27B681B6803F043
:1030DC000103002B00F08780924B5B6803F00C031C
:1030EC00042B0CD08F4B5B6803F00C03082B12D114
:1030FC008C4B5B6803F48033B3F5803F0BD1894B69
:10310C001B6803F40033002B6CD07B685B68002BCE
:10311C0068D101234CE27B685B68B3F5803F06D134
:10312C00804B1B687F4A43F4803313602EE07B682E
:10313C005B68002B0CD17B4B1B687A4A23F48033E1
:10314C001360784B1B68774A23F4802313601DE0CF
:10315C007B685B68B3F5A02F0CD1724B1B68714A6E
:10316C0043F4802313606F4B1B686E4A43F4803327
:10317C0013600BE06B4B1B686A4A23F480331360BB
:10318C00684B1B68674A23F4802313607B685B6879
:10319C00002B13D0FFF7ACFC386108E0FFF7A8FC5C
:1031AC0002463B69D31A642B01D9032300E25D4B21
:1031BC001B6803F40033002BF0D014E0FFF798FCED
:1031CC00386108E0FFF794FC02463B69D31A642B84
:1031DC0001D90323ECE1534B1B6803F40033002BA0
:1031EC00F0D100E000BF7B681B6803F00203002BEA
:1031FC0063D04C4B5B6803F00C03002B0BD0494B9A
:10320C005B6803F00C03082B1CD1464B5B6803F482
:10321C008033002B16D1434B1B6803F00203002BA9
:10322C0005D07B681B69012B01D00123C0E13D4B0C
:10323C001B6823F0F8027B685B69DB003949134398
:10324C000B603AE07B681B69002B20D0364B0122C7
:10325C001A60FFF74DFC386108E0FFF749FC0246A5
:10326C003B69D31A022B01D90323A1E12D4B1B6817
:10327C0003F00203002BF0D02A4B1B6823F0F8025A
:10328C007B685B69DB00274913430B6015E0264B19
:10329C0000221A60FFF72CFC386108E0FFF728FCCD
:1032AC0002463B69D31A022B01D9032380E11D4B43
:1032BC001B6803F00203002BF0D17B681B6803F042
:1032CC000803002B3AD07B689B69002B19D0174B55
:1032DC0001221A60FFF70CFC386108E0FFF708FCCC
:1032EC0002463B69D31A022B01D9032360E10D4B33
:1032FC005B6A03F00203002BF0D0012000F0D8FA37
:10330C001CE00A4B00221A60FFF7F2FB38610FE059
:10331C00FFF7EEFB02463B69D31A022B08D90323B5
:10332C0046E100BF001002400000424280044242CD
:10333C00924B5B6A03F00203002BE9D17B681B689C
:10334C0003F00403002B00F0A6800023FB758B4BCD
:10335C00DB6903F08053002B0DD1884BDB69874A66
:10336C0043F08053D361854BDB6903F08053BB6022
:10337C00BB680123FB75824B1B6803F48073002B25
:10338C0018D17F4B1B687E4A43F480731360FFF7A0
:10339C00AFFB386108E0FFF7ABFB02463B69D31A81
:1033AC00642B01D9032303E1754B1B6803F4807371
:1033BC00002BF0D07B68DB68012B06D16F4B1B6AAE
:1033CC006E4A43F0010313622DE07B68DB68002B2F
:1033DC000CD16A4B1B6A694A23F001031362674BD9
:1033EC001B6A664A23F0040313621CE07B68DB68EB
:1033FC00052B0CD1614B1B6A604A43F0040313622A
:10340C005E4B1B6A5D4A43F0010313620BE05B4B9E
:10341C001B6A5A4A23F001031362584B1B6A574A22
:10342C0023F0040313627B68DB68002B15D0FFF7D5
:10343C005FFB38610AE0FFF75BFB02463B69D31A7E
:10344C0041F28832934201D90323B1E04B4B1B6A02
:10345C0003F00203002BEED014E0FFF749FB3861B8
:10346C000AE0FFF745FB02463B69D31A41F288326A
:10347C00934201D903239BE0404B1B6A03F00203E8
:10348C00002BEED1FB7D012B05D13C4BDB693B4A7C
:10349C0023F08053D3617B68DB69002B00F08780BD
:1034AC00364B5B6803F00C03082B61D07B68DB693F
:1034BC00022B46D1334B00221A60FFF719FB3861FF
:1034CC0008E0FFF715FB02463B69D31A022B01D922
:1034DC0003236DE0294B1B6803F00073002BF0D124
:1034EC007B681B6AB3F5803F08D1244B5B6823F4DF
:1034FC0000327B689B68214913434B601F4B5B6810
:10350C0023F474127B68196A7B685B6A0B431B4952
:10351C0013434B601B4B01221A60FFF7E9FA386129
:10352C0008E0FFF7E5FA02463B69D31A022B01D9F2
:10353C0003233DE0114B1B6803F00073002BF0D00C
:10354C0035E0104B00221A60FFF7D2FA386108E020
:10355C00FFF7CEFA02463B69D31A022B01D903239B
:10356C0026E0064B1B6803F00073002BF0D11EE025
:10357C007B68DB69012B07D1012319E000100240A5
:10358C0000700040600042420B4B5B68FB60FB68C4
:10359C0003F480327B681B6A9A4206D1FB6803F401
:1035AC0070127B685B6A9A4201D0012300E0002311
:1035BC0018461837BD4680BD0010024080B584B057
:1035CC0000AF786039607B68002B01D10123D0E01B
:1035DC006A4B1B6803F007033A689A4210D9674B91
:1035EC001B6823F0070265493B6813430B60634B70
:1035FC001B6803F007033A689A4201D00123B8E034
:10360C007B681B6803F00203002B20D07B681B68CF
:10361C0003F00403002B05D0594B5B68584A43F464
:10362C00E06353607B681B6803F00803002B05D034
:10363C00534B5B68524A43F460535360504B5B6886
:10364C0023F0F0027B689B684D4913434B607B6809
:10365C001B6803F00103002B40D07B685B68012BD7
:10366C0007D1474B1B6803F40033002B15D1012302
:10367C007FE07B685B68022B07D1414B1B6803F032
:10368C000073002B09D1012373E03D4B1B6803F041
:10369C000203002B01D101236BE0394B5B6823F053
:1036AC0003027B685B68364913434B60FFF720FAD3
:1036BC00F8600AE0FFF71CFA0246FB68D31A41F2E5
:1036CC008832934201D9032353E02D4B5B6803F0FE
:1036DC000C027B685B689B009A42EBD1274B1B6802
:1036EC0003F007033A689A4210D2244B1B6823F06C
:1036FC00070222493B6813430B60204B1B6803F005
:10370C0007033A689A4201D0012332E07B681B68B8
:10371C0003F00403002B08D0194B5B6823F4E06220
:10372C007B68DB68164913434B607B681B6803F0AE
:10373C000803002B09D0124B5B6823F460527B68A2
:10374C001B69DB000E4913434B6000F021F8024665
:10375C000B4B5B681B0903F00F030A49CB5C22FA85
:10376C0003F3094A1360094B1B681846FFF77EF9EF
:10377C00002318461037BD4680BD00BF0020024014
:10378C00001002409C5500082C0100203001002044
:10379C0090B48AB000AF294B3C1D0FCB84E80F00CE
:1037AC0040F201233B800023FB610023BB6100231B
:1037BC007B6200237B6100233B62214B5B68FB61D6
:1037CC00FB6903F00C03042B02D0082B03D02BE075
:1037DC001C4B3B622BE0FB699B0C03F00F03283363
:1037EC003B4413F8243C7B61FB6903F48033002BCE
:1037FC0012D0134B5B685B0C03F0010328333B4482
:10380C0013F8283CBB617B690E4A03FB02F2BB69CF
:10381C00B2FBF3F37B6204E07B690B4A02FB03F31C
:10382C007B627B6A3B6202E0064B3B6200BF3B6AF9
:10383C0018462837BD4690BC704700BF8C55000811
:10384C000010024000127A0000093D0080B400AF65
:10385C00024B1B681846BD4680BC70472C010020EB
:10386C0080B500AFFFF7F2FF0246054B5B681B0A01
:10387C0003F007030349CB5C22FA03F3184680BD1F
:10388C0000100240AC55000880B500AFFFF7DEFF1A
:10389C000246054B5B68DB0A03F007030349CB5C6C
:1038AC0022FA03F3184680BD00100240AC55000804
:1038BC0080B485B000AF78600A4B1B680A4AA2FB43
:1038CC0003235B0A7A6802FB03F3FB6000BFFB680F
:1038DC005A1EFA60002BF9D100BF00BF1437BD4649
:1038EC0080BC70472C010020D34D621080B582B093
:1038FC0000AF78607B68002B01D1012341E07B682D
:10390C0093F83D30DBB2002B06D17B68002283F8A4
:10391C003C207868FEF742FF7B68022283F83D204A
:10392C007B681A687B6804331946104600F020FC4B
:10393C007B68012283F846207B68012283F83E20B5
:10394C007B68012283F83F207B68012283F84020AA
:10395C007B68012283F841207B68012283F8422096
:10396C007B68012283F843207B68012283F8442082
:10397C007B68012283F845207B68012283F83D2077
:10398C00002318460837BD4680BD000080B485B0C2
:10399C0000AF78607B6893F83D30DBB2012B01D02F
:1039AC0001233AE07B68022283F83D207B681B6888
:1039BC00DA687B681B6842F00102DA607B681B687E
:1039CC00184A93420ED07B681B68B3F1804F09D024
:1039DC007B681B68144A934204D07B681B68134AAB
:1039EC00934211D17B681B689B6803F00703FB6053
:1039FC00FB68062B10D07B681B681A687B681B68F9
:103A0C0042F001021A6007E07B681B681A687B6849
:103A1C001B6842F001021A60002318461437BD4699
:103A2C0080BC7047002C014000040040000800409E
:103A3C0080B582B000AF78607B68002B01D1012388
:103A4C0041E07B6893F83D30DBB2002B06D17B68FC
:103A5C00002283F83C207868FEF7C4FE7B680222C3
:103A6C0083F83D207B681A687B680433194610463E
:103A7C0000F07EFB7B68012283F846207B680122E4
:103A8C0083F83E207B68012283F83F207B6801226B
:103A9C0083F840207B68012283F841207B68012257
:103AAC0083F842207B68012283F843207B68012243
:103ABC0083F844207B68012283F845207B6801222F
:103ACC0083F83D20002318460837BD4680BD000012
:103ADC0080B584B000AF786039603B68002B09D1A9
:103AEC007B6893F83E30DBB2012B14BF012300231B
:103AFC00DBB222E03B68042B09D17B6893F83F30A2
:103B0C00DBB2012B14BF01230023DBB215E03B68B1
:103B1C00082B09D17B6893F84030DBB2012B14BF22
:103B2C0001230023DBB208E07B6893F84130DBB261
:103B3C00012B14BF01230023DBB2002B01D0012386
:103B4C005EE03B68002B04D17B68022283F83E20A8
:103B5C0013E03B68042B04D17B68022283F83F20DE
:103B6C000BE03B68082B04D17B68022283F84020D1
:103B7C0003E07B68022283F841207B681B680122EA
:103B8C003968184600F074FD7B681B681E4A934226
:103B9C0007D17B681B685A6C7B681B6842F4004237
:103BAC005A647B681B68184A93420ED07B681B686A
:103BBC00B3F1804F09D07B681B68144A934204D040
:103BCC007B681B68124A934211D17B681B689B6807
:103BDC0003F00703FB60FB68062B10D07B681B68A7
:103BEC001A687B681B6842F001021A6007E07B6868
:103BFC001B681A687B681B6842F001021A6000237C
:103C0C0018461037BD4680BD002C01400004004012
:103C1C000008004080B582B000AF78607B681B68FC
:103C2C001B6903F00203022B22D17B681B68DB6843
:103C3C0003F00203022B1BD17B681B686FF002029E
:103C4C001A617B6801221A777B681B689B6903F0F9
:103C5C000303002B03D0786800F06FFA05E0786856
:103C6C0000F062FA786800F071FA7B6800221A772B
:103C7C007B681B681B6903F00403042B22D17B684F
:103C8C001B68DB6803F00403042B1BD17B681B68E7
:103C9C006FF004021A617B6802221A777B681B683A
:103CAC009B6903F44073002B03D0786800F045FA4D
:103CBC0005E0786800F038FA786800F047FA7B681D
:103CCC0000221A777B681B681B6903F00803082B1A
:103CDC0022D17B681B68DB6803F00803082B1BD11F
:103CEC007B681B686FF008021A617B6804221A77E4
:103CFC007B681B68DB6903F00303002B03D0786837
:103D0C0000F01BFA05E0786800F00EFA786800F015
:103D1C001DFA7B6800221A777B681B681B6903F00D
:103D2C001003102B22D17B681B68DB6803F0100397
:103D3C00102B1BD17B681B686FF010021A617B681B
:103D4C0008221A777B681B68DB6903F44073002B2D
:103D5C0003D0786800F0F1F905E0786800F0E4F938
:103D6C00786800F0F3F97B6800221A777B681B688F
:103D7C001B6903F00103012B0ED17B681B68DB6808
:103D8C0003F00103012B07D17B681B686FF0010264
:103D9C001A617868FEF77AFA7B681B681B6903F076
:103DAC008003802B0ED17B681B68DB6803F08003DB
:103DBC00802B07D17B681B686FF080021A617868D2
:103DCC0000F0E1FC7B681B681B6903F04003402B8F
:103DDC000ED17B681B68DB6803F04003402B07D1D6
:103DEC007B681B686FF040021A61786800F0B7F9C5
:103DFC007B681B681B6903F02003202B0ED17B68AA
:103E0C001B68DB6803F02003202B07D17B681B6841
:103E1C006FF020021A61786800F0ACFC00BF083724
:103E2C00BD4680BD80B584B000AFF860B9607A60E3
:103E3C00FB6893F83C30012B01D10223ACE0FB680A
:103E4C00012283F83C207B680C2B00F29F8001A29E
:103E5C0052F823F0953E0008993F0008993F00085E
:103E6C00993F0008D53E0008993F0008993F00088B
:103E7C00993F0008173F0008993F0008993F000838
:103E8C00993F0008573F0008FB681B68B968184643
:103E9C0000F0D0F9FB681B689A69FB681B6842F05C
:103EAC0008029A61FB681B689A69FB681B6822F020
:103EBC0004029A61FB681B689969BB681A69FB6804
:103ECC001B680A439A6162E0FB681B68B968184674
:103EDC0000F016FAFB681B689A69FB681B6842F4D1
:103EEC0000629A61FB681B689A69FB681B6822F484
:103EFC0080629A61FB681B689969BB681B691A022E
:103F0C00FB681B680A439A6141E0FB681B68B9684F
:103F1C00184600F05FFAFB681B68DA69FB681B68DF
:103F2C0042F00802DA61FB681B68DA69FB681B68FF
:103F3C0022F00402DA61FB681B68D969BB681A6954
:103F4C00FB681B680A43DA6121E0FB681B68B968EF
:103F5C00184600F0A9FAFB681B68DA69FB681B6855
:103F6C0042F40062DA61FB681B68DA69FB681B6863
:103F7C0022F48062DA61FB681B68D969BB681B6933
:103F8C001A02FB681B680A43DA6100E000BFFB6899
:103F9C00002283F83C20002318461037BD4680BD14
:103FAC0080B584B000AF786039607B6893F83C30A2
:103FBC00012B01D10223B3E07B68012283F83C2062
:103FCC007B68022283F83D207B681B689B68FB6042
:103FDC00FB6823F07703FB60FB6823F47F43FB60F3
:103FEC007B681B68FA689A603B681B68B3F5005FD6
:103FFC003ED0B3F5005F00F28780B3F5805F00F030
:10400C008580B3F5805F7FD8702B1AD0702B7BD84E
:10401C00602B50D0602B77D8502B3CD0502B73D8C2
:10402C00402B58D0402B6FD8302B64D0302B6BD812
:10403C00202B60D0202B67D8002B5CD0102B5AD0B3
:10404C0062E07B6818683B6899683B685A683B6813
:10405C00DB6800F0EEFA7B681B689B68FB60FB6812
:10406C0043F07703FB607B681B68FA689A604EE04C
:10407C007B6818683B6899683B685A683B68DB68E2
:10408C0000F0D7FA7B681B689A687B681B6842F45F
:10409C0080429A603BE07B6818683B6859683B68D3
:1040AC00DB681A4600F04EFA7B681B6850211846F4
:1040BC0000F0A5FA2BE07B6818683B6859683B68F0
:1040CC00DB681A4600F06CFA7B681B6860211846A6
:1040DC0000F095FA1BE07B6818683B6859683B68F0
:1040EC00DB681A4600F02EFA7B681B6840211846E4
:1040FC0000F085FA0BE07B681A683B681B68194670
:10410C00104600F07CFA02E000BF00E000BF7B68C4
:10411C00012283F83D207B68002283F83C20002399
:10412C0018461037BD4680BD80B483B000AF7860B0
:10413C0000BF0C37BD4680BC704780B483B000AF65
:10414C00786000BF0C37BD4680BC704780B483B02C
:10415C0000AF786000BF0C37BD4680BC704780B4A0
:10416C0083B000AF786000BF0C37BD4680BC704791
:10417C0080B485B000AF786039607B681B68FB60E9
:10418C007B68294A93420BD07B68B3F1804F07D0F0
:10419C007B68264A934203D07B68254A934208D118
:1041AC00FB6823F07003FB603B685B68FA681343A1
:1041BC00FB607B681C4A93420BD07B68B3F1804F49
:1041CC0007D07B68194A934203D07B68184A934204
:1041DC0008D1FB6823F44073FB603B68DB68FA682A
:1041EC001343FB60FB6823F080023B685B6913435D
:1041FC00FB607B68FA681A603B689A687B68DA62D5
:10420C003B681A687B689A627B68074A934203D1C1
:10421C003B681A697B681A637B6801225A6100BF8C
:10422C001437BD4680BC7047002C01400004004090
:10423C000008004080B487B000AF786039607B68BC
:10424C001B6A23F001027B681A627B681B6A7B6124
:10425C007B685B683B617B689B69FB60FB6823F058
:10426C007003FB60FB6823F00303FB603B681B6877
:10427C00FA681343FB607B6923F002037B613B68A4
:10428C009B687A6913437B617B681C4A93420CD10F
:10429C007B6923F008037B613B68DB687A69134315
:1042AC007B617B6923F004037B617B68134A934237
:1042BC0011D13B6923F480733B613B6923F4007398
:1042CC003B613B685B693A6913433B613B689B69A3
:1042DC003A6913433B617B683A695A607B68FA68B8
:1042EC009A613B685A687B685A637B687A691A6280
:1042FC0000BF1C37BD4680BC704700BF002C01407E
:10430C0080B487B000AF786039607B681B6A23F09B
:10431C0010027B681A627B681B6A7B617B685B6836
:10432C003B617B689B69FB60FB6823F4E043FB60AB
:10433C00FB6823F44073FB603B681B681B02FA6844
:10434C001343FB607B6923F020037B613B689B6814
:10435C001B017A6913437B617B681D4A93420DD123
:10436C007B6923F080037B613B68DB681B017A6906
:10437C0013437B617B6923F040037B617B68144AA8
:10438C00934213D13B6923F480633B613B6923F473
:10439C0000633B613B685B699B003A6913433B617B
:1043AC003B689B699B003A6913433B617B683A69A4
:1043BC005A607B68FA689A613B685A687B689A63B2
:1043CC007B687A691A6200BF1C37BD4680BC704797
:1043DC00002C014080B487B000AF786039607B68F6
:1043EC001B6A23F480727B681A627B681B6A7B6190
:1043FC007B685B683B617B68DB69FB60FB6823F077
:10440C007003FB60FB6823F00303FB603B681B68D5
:10441C00FA681343FB607B6923F400737B613B6890
:10442C009B681B027A6913437B617B681D4A93422C
:10443C000DD17B6923F400637B613B68DB681B0255
:10444C007A6913437B617B6923F480637B617B68AE
:10445C00144A934213D13B6923F480533B613B696B
:10446C0023F400533B613B685B691B013A691343BE
:10447C003B613B689B691B013A6913433B617B6859
:10448C003A695A607B68FA68DA613B685A687B68FB
:10449C00DA637B687A691A6200BF1C37BD4680BC40
:1044AC00704700BF002C014080B487B000AF78602B
:1044BC0039607B681B6A23F480527B681A627B68C4
:1044CC001B6A3B617B685B687B617B68DB69FB60BB
:1044DC00FB6823F4E043FB60FB6823F44073FB6050
:1044EC003B681B681B02FA681343FB603B6923F4AF
:1044FC0000533B613B689B681B033A6913433B6168
:10450C007B680F4A934209D17B6923F480437B611A
:10451C003B685B699B017A6913437B617B687A69B1
:10452C005A607B68FA68DA613B685A687B681A647F
:10453C007B683A691A6200BF1C37BD4680BC704765
:10454C00002C014080B487B000AFF860B9607A608D
:10455C00FB681B6A7B61FB681B6A23F00102FB682A
:10456C001A62FB689B693B613B6923F0F0033B617A
:10457C007B681B013A6913433B617B6923F00A0397
:10458C007B617A69BB6813437B61FB683A699A610A
:10459C00FB687A691A6200BF1C37BD4680BC704745
:1045AC0080B487B000AFF860B9607A60FB681B6AB2
:1045BC0023F01002FB681A62FB689B697B61FB6845
:1045CC001B6A3B617B6923F470437B617B681B0333
:1045DC007A6913437B613B6923F0A0033B61BB68A1
:1045EC001B013A6913433B61FB687A699A61FB686A
:1045FC003A691A6200BF1C37BD4680BC704780B454
:10460C0085B000AF786039607B689B68FB60FB68A5
:10461C0023F07003FB603A68FB68134343F0070315
:10462C00FB607B68FA689A6000BF1437BD4680BC9B
:10463C00704780B487B000AFF860B9607A603B60B7
:10464C00FB689B687B617B6923F47F437B613B68E0
:10465C001A027B681A43BB6813437A6913437B6164
:10466C00FB687A699A6000BF1C37BD4680BC7047F6
:10467C0080B487B000AFF860B9607A60BB6803F0B3
:10468C001F03012202FA03F37B61FB681A6A7B6940
:10469C00DB431A40FB681A62FB681A6ABB6803F0BA
:1046AC001F03796801FA03F31A43FB681A6200BF0F
:1046BC001C37BD4680BC704780B485B000AF7860B5
:1046CC0039607B6893F83C30012B01D1022346E022
:1046DC007B68012283F83C207B68022283F83D2012
:1046EC007B681B685B68FB607B681B689B68BB60B6
:1046FC00FB6823F07003FB603B681B68FA6813438C
:10470C00FB607B681B68FA685A607B681B68164AFA
:10471C0093420ED07B681B68B3F1804F09D07B6845
:10472C001B68124A934204D07B681B68104A934260
:10473C000CD1BB6823F08003BB603B685B68BA6834
:10474C001343BB607B681B68BA689A607B68012264
:10475C0083F83D207B68002283F83C200023184618
:10476C001437BD4680BC7047002C0140000400404B
:10477C000008004080B483B000AF786000BF0C37F5
:10478C00BD4680BC704780B483B000AF786000BF7A
:10479C000C37BD4680BC704780B582B000AF7860E6
:1047AC007B68002B01D101233FE07B6893F83D30FF
:1047BC00DBB2002B06D17B68002283F83C207868A2
:1047CC00FEF760F87B68242283F83D207B681B6829
:1047DC00DA687B681B6822F40052DA60786800F0B3
:1047EC0005F97B681B681A697B681B6822F4904288
:1047FC001A617B681B685A697B681B6822F02A0265
:10480C005A617B681B68DA687B681B6842F400524B
:10481C00DA607B6800221A647B68202283F83D20D2
:10482C007B68202283F83E20002318460837BD46BB
:10483C0080BD80B58AB002AFF860B9603B601346AA
:10484C00FB8000237B61FB6893F83D30DBB2202BAF
:10485C007CD1BB68002B02D0FB88002B01D101233B
:10486C0075E0FB6893F83C30012B01D102236EE01C
:10487C00FB68012283F83C20FB6800221A64FB6869
:10488C00212283F83D20FEF733F97861FB68FA8822
:10489C009A84FB68FA88DA84FB689B68B3F5805FBE
:1048AC0008D1FB681B69002B04D10023FB61BB689A
:1048BC00BB6103E0BB68FB610023BB61FB680022AA
:1048CC0083F83C202AE03B6800937B69002280211E
:1048DC00F86800F040F80346002B01D0032336E0C3
:1048EC00FB69002B0BD1BB691B881A46FB681B6844
:1048FC00C2F308025A60BB690233BB6107E0FB6973
:10490C001A78FB681B685A60FB690133FB61FB6812
:10491C00DB8C9BB2013B9AB2FB68DA84FB68DB8CC4
:10492C009BB2002BCFD13B6800937B6900224021C6
:10493C00F86800F010F80346002B01D0032306E0C2
:10494C00FB68202283F83D20002300E00223184658
:10495C002037BD4680BD80B584B000AFF860B9602B
:10496C003B601346FB712CE0BB69B3F1FF3F28D0D1
:10497C00BB69002B07D0FEF7BBF802463B68D31A85
:10498C00BA699A421DD2FB681B68DA68FB681B681F
:10499C0022F4D072DA60FB681B685A69FB681B68EA
:1049AC0022F001025A61FB68202283F83D20FB684B
:1049BC00202283F83E20FB68002283F83C2003234E
:1049CC000FE0FB681B681A68BB681340BA689A4210
:1049DC000CBF01230023DBB21A46FB799A42C3D0E9
:1049EC00002318461037BD4680BD000080B584B04A
:1049FC0000AF78607B681B681B6923F440517B68AF
:104A0C00DA687B681B680A431A617B689A687B6862
:104A1C001B691A437B685B691343BB607B681B682B
:104A2C00DB6823F4B05323F00C037A681268B9687E
:104A3C000B43D3607B681B685B6923F440717B6814
:104A4C009A697B681B680A435A617B681B682C4A0D
:104A5C00934203D1FEF718FFF86002E0FEF700FF67
:104A6C00F860FA6813469B0013449A001A447B685A
:104A7C005B689B00B2FBF3F3224AA2FB03235B09A6
:104A8C001901FA6813469B0013449A001A447B6878
:104A9C005B689B00B2FBF3F21A4BA3FB02035B09AE
:104AAC00642000FB03F3D31A1B013233154AA2FB1B
:104ABC0003235B0903F0F0031944FA6813469B00C7
:104ACC0013449A001A447B685B689B00B2FBF3F2B8
:104ADC000C4BA3FB02035B09642000FB03F3D31A0A
:104AEC001B013233074AA2FB03235B0903F00F02BD
:104AFC007B681B680A449A6000BF1037BD4680BDB6
:104B0C00003801401F85EB51014B1868704700BFFE
:104B1C003801002070B500260C4D0D4C641BA41000
:104B2C00A64209D100F09CFC00260A4D0A4C641BDD
:104B3C00A410A64205D170BD55F8043B9847013628
:104B4C00EEE755F8043B98470136F2E7E8550008C4
:104B5C00E8550008E8550008EC55000803460244E7
:104B6C00934200D1704703F8011BF9E70EB46FF0C4
:104B7C00004100B59CB01DAB0290069007910491CA
:104B8C000848094953F8042B0591006802A90193C0
:104B9C0000F068F80022029B1A701CB05DF804EB60
:104BAC0003B07047380100200802FFFF2DE9F047E1
:104BBC008E6882469E420C4690461F4638D88A899B
:104BCC0012F4906F32D0256809690133A5EB010905
:104BDC0065694B4405EB450505EBD5756D109D429C
:104BEC0038BF1D46530531D5294600F06FFB0646EC
:104BFC0050B90C234FF0FF30CAF80030A38943F0B2
:104C0C004003A381BDE8F0874A46216900F0CEFA43
:104C1C00A38923F4906343F08003A38126614E445F
:104C2C0026603E466561A5EB0905A560BE4200D92C
:104C3C003E4632464146206800F0C6FAA368002082
:104C4C009B1BA360236833442360DBE72A4600F0F8
:104C5C00B1FB06460028E1D15046216900F0CEFA9E
:104C6C00C7E700002DE9F04F98468B8907461B06D5
:104C7C000D4614469DB00ED50B6963B9402100F06A
:104C8C0025FB2860286120B90C233B604FF0FF30D6
:104C9C00D1E040236B610023099320238DF8293048
:104CAC0030234FF00109CDF80C80DFF8A4818DF88A
:104CBC002A3023469A4613F8012B0AB1252AF9D13A
:104CCC00BAEB040B0BD05B46224629463846FFF75D
:104CDC006DFF013000F0AA80099A5A4409929AF8A3
:104CEC000030002B00F0A28000234FF0FF32CDE902
:104CFC0005230AF1010A049307938DF853301A9394
:104D0C005446052214F8011B514800F041FA049A4C
:104D1C00D8B9D00644BF20238DF85330110744BFB7
:104D2C002B238DF853309AF800302A2B15D054468B
:104D3C0000204FF00A0C079A214611F8013B303B3A
:104D4C00092B4ED9B0B1079214E0A0EB080309FA75
:104D5C0003F31343A2460493D2E7039B191D1B686C
:104D6C000391002BBBBF5B4242F0020207930793F7
:104D7C00B8BF049223782E2B0CD163782A2B35D113
:104D8C00039B02341A1D1B680392002BB8BF4FF013
:104D9C00FF330593DFF8BCA003225046217800F0C6
:104DAC00F7F940B14023A0EB0A0003FA00F0049B92
:104DBC0001340343049314F8011B062226488DF892
:104DCC00281000F0E5F9002838D0244B1BBB039BBE
:104DDC00073323F0070308330393099B33440993E8
:104DEC0067E70C4601200CFB0232A5E700234FF0CD
:104DFC000A0C194601340593204610F8012B303A61
:104E0C00092A03D9002BC5D00591C3E70446012319
:104E1C000CFB0121F0E703AB00932A463846104BFC
:104E2C0004A9AFF30080421C0646D6D1AB895B06C1
:104E3C003FF52CAF09981DB0BDE8F08F03AB009384
:104E4C002A463846064B04A900F07CF8EBE700BF75
:104E5C00B4550008BA550008BE5500080000000003
:104E6C00B94B00082DE9F047164699468A680B693C
:104E7C0007469342B8BF1346336091F843200C4663
:104E8C00DDF820800AB1013333602368990642BFF4
:104E9C00336802333360256815F0060506D104F13A
:104EAC00190AE36832689B1AAB4228DC94F8432059
:104EBC00131E226818BF012392062DD4494638468A
:104ECC0004F14302C047013020D02368E56803F0A9
:104EDC000603042B18BF002532684FF00006A368A8
:104EEC0008BFAD1A226908BF25EAE5759342C4BF15
:104EFC009B1AED181A34B5421AD1002008E0012390
:104F0C00524649463846C047013003D14FF0FF3076
:104F1C00BDE8F0870135C4E73020E11881F8430083
:104F2C005A1C94F845102244023382F84310C5E70A
:104F3C000123224649463846C0470130E6D00136A7
:104F4C00D9E700002DE9FF470F7E9146782F804668
:104F5C000C469A460C9D01F1430207D8622F0AD8E1
:104F6C00002F00F0D980582F00F0A48004F14205E6
:104F7C0084F842703AE0A7F16303152BF6D801A12F
:104F8C0051F823F0E94F0008FD4F0008794F000855
:104F9C00794F0008794F0008794F0008FD4F000841
:104FAC00794F0008794F0008794F0008794F0008B5
:104FBC000B5100082D500008ED500008794F0008E7
:104FCC00794F00082D510008794F00082D5000082A
:104FDC00794F0008794F0008F55000082B681A1D0E
:104FEC001B682A6004F1420584F842300123A4E0D6
:104FFC0020682968060601F104030AD50E682B60A7
:10500C00002E03DA2D23764284F843300A235E48BF
:10501C0019E00E6810F0400F2B6018BF36B2EFE7A6
:10502C002B682068191D2960010601D51E6802E055
:10503C004606FBD51E886F2F0CBF08230A23524847
:10504C00002184F843106568002DA8BF2168A56075
:10505C00A4BF21F0040121600EB9002D4DD01546DE
:10506C00B6FBF3F103FB1167C75D05F8017D37460D
:10507C00BB420E46F4D9082B0BD12368DE0708D5AA
:10508C00236961689942DEBF302305F8013C05F1C4
:10509C00FF35521B22614B4621464046CDF800A0FD
:1050AC0003AAFFF7DFFE01304CD14FF0FF3004B004
:1050BC00BDE8F087344881F845702968236851F8B9
:1050CC00046B29601D0614D5DF0744BF43F0200391
:1050DC0023601EB9236823F0200323601023AFE75D
:1050EC00236843F0200323607823284884F8453054
:1050FC00E3E7590648BFB6B2E6E71546BBE72B68AF
:10510C002668181D6169286035061B6801D5196071
:10511C0002E07006FBD51980002315462361BAE71F
:10512C002B6800211A1D2A601D686268284600F051
:10513C002FF808B1401B606063682361002384F87A
:10514C004330A8E72A46494640462369D0470130F8
:10515C00ABD023689B0713D4E068039B9842B8BF7D
:10516C001846A4E70123324649464046D047013051
:10517C009BD00135E36803995B1AAB42F2DCEBE799
:10518C00002504F11906F5E7C5550008D6550008A9
:10519C00034610B5C9B202449342184601D100200F
:1051AC0003E0047801338C42F6D110BD0A449142DD
:1051BC0000F1FF3300D1704710B511F8014B91424B
:1051CC0003F8014FF9D110BD884210B501EB020470
:1051DC0002D98442234607D8431EA14208D011F8B5
:1051EC00012B03F8012FF8E7014602448A4200D153
:1051FC0010BD13F8014D02F8014DF7E738B505461F
:10520C00002940D051F8043C0C1F002BB8BFE41807
:10521C0000F010F91C4A136833B963601460284617
:10522C00BDE8384000F00CB9A34208D92068211819
:10523C008B4201BF19685B6809182160EDE71A46BB
:10524C005B680BB1A342FAD911685018A0420BD17C
:10525C0020680144501883421160E0D118685B68E3
:10526C00014411605360DAE702D90C232B60D6E7B6
:10527C00206821188B4201BF19685B6809182160EE
:10528C0063605460CBE738BD9003002070B50E4EC0
:10529C000C463168054611B900F0BCF83060214667
:1052AC00284600F0B7F8431C0AD0C41C24F00304B1
:1052BC00A04207D0211A284600F0ACF8013001D1E9
:1052CC004FF0FF34204670BD940300202DE9F041CF
:1052DC00CD1C25F0030508350C2D38BF0C25002DF1
:1052EC00074601DBA94205D90C2300263B6030465A
:1052FC00BDE8F0812E4E00F09DF833681C4634BB9F
:10530C0029463846FFF7C2FF431C04464DD134688A
:10531C002646002E40D123683146384604EB03085C
:10532C0000F078F880453AD1216803356D1A25F0E4
:10533C00030508350C2D38BF0C2538462946FFF7D8
:10534C00A5FF01302BD023682B4423600EE022688C
:10535C00521B1ED40B2A16D96119A342256018BF03
:10536C005960636808BF316062514B60384604F184
:10537C000B0600F065F826F00706231DF21AB6D0CE
:10538C009B1BA350B3E76268A3420CBF32605A6008
:10539C00ECE723466468B2E734467668B9E70C2339
:1053AC0038463B6000F04CF8A1E72560DEE700BF13
:1053BC00900300202DE9F041804614460E4621B999
:1053CC001146BDE8F041FFF781BF2AB9FFF716FF80
:1053DC0025462846BDE8F08100F038F8844207469F
:1053EC0002D8B4EB500F12D821464046FFF76EFF9F
:1053FC0005460028EDD0BC422246314628BF3A462D
:10540C00FFF7D4FE31464046FFF7F8FEE1E735469C
:10541C00DFE7000038B50023054D044608462B6035
:10542C00FDF7ACFA431C02D12B6803B1236038BDE5
:10543C0098030020014800F011B800BF9C03002025
:10544C00014800F00CB800BF9C03002051F8043C4C
:10545C00181F002BBCBF0B58C01870477047704703
:10546C00F8B500BFF8BC08BC9E467047F8B500BF45
:08547C00F8BC08BC9E46704715
:10548400214155544F4D41544943230D0A00000016
:10549400214D414E55414C230D0A000021375345FF
:1054A400473A25642564230D0A000000214348413E
:1054B4004E4745230D0A000021375345473A2564DA
:1054C4002564235245440D0A00000000213753454A
:1054D400473A256425642359454C0D0A0000000011
:1054E40021375345473A534554235245440D0A0046
:1054F40021375345473A25642564234752450D0A0D
:105504000000000021375345473A5245445F535940
:105514004E435F4F564552464C4F570D0A0000000C
:1055240021375345473A5345542359454C0D0A00F6
:1055340021375345473A534554234752450D0A00F2
:1055440021375345473A53594E430D0A0000000092
:1055540021375345473A25642564234E4557524520
:10556400440D0A0021375345473A25642564234EE8
:10557400455759454C0D0A00214155544F4D41544E
:105584004943230D0A000000020304050607080925
:105594000A0B0C0D0E0F101000000000000000009C
:1055A40001020304060708090000000001020304C5
:1055B400232D302B2000686C4C00656667454647F8
:1055C400003031323334353637383941424344457B
:1055D40046003031323334353637383961626364EA
:0455E40065660000F8
:0455E8003101000885
:0455EC000D010008A5
:1055F00088130000D0070000B80B0000170400005B
:105600001003000070030000930200001704000064
:10561000970400002705000017040000170400008D
:1056200017040000970400009704000027050000FD
:1056300027050000170400000000000027050000F7
:105640002705000075050000750500002006000014
:1056500020060000200600002006000027050000AC
:1056600027050000750500007505000020060000F4
:105670002006000020060000200600002006000092
:10568000E006000020060000750500002705000068
:105690002705000017040000170400002006000082
:1056A000E006000020060000750500002705000048
:1056B0002705000017040000000000001704000088
:1056C0001704000020060000200600001704000058
:1056D0001704000017040000000000001704000079
:1056E0001704000020060000200600001704000038
:1056F0001704000017040000000000000000000074
:105700000000000000000000000000000000000099
:105710000000000000000000000000000024F40071
:1057200010000000010000003C010020000000000B
:105730000000000000000000000000000000000069
:105740000000000000000000000000000000000059
:105750000000000000000000000000000000000049
:105760000000000000000000000000000000000039
:105770000000000000000000000000000000000029
:0C5780000000000000000000000000001D
:0400000508002A01C4
:00000001FF
