:020000040800F2
:10000000005000206D29000891280008972800085A
:100010009D280008A3280008A92800080000000067
:10002000000000000000000000000000AF280008F1
:10003000BB28000800000000C7280008D3280008DB
:10004000B5290008B5290008B5290008B529000818
:10005000B5290008B5290008B5290008B529000808
:10006000B5290008B5290008B5290008B5290008F8
:10007000B5290008B5290008B5290008B5290008E8
:10008000B5290008B5290008B5290008B5290008D8
:10009000B5290008B5290008B5290008B5290008C8
:1000A000B5290008B5290008B5290008B5290008B8
:1000B000E1280008B5290008B5290008B52900087D
:1000C000B5290008B5290008B5290008B529000898
:1000D000B5290008B5290008B5290008B529000888
:1000E000B5290008B5290008B5290008000000005E
:1000F0000000000000000000000000000000000000
:0C01000000000000000000005FF808F1A3
:10010C0010B5054C237833B9044B13B10448AFF345
:10011C0000800123237010BD9C0100200000000012
:10012C005853000808B5034B1BB103490348AFF300
:10013C00008008BD00000000A001002058530008FA
:10014C0080B582B000AF00237B60D0E06C4A7B6846
:10015C00134419786B4A7B6813440A461A706A4A2E
:10016C007B6813441978664A7B6813440A461A70F4
:10017C007B68002B0BD10221644802F00BFF034675
:10018C001946614A7B6813440A461A702BE07B6857
:10019C00012B0BD110215D4802F0FCFE03461946E1
:1001AC00594A7B6813440A461A701CE07B68022B80
:1001BC000BD10121564802F0EDFE03461946524A76
:1001CC007B6813440A461A700DE07B68032B0AD136
:1001DC0001214E4802F0DEFE034619464A4A7B686E
:1001EC0013440A461A70484A7B6813441A784449E7
:1001FC007B680B441B789A4223D1434A7B68134497
:10020C001A7840497B680B441B789A4219D1414AB1
:10021C007B6813441B78012B0AD13B4A7B6813443F
:10022C001B78002B04D13C4A7B68012142F8231037
:10023C00354A7B6813441978364A7B6813440A465E
:10024C001A70344A7B6813441B78002B17D1334A3D
:10025C007B6832F81330B3F5967F0AD22F4A7B684D
:10026C0032F81330013399B22C4A7B6822F8131000
:10027C003AE02B4A7B68134401221A7034E0254A79
:10028C007B6813441B78012B1AD1254A7B681344D5
:10029C001B78012B14D1234A7B68012142F82310CF
:1002AC001D4A7B68002142F823101C4A7B68002100
:1002BC0022F813101A4A7B68134400221A7013E0B8
:1002CC00184A7B68002142F82310134A7B680021EE
:1002DC0042F82310114A7B68002122F81310104AAF
:1002EC007B68134400221A707B6801337B607B6847
:1002FC00032B7FF72BAF00BF00BF0837BD4680BD77
:10030C00C0010020C4010020BC01002000080140F5
:10031C00000C0140B8010020FC010020CC010020A1
:10032C00C8010020EC01002080B483B000AF7860DD
:10033C00094A7B6852F82330012B06D1064A7B68A8
:10034C00002142F82310012300E0002318460C374B
:10035C00BD4680BC704700BFFC01002080B483B058
:10036C0000AF7860094A7B6852F82330012B06D124
:10037C00064A7B68002142F82310012300E0002389
:10038C0018460C37BD4680BC704700BFEC010020FE
:10039C0080B483B000AF0346FB71FB79032B01D90A
:1003AC00002307E0FB79064AD35C002B0CBF01232A
:1003BC000023DBB218460C37BD4680BC704700BF2B
:1003CC00B801002080B483B000AF0346FB71FB7909
:1003DC00032B01D9FF2307E0FB79064AD35C012BE1
:1003EC000CBF01230023DBB218460C37BD4680BC82
:1003FC00704700BFC801002080B588B000AF7B4BB0
:10040C001B78042B00F2408301A252F823F000BFAA
:10041C00310400088B040008450600088307000817
:10042C0045090008714B01221A7001F0FBFC704B5E
:10043C001B68704A82FB03129211DB17D31A6E4AA7
:10044C0013606E4B1B686B4A82FB03129211DB1715
:10045C00D31A6B4A13604FF47A7002F015F8694B9B
:10046C0000221A606849694804F036FB03469AB2C8
:10047C004FF47A736549664804F091F90DE3032152
:10048C00012001F063FC634B1B68012B02D104209B
:10049C0001F0E6FC5F4B1B68002B02D1062001F03B
:1004AC00DFFC5D4B1B68012B0ED1504B0D221A70DB
:1004BC005A49564804F010FB03469AB24FF47A732B
:1004CC005249534804F06BF90020FFF72DFF034607
:1004DC00002B14D051494D4804F0FEFA03469AB251
:1004EC004FF47A7349494A4804F059F93F4B0D22AD
:1004FC001A70494B01221A60494B00221A600020E5
:10050C00FFF760FF0346002B0AD001F08BFC374B42
:10051C0005221A70434B01221A60FA2001F098FF51
:10052C000320FFF701FF0346002B02D0394B0122B9
:10053C001A603D4B1B68012B40F0A8822E4B1B68A8
:10054C003A4A82FB03129210DB17D31A7B602A4BB8
:10055C001A68364B83FB02139910D317C91A0B4632
:10056C009B000B445B00D31A3B603B687A683049B4
:10057C00264804F0B1FA03469AB24FF47A73234931
:10058C00234804F00CF91C4B1B68013B1A4A1360FE
:10059C001B4B1B68013B1A4A1360194B1B68002B41
:1005AC001FD1244B1B68134A82FB03129211DB17D9
:1005BC00D31A134A13600D4B02221A70154B1B6889
:1005CC00012B0ED10F4B1B6801330E4A13600D4BE0
:1005DC001B68082B05D10B4B00221A600D4B002217
:1005EC001A604FF47A7001F04FFF4FE26002002066
:1005FC0000000020D34D62105002002008000020A3
:10060C005802002080020020705300080C020020C9
:10061C0014030020540200204002002080530008E4
:10062C006402002068020020600300206766666692
:10063C008C530008040000200221012001F086FBED
:10064C00AB4B1B68012B02D1042001F009FCA84B19
:10065C001B68002B02D1062001F002FC0020FFF7E2
:10066C0063FE0346002B05D0A24B01221A60A24B5D
:10067C0000221A600320FFF757FE0346002B02D01E
:10068C009B4B01221A600020FFF79CFE0346002BB7
:10069C000AD001F0C7FB994B05221A70984B012226
:1006AC001A60FA2001F0D4FE964B1B68012B40F027
:1006BC00EF81954B1B68954A82FB03129210DB1756
:1006CC00D31AFB60904B1A68904B83FB0213991062
:1006DC00D317C91A0B469B000B445B00D31ABB60A3
:1006EC00BB68FA688A498B4804F0F6F903469AB25B
:1006FC004FF47A738749884804F051F8824B1B6891
:10070C00013B814A1360854B1B68013B834A136094
:10071C00824B1B68002B29DC814B1B68814A82FBB6
:10072C0003129211DB17D31A774A13607E4B1B68A6
:10073C007C4A82FB03129211DB17D31A774A13609F
:10074C006E4B03221A706A4B1B68012B0ED1774B30
:10075C001B680133754A1360744B1B68082B05D159
:10076C00724B00221A60624B00221A604FF47A70AE
:10077C0001F08AFE8CE10121032001F0E7FA5C4BC9
:10078C001B68012B02D1052001F06AFB584B1B683A
:10079C00002B02D1062001F063FB564B1B68012B8A
:1007AC000ED1564B0F221A7061495A4804F094F935
:1007BC0003469AB24FF47A735649574803F0EFFF49
:1007CC000020FFF7B1FD0346002B1AD00020FFF7E5
:1007DC00C5FD0346002B14D1484B0F221A70544907
:1007EC004C4804F079F903469AB24FF47A734949AC
:1007FC00494803F0D4FF3F4B01221A603E4B0022C4
:10080C001A600020FFF7DEFD0346002B0AD001F032
:10081C0009FB3A4B05221A70394B01221A60FA2057
:10082C0001F016FE0320FFF77FFD0346002B02D0DC
:10083C002F4B01221A60334B1B68012B40F02A818D
:10084C00314B1B68314A82FB03129210DB17D31A0F
:10085C007B612D4B1A682D4B83FB02139910D31718
:10086C00C91A0B469B000B445B00D31A3B613B69D6
:10087C007A692749274804F02FF903469AB24FF4B6
:10088C007A732449244803F08AFF1F4B1B68013BF1
:10089C001D4A1360214B1B68013B204A13601A4B05
:1008AC001B68002B1FDC234B1B681E4A82FB0312A8
:1008BC009211DB17D31A144A1360104B04221A70CE
:1008CC000B4B1B68012B0ED1184B1B680133174ABD
:1008DC001360164B1B68082B05D1144B00221A60B1
:1008EC00034B00221A604FF47A7001F0CDFDD1E079
:1008FC00540200204002002064020020600200200C
:10090C0068020020600300205002002067666666C3
:10091C008C5300080C020020140300205802002005
:10092C0008000020D34D621000000020800200203F
:10093C0080530008040000200121022001F006FA77
:10094C00584B1B68012B02D1052001F089FA554B3D
:10095C001B68002B02D1062001F082FA0020FFF761
:10096C00E3FC0346002B05D04F4B01221A604F4B82
:10097C0000221A600020FFF725FD0346002B0AD049
:10098C0001F050FA4A4B05221A704A4B01221A60A8
:10099C00FA2001F05DFD0320FFF7C6FC0346002B97
:1009AC0002D0404B01221A603E4B1B68012B02D136
:1009BC00414B01221A60414B1B68012B6CD1404BFF
:1009CC001B68404A82FB03129210DB17D31AFB619F
:1009DC003B4B1A683B4B83FB02139910D317C91A74
:1009EC000B469B000B445B00D31ABB61BB69FA69D5
:1009FC003549364804F070F803469AB24FF47A73CE
:100A0C003249334803F0CBFE2D4B1B68013B2C4A7B
:100A1C001360304B1B68013B2E4A1360284B1B683C
:100A2C00002B2CDC2C4B1B682C4A82FB03129211E2
:100A3C00DB17D31A224A1360294B1B68274A82FB07
:100A4C0003129211DB17D31A224A1360184B01229E
:100A5C001A70194B00221A60124B1B68012B0ED115
:100A6C00204B1B6801331F4A13601E4B1B68082B5D
:100A7C0005D11C4B00221A600A4B00221A604FF45D
:100A8C007A7001F001FD07E000BF06E000BF04E052
:100A9C0000BF02E000BF00E000BF00BF2037BD4632
:100AAC0080BD00BF540200204002002064020020E0
:100ABC006002002068020020D401002060030020A6
:100ACC0050020020676666668C5300080C020020FA
:100ADC00140300205802002000000020D34D6210A7
:100AEC00080000208002002080B5A8B000AF8A4B1F
:100AFC001B78053B062B00F2298701A252F823F044
:100B0C00290B0008CB0B0008650D00082D0F000801
:100B1C00B9100008C9120008C11400087F4B01224B
:100B2C001A607F4B00221A607E4B00221A607E4BAB
:100B3C0001221A60784B06221A707C4B1B687C4A87
:100B4C0082FB03129211DB17D31A7A4A13607A498B
:100B5C007A4803F0C1FF03469AB24FF47A7377498F
:100B6C00774803F01CFE734B1B68764A82FB03121A
:100B7C009210DB17D31A7B606E4B1A68714B83FB98
:100B8C0002139910D317C91A0B469B000B445B0038
:100B9C00D31A3B603B687A686B49684803F09CFF4A
:100BAC0003469AB24FF47A736449654803F0F7FD33
:100BBC0001F038F9FA2001F04BFC00F0D4BE574B91
:100BCC0001221A60564B00221A60564B00221A6002
:100BDC000020FFF7A9FB0346002B33D05B4B1B68AF
:100BEC00534A82FB03129211DB17D31A514A13603A
:100BFC0001F018F94F4B1B68524A82FB03129210FA
:100C0C00DB17D31A7B614B4B1A684E4B83FB0213D9
:100C1C009910D317C91A0B469B000B445B00D31ACF
:100C2C003B613B697A694A49444803F055FF0346E6
:100C3C009AB24FF47A734149414803F0B0FD364BF8
:100C4C0007221A700120FFF76FFB0346002B02D01E
:100C5C00314B09221A700120FFF79AFB0346002B37
:100C6C003DD00120FFF7AEFB0346002B37D02A4BBB
:100C7C000A221A702F4B1B680A332E4A13602D4B15
:100C8C001B68304A82FB03129210DB17D31AFB60ED
:100C9C00284B1A682B4B83FB02139910D317C91AD4
:100CAC000B469B000B445B00D31ABB60BB68FA6815
:100CBC002549224803F010FF03469AB24FF47A7389
:100CCC001E491F4803F06BFD1A4B1B68632B02DD9A
:100CDC00184B00221A604FF47A7001F09DFB022031
:100CEC00FFF722FB0346002B00F032860A4B0B2247
:100CFC001A701849114803F0EFFE03469AB24FF4EC
:100D0C007A730E490E4803F04AFD40F6B83001F0F4
:100D1C0067FB00F01DBE00BF600200204C020020EB
:100D2C00480200206C020020680200200000002015
:100D3C00D34D62105C0200209C5300080C02002072
:100D4C001403002067666666A853000804000020A0
:100D5C00BC530008D0530008634B00221A60634B4D
:100D6C0001221A60624B00221A600020FFF7DCFAA5
:100D7C000346002B33D05F4B1B685F4A82FB031288
:100D8C009211DB17D31A5D4A136001F04BF85B4BE1
:100D9C001B685B4A82FB03129210DB17D31A7B622F
:100DAC00564B1A68564B83FB02139910D317C91A6A
:100DBC000B469B000B445B00D31A3B623B6A7A6A7E
:100DCC005049514803F088FE03469AB24FF47A73A7
:100DDC004D494E4803F0E3FC4D4B08221A7001209C
:100DEC00FFF7A2FA0346002B02D0494B09221A70D6
:100DFC000120FFF7CDFA0346002B59D00120FFF755
:100E0C00E1FA0346002B53D0414B0A221A703B4B9C
:100E1C001B680A33394A1360384B1B68384A82FB0B
:100E2C0003129210DB17D31AFB61344B1A68344B44
:100E3C0083FB02139910D317C91A0B469B000B4462
:100E4C005B00D31ABB61BB69FA6932492E4803F0C7
:100E5C0043FE03469AB24FF47A732B492B4803F0A6
:100E6C009EFC264B1B68632B02DD244B00221A6070
:100E7C00204B1B68204A82FB03129211DB17D21AFB
:100E8C001E4B1B681344632B0EDD23491E4803F0D5
:100E9C0023FE03469AB24FF47A731B491B4803F0A6
:100EAC007EFC164B00221A604FF47A7001F0B4FAF3
:100EBC000220FFF739FA0346002B00F04B85144B48
:100ECC000B221A701549104803F006FE03469AB21D
:100EDC004FF47A730C490D4803F061FC40F6B830BE
:100EEC0001F07EFA00F036BD4C02002048020020D2
:100EFC006C02002008000020D34D62105C02002020
:100F0C0067666666E05300080C020020140300209C
:100F1C0060020020BC530008F45300081054000871
:100F2C00AA4B00221A60AA4B00221A60A94B01227C
:100F3C001A600020FFF7F8F90346002B31D0A64BBE
:100F4C001B68A64A82FB03129211DB17D31AA44A20
:100F5C001360A34B1B68A34A82FB03129210DB178E
:100F6C00D31A7B639E4B1A689E4B83FB021399101A
:100F7C00D317C91A0B469B000B445B00D31A3B6377
:100F8C003B6B7A6B9849994803F0A6FD03469AB2DD
:100F9C004FF47A739549964803F001FC954B062261
:100FAC001A700120FFF7C0F90346002B02D0914BB9
:100FBC0009221A700120FFF7EBF90346002B59D0D8
:100FCC000120FFF7FFF90346002B53D0894B0A226F
:100FDC001A70834B1B680A33814A1360804B1B6861
:100FEC00804A82FB03129210DB17D31AFB627C4BF4
:100FFC001A687C4B83FB02139910D317C91A0B4642
:10100C009B000B445B00D31ABB62BB6AFA6A7A4939
:10101C00764803F061FD03469AB24FF47A73734934
:10102C00734803F0BCFB6E4B1B68632B02DD6C4BEF
:10103C0000221A60714B1B68684A82FB03129211E2
:10104C00DB17D21A664B1B681344632B0EDD6C49FD
:10105C00664803F041FD03469AB24FF47A73634934
:10106C00634803F09CFB5E4B00221A604FF47A70CD
:10107C0001F0D2F90220FFF757F90346002B00F0DC
:10108C006B845C4B0B221A705E49584803F024FDAC
:10109C0003469AB24FF47A735449554803F07FFBD8
:1010AC0040F6B83001F09CF900F056BC474B1B6879
:1010BC00012B35D14A4B1B680133494A1360484B0D
:1010CC001B68484A82FB03129210DB17D31AFB638E
:1010DC00434B1A68434B83FB02139910D317C91A5D
:1010EC000B469B000B445B00D31ABB63BB6BFA6BC8
:1010FC003D493E4803F0F0FC03469AB24FF47A7334
:10110C003A493B4803F04BFB354B1B68632B02DD24
:10111C00334B00221A60374B06221A7000F01EBCAB
:10112C002B4B1B68012B73D12D4B1B6801332C4AA5
:10113C0013602B4B1B682B4A82FB03129210DB179C
:10114C00D31A7B64264B1A68264B83FB0213991027
:10115C00D317C91A0B469B000B445B00D31A3B6494
:10116C003B6C7A6C2849214803F0B6FC03469AB2D2
:10117C004FF47A731D491E4803F011FB184B1B6882
:10118C00632B02DD164B00221A60204B1B68134A9E
:10119C0082FB03129211DB17D21A114B1B681344FA
:1011AC00632B0EDD1649114803F096FC03469AB2E8
:1011BC004FF47A730D490E4803F0F1FA084B0022F4
:1011CC001A600C4B07221A70C8E300BF4C020020B7
:1011DC00480200206C02002000000020D34D621059
:1011EC005C02002067666666A85300080C020020AB
:1011FC001403002060020020E053000804000020CB
:10120C00F453000820540008BC53000808000020C8
:10121C00964B1B68012B40F0A183954B1B68013347
:10122C00934A1360924B1B68924A82FB03129210F2
:10123C00DB17D31AFB648E4B1A688E4B83FB02139D
:10124C009910D317C91A0B469B000B445B00D31A99
:10125C00BB64BB6CFA6C8849884803F03DFC0346C0
:10126C009AB24FF47A738549854803F098FA804B0B
:10127C001B68632B02DD7E4B00221A60814B1B68BE
:10128C00814A82FB03129211DB17D21A784B1B682E
:10129C001344632B0EDD7D49784803F01DFC034697
:1012AC009AB24FF47A737549754803F078FA704B1B
:1012BC0000221A60764B08221A704FE3754B1B689C
:1012CC00012B0ED1744B1B680133734A1360724BA4
:1012DC001B68012B02DD704B00221A60C82001F044
:1012EC00EFF86E4B1B68012B40F0A080604B1B6825
:1012FC000A335F4A13606A4B1B68012B1CD1694B84
:10130C001B68614A82FB03129211DB17D21A584BED
:10131C001B681344632B2FDD5C49584803F0DCFB3E
:10132C0003469AB24FF47A735449554803F037FA8E
:10133C004F4B00221A601FE04C4B1B68012B1BD13A
:10134C00504B1B68504A82FB03129211DB17D21AC6
:10135C00474B1B681344632B0EDD4C49474803F085
:10136C00BBFB03469AB24FF47A734449444803F0EA
:10137C0016FA3F4B00221A603D4B1B683D4A82FB1C
:10138C0003129210DB17D31A7B65394B1A68394B51
:10139C0083FB02139910D317C91A0B469B000B44FD
:1013AC005B00D31A3B65404B1B68012B0ED13B6D88
:1013BC007A6D3E49314803F08FFB03469AB24FF4E5
:1013CC007A732E492E4803F0EAF924E0344B1B685B
:1013DC00012B0ED13B6D7A6D3549284803F07CFB0F
:1013EC0003469AB24FF47A732449254803F0D7F98F
:1013FC0011E01E4B1B68012B0DD13B6D7A6D1E4904
:10140C001E4803F069FB03469AB24FF47A731B49EA
:10141C001B4803F0C4F9164B1B68632B02DD144BFD
:10142C0000221A604FF47A7000F0F6FF0120FEF7EC
:10143C00AFFF0346002B40F093821B4B1B68012B24
:10144C0003D1134B06221A708AE2154B1B68012B31
:10145C0003D10F4B07221A7082E2044B1B68012B3D
:10146C0040F07E820A4B08221A7079E26C0200204E
:10147C005C02002067666666E05300080C020020E0
:10148C001403002004000020D34D6210F453000814
:10149C006002002084030020440200207C03002012
:1014AC0048020020080000204C020020A85300082D
:1014BC00BC530008A34B1B68012B40F09D80A24934
:1014CC00A24803F009FB03469AB24FF47A739F4982
:1014DC009F4803F064F99F4B1B684FF47A7202FB30
:1014EC0003F39D4A13609C4B1A689C4B1B68D31AE0
:1014FC009B4A1360984B1B689A4A82FB0312121387
:10150C00DB17D31AFB66944B1B68974A82FB0312BA
:10151C009211DB17D21A954B83FB02139910D31738
:10152C00C91A0B469B000B445B00D31ABB668B4B52
:10153C001B688C4A82FB03121213DB17D31A7B66CF
:10154C00864B1B68884A82FB03129211DB17D21A56
:10155C00864B83FB02139910D317C91A0B469B00B9
:10156C000B445B00D31A3B667D4B1B687D4A82FBA8
:10157C0003121213DB17D31AFB65794B1B687A4ADB
:10158C0082FB03129211DB17D21A784B83FB0213E6
:10159C009910D317C91A0B469B000B445B00D31A46
:1015AC00BB65BB6EFA6E7249684803F095FA034648
:1015BC009AB24FF47A736549654803F0F0F83B6EC4
:1015CC007A6E6C49614803F087FA03469AB24FF47D
:1015DC007A735E495E4803F0E2F8BB6DFA6D6549BB
:1015EC005A4803F079FA03469AB24FF47A73574982
:1015FC00574803F0D4F86EE15F4B1B68012B40F0A9
:10160C00BD805149514803F067FA03469AB24FF432
:10161C007A734E494E4803F0C2F84E4B1B684FF498
:10162C007A7202FB03F34D4A13604C4B1A684C4B15
:10163C001B681344484A1360474B1B68494A82FB9A
:10164C0003121213DB17D31AC7F88430424B1B68F2
:10165C00454A82FB03129211DB17D21A434B83FBD0
:10166C0002139910D317C91A0B469B000B445B004D
:10167C00D31AC7F88030394B1B683A4A82FB0312E5
:10168C001213DB17D31AFB67344B1B68364A82FBE9
:10169C0003129211DB17D21A344B83FB02139910ED
:1016AC00D317C91A0B469B000B445B00D31ABB67BC
:1016BC002B4B1B682B4A82FB03121213DB17D31A1A
:1016CC007B67274B1B68284A82FB03129211DB179E
:1016DC00D21A264B83FB02139910D317C91A0B4647
:1016EC009B000B445B00D31A3B67D7F88030D7F8CC
:1016FC0084201F49154803F0EFF903469AB24FF4C2
:10170C007A731249124803F04AF8BB6FFA6F194901
:10171C000E4803F0E1F903469AB24FF47A730B4981
:10172C000B4803F03CF83B6F7A6F1249074803F003
:10173C00D3F903469AB24FF47A730449044803F080
:10174C002EF8C8E04C020020305400080C02002097
:10175C00140300205C020020000000200400002084
:10176C0008000020AD8BDB68D34D6210676666669F
:10177C004054000854540008480200207C4B1B685D
:10178C00012B40F0A8807B497B4803F0A5F9034668
:10179C009AB24FF47A737849784803F000F8784B92
:1017AC001B684FF47A7202FB03F3764A1360764B94
:1017BC001A68744B1B681344744A1360734B1B6890
:1017CC00734A82FB03121213DB17D31AC7F89C302F
:1017DC006E4B1B686F4A82FB03129211DB17D21AF5
:1017EC006D4B83FB02139910D317C91A0B469B0040
:1017FC000B445B00D31AC7F89830634B1B68644AE0
:10180C0082FB03121213DB17D31AC7F894305E4B0A
:10181C001B68604A82FB03129211DB17D21A5E4BD3
:10182C0083FB02139910D317C91A0B469B000B4468
:10183C005B00D31AC7F89030524B1B68544A82FB9A
:10184C0003121213DB17D31AC7F88C304D4B1B68DD
:10185C00504A82FB03129211DB17D21A4E4B83FBB8
:10186C0002139910D317C91A0B469B000B445B004B
:10187C00D31AC7F88830D7F89830D7F89C20474946
:10188C003D4803F029F903469AB24FF47A733A496A
:10189C003A4802F084FFD7F89030D7F894204049AA
:1018AC00354803F019F903469AB24FF47A7332496A
:1018BC00324802F074FFD7F88830D7F88C203849BA
:1018CC002D4803F009F903469AB24FF47A732A496A
:1018DC002A4802F064FF334B00221A60324B00227C
:1018EC001A60234B00221A60304B00221A60304BD6
:1018FC0000221A602F4B00221A60214B00221A6022
:10190C0000F090FA0020FEF70FFD0346002B15D0D7
:10191C00264B01221A60FA2000F09AFDC82000F034
:10192C00CFFD1A4B1B681B4A82FB03129211DB176B
:10193C00D31A134A1360204B06221A701F4B1B68D4
:10194C00012B0FD11C4B00221A700BE000BF0AE0D8
:10195C0000BF08E000BF06E000BF04E000BF02E0EB
:10196C0000BF00E000BF00BFA037BD4680BD00BF78
:10197C006C020020305400080C02002014030020DC
:10198C005C02002008000020040000200000002061
:10199C00AD8BDB68D34D62106766666640540008F9
:1019AC00545400084C020020480200206802002019
:1019BC0040020020840300206002002088030020E5
:1019CC0080B500AF2E4B1B68012B57D12D4B1B68DC
:1019DC00012B19D12C4B1B68012B15D1002208218E
:1019EC002A4801F0EEFA00221021284801F0E9FA09
:1019FC004FF48061264801F0FCFA2021234801F0C5
:101A0C00F8FAFA2000F024FD224B1B68012B17D1A9
:101A1C001D4B1B68012B13D14FF480611C4801F046
:101A2C00E8FA0821194801F0E4FA2021174801F0DE
:101A3C00E0FA1021154801F0DCFAFA2000F008FD5C
:101A4C00154B1B68012B19D10F4B1B68012B15D1A2
:101A5C0000224FF480610E4801F0B3FA00222021DD
:101A6C000A4801F0AEFA0821084801F0C2FA102128
:101A7C00064801F0BEFAFA2000F0EAFC00BF80BD77
:101A8C00700300204C02002068020020000C014072
:101A9C0000080140480200206C02002080B500AF15
:101AAC009D4B1B780D3B032B00F22A8101A252F8AF
:101ABC0023F000BFD11A0008451B0008F11B0008D9
:101ACC00631C00080321012000F040F90120FEF7FF
:101ADC002BFC0346002B07D08F4B0E221A708F4B1A
:101AEC001B68184600F060FC0220FEF71DFC034644
:101AFC00002B16D08A4B01221A608A498A4802F0C0
:101B0C00EBFF03469AB24FF47A738749874802F089
:101B1C0046FE814B0E221A70804B1B68184600F053
:101B2C0043FC0020FEF71AFC0346002B00F0EA8071
:101B3C00794B05221A70E5E00221012000F006F92C
:101B4C000220FEF7F1FB0346002B0ED075497648B8
:101B5C0002F0C2FF03469AB24FF47A73724973488B
:101B6C0002F01DFE6E4B01221A60714B1B68012B9B
:101B7C0007D16B4B1B68002B03D1674B0F221A70DC
:101B8C0025E06B4B1B68012B21D1654B1B68012B8E
:101B9C001DD1684B00221A60674B1B68674A82FB99
:101BAC0003129211DB17D31A654A1360654B1B683D
:101BBC00624A82FB03129211DB17D31A624A13603A
:101BCC00554B03221A704FF47A7000F05DFC002024
:101BDC00FEF7C4FB0346002B00F096804E4B05220B
:101BEC001A7091E00121032000F0B0F80220FEF7FA
:101BFC009BFB0346002B16D0494B01221A60494926
:101C0C00494802F069FF03469AB24FF47A73464989
:101C1C00464802F0C4FD404B10221A703F4B1B6823
:101C2C00184600F0C1FB0120FEF77EFB0346002B9B
:101C3C0007D0394B10221A70384B1B68184600F02D
:101C4C00B3FB0020FEF78AFB0346002B5ED0324B21
:101C5C0005221A705AE00220FEF766FB0346002BA1
:101C6C000ED03049304802F037FF03469AB24FF499
:101C7C007A732D492D4802F092FD294B01221A60EE
:101C8C000121022000F062F8294B1B68012B07D1BF
:101C9C00234B1B68002B03D11F4B0D221A7025E020
:101CAC00234B1B68012B21D11D4B1B68012B1DD114
:101CBC00204B00221A60234B1B68204A82FB031224
:101CCC009211DB17D31A1E4A13601B4B1B681B4A5D
:101CDC0082FB03129211DB17D31A1B4A13600E4BB3
:101CEC0001221A704FF47A7000F0CEFB0020FEF740
:101CFC0035FB0346002B0BD0074B05221A7007E06F
:101D0C0000BF06E000BF04E000BF02E000BF00E03F
:101D1C0000BF00BF80BD00BF600200200400002097
:101D2C0064020020685400080C02002014030020F8
:101D3C00940300204002002008000020D34D6210C4
:101D4C0050020020000000205802002080B582B014
:101D5C0000AF786039607B68032B21D07B68032B44
:101D6C002ADC7B68012B03D07B68022B0CD023E090
:101D7C0001224FF48061294801F023F90022082147
:101D8C00274801F01EF917E001224FF48061234827
:101D9C0001F017F901220821214801F012F90BE09A
:101DAC0000224FF480611D4801F00BF9012208213B
:101DBC001B4801F006F900BF3B68032B1FD03B68A2
:101DCC00032B27DC3B68012B03D03B68022B0BD089
:101DDC0020E001222021124801F0F3F8002210210A
:101DEC000F4801F0EEF815E0012220210C4801F01B
:101DFC00E8F8012210210A4801F0E3F80AE0002279
:101E0C002021074801F0DDF801221021044801F0DF
:101E1C00D8F800BF00BF0837BD4680BD00080140A0
:101E2C00000C014080B500AF00224FF480610A48DD
:101E3C0001F0C7F800220821084801F0C2F800227E
:101E4C002021064801F0BDF800221021034801F0C2
:101E5C00B8F800BF80BD00BF00080140000C014075
:101E6C0080B582B000AF78607B68062B23D07B688E
:101E7C00062B2CDC7B68042B03D07B68052B0DD048
:101E8C0025E001224FF48061194801F09AF80022F4
:101E9C004FF48071174801F094F825E000224FF4BC
:101EAC008061134801F08DF801224FF480711148C4
:101EBC0001F087F818E000224FF480610C4801F023
:101ECC0080F800224FF480710A4801F07AF8002261
:101EDC004FF48061064801F074F800224FF48071D1
:101EEC00044801F06EF800BF00BF0837BD4680BD46
:101EFC00000C01400008014080B500AF00F056FD19
:101F0C0000F026F800F036F900F064F800F0AEF8B6
:101F1C0000F006F90A4801F0EFFC0021094801F035
:101F2C008DFD094800F0A8F9084B00221A70FEF745
:101F3C0063FAFEF7D9FDFFF7B1FDFFF741FDF6E7B8
:101F4C00CC0200208402002000040040600200202B
:101F5C0080B590B000AF07F1180328220021184675
:101F6C0002F0B2FD3B1D00221A605A609A60DA60E2
:101F7C001A610223BB610123BB621023FB620223A3
:101F8C007B630023BB634FF46013FB6307F11803FF
:101F9C00184601F047F80346002B01D000F066F913
:101FAC000F237B600223BB600023FB604FF4806334
:101FBC003B6100237B613B1D0221184601F0B2FA04
:101FCC000346002B01D000F051F900BF4037BD464D
:101FDC0080BD000080B586B000AF07F10803002279
:101FEC001A605A609A60DA603B4600221A605A60A6
:101FFC001D4B4FF080421A601B4B41F63F725A60EA
:10200C00194B00229A60184B4F22DA60164B0022B3
:10201C001A61154B00229A61134801F01DFC03460E
:10202C00002B01D000F022F94FF48053BB6007F174
:10203C00080319460C4801F069FF0346002B01D038
:10204C0000F014F900233B6000237B603B461946EB
:10205C00054802F0E7FA0346002B01D000F006F920
:10206C0000BF1837BD4680BDCC02002080B58AB0B9
:10207C0000AF07F1200300221A605A603B1D0022BA
:10208C001A605A609A60DA601A615A619A61224B3E
:10209C00224A1A60204B3F225A601F4B00229A6042
:1020AC001D4B40F2E732DA601B4B00221A611A4BCF
:1020BC0000229A61184801F071FC0346002B01D0F4
:1020CC0000F0D4F800233B6200237B6207F120036D
:1020DC001946114802F0A6FA0346002B01D000F075
:1020EC00C5F860237B600023BB600023FB600023EA
:1020FC007B613B1D00221946074801F049FE03464F
:10210C00002B01D000F0B2F8034800F03FFB00BFF9
:10211C002837BD4680BD00BF84020020000400406B
:10212C0080B500AF114B124A1A60104B4FF4E132DC
:10213C005A600E4B00229A600C4B0022DA600B4B5B
:10214C0000221A61094B0C225A61084B00229A6139
:10215C00064B0022DA61054802F0D4FA0346002B44
:10216C0001D000F083F800BF80BD00BF1403002035
:10217C000044004080B586B000AF07F10803002290
:10218C001A605A609A60DA602E4B9B692D4A43F0B4
:10219C00040393612B4B9B6903F004037B607B6806
:1021AC00284B9B69274A43F008039361254B9B6995
:1021BC0003F008033B603B6800224FF48761224820
:1021CC0000F0FFFE00224FF4A061204800F0F9FE61
:1021DC001323BB600023FB6001233B6107F1080361
:1021EC0019461A4800F052FD0123BB600023FB6026
:1021FC0001233B6107F108031946134800F046FD23
:10220C004FF48763BB600123FB6000233B61022317
:10221C007B6107F1080319460B4800F037FD4FF4BA
:10222C00A063BB600123FB6000233B6102237B6145
:10223C0007F108031946054800F028FD00BF1837C0
:10224C00BD4680BD00100240000C0140000801405A
:10225C0080B582B000AF786000F064F8FDF770FFD5
:10226C0000F066F900BF0837BD4680BD80B400AFF2
:10227C0072B600BFFEE7000080B582B000AF786098
:10228C007B689B6A044A13600A2000F035F900BF92
:10229C000837BD4680BD00BFDC01002084B080B58E
:1022AC0000AF07F1080C8CE80F000122002119483F
:1022BC0002F094F9184B1B781A4613461B019B1A13
:1022CC005B001A463B6D1A44BB685A63124B1B7871
:1022DC005900124B83FB01231A11CB17D21A134648
:1022EC00DB001344DB00CA1A0D4B53F822304FF4B9
:1022FC007A4292FBF3F2074B9A62074B1B7801333D
:10230C00DAB2054B1A7000BFBD46BDE8804004B080
:10231C00704700BF00040040D8010020398EE3381C
:10232C000C000020F0B591B010AF194B1B68012BBD
:10233C002AD1184B1B68012B13D1174E28230E934F
:10234C006D4606F110040FCC0FC50FCC0FC50FCC8A
:10235C000FC594E8030085E8030096E80F00FFF72B
:10236C009DFF0C4B1B68002B0BD1002200210B484E
:10237C0002F034F90A4B00221A70084A094B1B6808
:10238C009362AA2000F0B8F800BF0437BD46F0BD38
:10239C0098030020D4010020840200200004004097
:1023AC00D8010020DC01002080B483B000AF78603D
:1023BC007B68084A82FB03129210DB17D31A064A79
:1023CC001360064B00221A6000BF0C37BD4680BC60
:1023DC00704700BF67666666780300209403002090
:1023EC0080B483B000AF78607B68084A82FB03122C
:1023FC009210DB17D31A064A1360064B00221A60A0
:10240C0000BF0C37BD4680BC704700BF6766666670
:10241C006C0300208803002080B483B000AF786088
:10242C007B68084A82FB03129210DB17D31A064A08
:10243C001360064B00221A6000BF0C37BD4680BCEF
:10244C00704700BF676666669C0300207C03002013
:10245C0080B483B000AF78607B68084A82FB0312BB
:10246C009210DB17D31A064A1360064B00221A602F
:10247C0000BF0C37BD4680BC704700BF6766666600
:10248C00640300207003002080B483B000AF786038
:10249C007B68084A82FB03129210DB17D31A064A98
:1024AC001360064B00221A6000BF0C37BD4680BC7F
:1024BC00704700BF67666666600300205C030020FF
:1024CC0080B483B000AF78607B68084A82FB03124B
:1024DC009210DB17D31A064A1360064B00221A60BF
:1024EC0000BF0C37BD4680BC704700BF6766666690
:1024FC008C0300208403002080B483B000AF78608C
:10250C007B68084A82FB03129210DB17D31A064A27
:10251C001360064B00221A6000BF0C37BD4680BC0E
:10252C00704700BF67666666900300209803002022
:10253C0080B400AF494B1B68002B0BDB474B1B686F
:10254C00013B464A1360454B1B68002B02D1444BA0
:10255C0001221A60434B1B68002B0BDB414B1B68A1
:10256C00013B404A13603F4B1B68002B02D13E4B92
:10257C0001221A603D4B1B68002B0BDB3B4B1B688D
:10258C00013B3A4A1360394B1B68002B02D1384B84
:10259C0001221A60374B1B68002B0BDB354B1B6879
:1025AC00013B344A1360334B1B68002B02D1324B76
:1025BC0001221A60314B1B68002B0BDB2F4B1B6865
:1025CC00013B2E4A13602D4B1B68002B02D12C4B68
:1025DC0001221A602B4B1B68002B0BDB294B1B6851
:1025EC00013B284A1360274B1B68002B02D1264B5A
:1025FC0001221A60254B1B68002B0BDB234B1B683D
:10260C00013B224A1360214B1B68002B02D1204B4B
:10261C0001221A601F4B1B68002B0BDB1D4B1B6828
:10262C00013B1C4A13601B4B1B68002B02D11A4B3D
:10263C0001221A60194B1B68002B0BDB174B1B6814
:10264C00013B164A1360154B1B68002B02D1144B2F
:10265C0001221A6000BFBD4680BC70477803002081
:10266C009403002068030020580300206C03002012
:10267C00880300209C0300207C03002064030020BE
:10268C0070030020600300205C0300208003002006
:10269C00740300208C03002084030020900300208E
:1026AC009803002080B485B000AF154B9B69144A89
:1026BC0043F001039361124B9B6903F00103BB6070
:1026CC00BB680F4BDB690E4A43F08053D3610C4B54
:1026DC00DB6903F080537B607B680A4B5B68FB60B3
:1026EC00FB6823F0E063FB60FB6843F00073FB6066
:1026FC00044AFB68536000BF1437BD4680BC70476A
:10270C00001002400000014080B584B000AF78603A
:10271C007B681B68B3F1804F13D10C4BDB690B4A00
:10272C0043F00103D361094BDB6903F00103FB6048
:10273C00FB68002200211C2000F071FA1C2000F024
:10274C008AFA00BF1037BD4680BD00BF00100240A2
:10275C0080B485B000AF78607B681B68094A9342EF
:10276C000BD1094BDB69084A43F00203D361064BDA
:10277C00DB6903F00203FB60FB6800BF1437BD4646
:10278C0080BC7047000400400010024080B588B047
:10279C0000AF786007F1100300221A605A609A604B
:1027AC00DA607B681B680F4A934217D10E4B9B690A
:1027BC000D4A43F0040393610B4B9B6903F0040334
:1027CC00FB60FB6840233B6102237B610223FB61BE
:1027DC0007F110031946054800F058FA00BF2037DE
:1027EC00BD4680BD000400400010024000080140BE
:1027FC0080B588B000AF786007F1100300221A6032
:10280C005A609A60DA607B681B681B4A93422FD12E
:10281C001A4BDB69194A43F40033D361174BDB695C
:10282C0003F40033FB60FB68144B9B69134A43F0C1
:10283C0004039361114B9B6903F00403BB60BB68F9
:10284C0004233B6102237B610323FB6107F110032B
:10285C0019460B4800F01AFA08233B6100237B61F0
:10286C000023BB6107F110031946054800F00EFA6E
:10287C0000BF2037BD4680BD004400400010024020
:10288C000008014080B400AFFEE780B400AFFEE763
:10289C0080B400AFFEE780B400AFFEE780B400AFB9
:1028AC00FEE780B400AF00BFBD4680BC704780B46B
:1028BC0000AF00BFBD4680BC704780B400AF00BF06
:1028CC00BD4680BC704780B500AF00F0B5F800BFC6
:1028DC0080BD000080B500AF024801F051F900BF87
:1028EC0080BD00BFCC02002080B586B000AF786000
:1028FC00144A154BD31A7B617B693B61134B1B68E4
:10290C00002B02D1114B124A1A60104B1A687B68CB
:10291C0013443A699A4207D202F0ACF803460C22EF
:10292C001A604FF0FF3309E0084B1B68FB60074B44
:10293C001A687B681344054A1360FB6818461837FD
:10294C00BD4680BD0050002000040000E0010020C6
:10295C00B803002080B400AF00BFBD4680BC7047F8
:10296C000C480D490D4A002302E0D458C4500433DE
:10297C00C4188C42F9D30A4A0A4C002301E01360B4
:10298C000432A242FBD3FFF7E5FF02F079F8FFF720
:10299C00B3FA7047000000209C010020DC540008B2
:1029AC009C010020B4030020FEE7000080B500AFBE
:1029BC00084B1B68074A43F010031360032000F018
:1029CC0023F90F2000F008F8FFF76CFE00231846DF
:1029DC0080BD00BF0020024080B582B000AF78609F
:1029EC00124B1A68124B1B7819464FF47A73B3FBCF
:1029FC00F1F3B2FBF3F3184600F03BF90346002B5E
:102A0C0001D001230EE07B680F2B0AD800227968D5
:102A1C004FF0FF3000F003F9064A7B681360002387
:102A2C0000E0012318460837BD4680BD2C0100206C
:102A3C00340100203001002080B400AF054B1B781E
:102A4C001A46054B1B681344034A136000BFBD466E
:102A5C0080BC704734010020A003002080B400AF7C
:102A6C00024B1B681846BD4680BC7047A003002073
:102A7C0080B485B000AF78607B6803F00703FB601F
:102A8C000C4BDB68BB60BA684FF6FF031340BB60AE
:102A9C00FB681A02BB68134343F0BF6343F4003373
:102AAC00BB60044ABB68D36000BF1437BD4680BC12
:102ABC00704700BF00ED00E080B400AF044BDB6852
:102ACC001B0A03F007031846BD4680BC704700BFC5
:102ADC0000ED00E080B483B000AF0346FB7197F9C2
:102AEC000730002B0BDBFB7903F01F02064997F92B
:102AFC0007305B09012000FA02F241F8232000BFE5
:102B0C000C37BD4680BC704700E100E080B483B058
:102B1C0000AF03463960FB7197F90730002B0ADBD5
:102B2C003B68DAB20C4997F907301201D2B20B4468
:102B3C0083F800230AE03B68DAB20849FB7903F01A
:102B4C000F03043B1201D2B20B441A7600BF0C37B0
:102B5C00BD4680BC704700BF00E100E000ED00E026
:102B6C0080B489B000AFF860B9607A60FB6803F09C
:102B7C000703FB61FB69C3F10703042B28BF042384
:102B8C00BB61FB690433062B02D9FB69033B00E0F4
:102B9C0000237B614FF0FF32BB6902FA03F3DA4387
:102BAC00BB681A407B699A404FF0FF317B6901FA90
:102BBC0003F3D9437B680B40134318462437BD46B7
:102BCC0080BC704780B582B000AF78607B68013BF9
:102BDC00B3F1807F01D301230FE00A4A7B68013BEC
:102BEC0053600F214FF0FF30FFF790FF054B002291
:102BFC009A60044B07221A60002318460837BD461A
:102C0C0080BD00BF10E000E080B582B000AF7860FE
:102C1C007868FFF72DFF00BF0837BD4680BD80B533
:102C2C0086B000AF0346B9607A60FB7300237B610A
:102C3C00FFF742FF78617A68B9687869FFF790FF0F
:102C4C00024697F90F3011461846FFF75FFF00BF99
:102C5C001837BD4680BD80B582B000AF0346FB710E
:102C6C0097F907301846FFF735FF00BF0837BD4608
:102C7C0080BD80B582B000AF78607868FFF7A2FFA6
:102C8C00034618460837BD4680BD000080B48BB0A3
:102C9C0000AF7860396000237B6200233B6269E1FE
:102CAC0001227B6A02FA03F3FB613B681B68FA6939
:102CBC001340BB61BA69FB699A4240F058813B688A
:102CCC005B689A4A93425ED0984A934275D8984A68
:102CDC00934258D0964A93426FD8964A934252D018
:102CEC00944A934269D8944A93424CD0924A934264
:102CFC0063D8924A934246D0904A93425DD8122BA5
:102D0C002AD8122B59D801A252F823F0932D00087F
:102D1C006D2D00087F2D0008C12D0008C72D00085F
:102D2C00C72D0008C72D0008C72D0008C72D0008A7
:102D3C00C72D0008C72D0008C72D0008C72D000897
:102D4C00C72D0008C72D0008C72D0008C72D000887
:102D5C00752D0008892D0008794A934213D02CE078
:102D6C003B68DB683B6229E03B68DB6804333B6211
:102D7C0024E03B68DB6808333B621FE03B68DB68A0
:102D8C000C333B621AE03B689B68002B02D1042396
:102D9C003B6213E03B689B68012B05D108233B6227
:102DAC007B68FA691A6109E008233B627B68FA695F
:102DBC005A6103E000233B6200E000BFBB69FF2BBC
:102DCC0001D87B6801E07B6804337B61BB69FF2B16
:102DDC0002D87B6A9B0002E07B6A083B9B003B614C
:102DEC007B691A680F213B6901FA03F3DB431A4034
:102DFC00396A3B6901FA03F31A437B691A603B6831
:102E0C005B6803F08053002B00F0B1804D4B9B6945
:102E1C004C4A43F0010393614A4B9B6903F0010355
:102E2C00BB60BB68484A7B6A9B08023352F823306C
:102E3C00FB607B6A03F003039B000F2202FA03F38F
:102E4C00DB43FA681340FB607B68404A934213D023
:102E5C007B683F4A93420DD07B683E4A934207D031
:102E6C007B683D4A934201D1032306E0042304E02E
:102E7C00022302E0012300E000237A6A02F003023D
:102E8C0092009340FA681343FB602F497B6A9B08BE
:102E9C000233FA6841F823203B685B6803F4803303
:102EAC00002B06D02D4B1A682C49BB6913430B60C1
:102EBC0006E02A4B1A68BB69DB43284913400B60B8
:102ECC003B685B6803F40033002B06D0234B5A6835
:102EDC002249BB6913434B6006E0204B5A68BB691F
:102EEC00DB431E4913404B603B685B6803F4801363
:102EFC00002B06D0194B9A681849BB6913438B6099
:102F0C0006E0164B9A68BB69DB43144913408B608F
:102F1C003B685B6803F40013002B21D00F4BDA687D
:102F2C000E49BB691343CB6021E000BF0000321097
:102F3C0000003110000022100000211000001210BF
:102F4C000000111000100240000001400008014078
:102F5C00000C01400010014000140140000401402D
:102F6C000B4BDA68BB69DB4309491340CB607B6AC6
:102F7C0001337B623B681A687B6A22FA03F3002BED
:102F8C007FF48EAE00BF00BF2C37BD4680BC7047AF
:102F9C000004014080B485B000AF78600B467B80A4
:102FAC007B689A687B881340002B02D00123FB734B
:102FBC0001E00023FB73FB7B18461437BD4680BC35
:102FCC00704780B483B000AF78600B467B801346AB
:102FDC007B707B78002B03D07A887B681A6103E0C6
:102FEC007B881A047B681A6100BF0C37BD4680BC15
:102FFC00704780B485B000AF78600B467B807B68EF
:10300C00DB68FB607A88FB6813401A04FB68D943C1
:10301C007B880B401A437B681A6100BF1437BD468E
:10302C0080BC704780B586B000AF78607B68002BA1
:10303C0001D101236CE27B681B6803F00103002BB8
:10304C0000F08780924B5B6803F00C03042B0CD0D0
:10305C008F4B5B6803F00C03082B12D18C4B5B6815
:10306C0003F48033B3F5803F0BD1894B1B6803F419
:10307C000033002B6CD07B685B68002B68D101237C
:10308C0046E27B685B68B3F5803F06D1804B1B68DA
:10309C007F4A43F4803313602EE07B685B68002B1F
:1030AC000CD17B4B1B687A4A23F480331360784B2A
:1030BC001B68774A23F4802313601DE07B685B68F0
:1030CC00B3F5A02F0CD1724B1B68714A43F48023CB
:1030DC0013606F4B1B686E4A43F4803313600BE034
:1030EC006B4B1B686A4A23F480331360684B1B6874
:1030FC00674A23F4802313607B685B68002B13D032
:10310C00FFF7ACFC386108E0FFF7A8FC02463B690E
:10311C00D31A642B01D90323FAE15D4B1B6803F42A
:10312C000033002BF0D014E0FFF798FC386108E076
:10313C00FFF794FC02463B69D31A642B01D9032395
:10314C00E6E1534B1B6803F40033002BF0D100E095
:10315C0000BF7B681B6803F00203002B63D04C4B51
:10316C005B6803F00C03002B0BD0494B5B6803F03E
:10317C000C03082B1CD1464B5B6803F48033002BEB
:10318C0016D1434B1B6803F00203002B05D07B6860
:10319C001B69012B01D00123BAE13D4B1B6823F0C5
:1031AC00F8027B685B69DB00394913430B603AE03A
:1031BC007B681B69002B20D0364B01221A60FFF76D
:1031CC004DFC386108E0FFF749FC02463B69D31A15
:1031DC00022B01D903239BE12D4B1B6803F0020347
:1031EC00002BF0D02A4B1B6823F0F8027B685B693C
:1031FC00DB00274913430B6015E0264B00221A60B5
:10320C00FFF72CFC386108E0FFF728FC02463B690D
:10321C00D31A022B01D903237AE11D4B1B6803F04F
:10322C000203002BF0D17B681B6803F00803002B12
:10323C003AD07B689B69002B19D0174B01221A607E
:10324C00FFF70CFC386108E0FFF708FC02463B690D
:10325C00D31A022B01D903235AE10D4B5B6A03F0FD
:10326C000203002BF0D0012000F0D8FA1CE00A4B2E
:10327C0000221A60FFF7F2FB38610FE0FFF7EEFB5C
:10328C0002463B69D31A022B08D9032340E100BF45
:10329C000010024000004242800442429E4B5B6A96
:1032AC0003F00203002BE9D17B681B6803F00403D5
:1032BC00002B00F0A6800023FB75974BDB6903F015
:1032CC008053002B0DD1944BDB69934A43F0805310
:1032DC00D361914BDB6903F08053BB60BB68012366
:1032EC00FB758E4B1B6803F48073002B18D18B4B32
:1032FC001B688A4A43F480731360FFF7AFFB386195
:10330C0008E0FFF7ABFB02463B69D31A642B01D9EB
:10331C000323FDE0814B1B6803F48073002BF0D07A
:10332C007B68DB68012B06D17B4B1B6A7A4A43F026
:10333C00010313622DE07B68DB68002B0CD1764B0C
:10334C001B6A754A23F001031362734B1B6A724AA2
:10335C0023F0040313621CE07B68DB68052B0CD1A3
:10336C006D4B1B6A6C4A43F0040313626A4B1B6A75
:10337C00694A43F0010313620BE0674B1B6A664A10
:10338C0023F001031362644B1B6A634A23F00403AA
:10339C0013627B68DB68002B15D0FFF75FFB38618D
:1033AC000AE0FFF75BFB02463B69D31A41F2883215
:1033BC00934201D90323ABE0574B1B6A03F0020382
:1033CC00002BEED014E0FFF749FB38610AE0FFF761
:1033DC0045FB02463B69D31A41F28832934201D92C
:1033EC00032395E04C4B1B6A03F00203002BEED138
:1033FC00FB7D012B05D1484BDB69474A23F08053F9
:10340C00D3617B68DB69002B00F08180424B5B68E9
:10341C0003F00C03082B61D07B68DB69022B46D1CF
:10342C003F4B00221A60FFF719FB386108E0FFF7E9
:10343C0015FB02463B69D31A022B01D9032367E023
:10344C00354B1B6803F00073002BF0D17B681B6AB3
:10345C00B3F5803F08D1304B5B6823F400327B68B6
:10346C009B682D4913434B602B4B5B6823F4741200
:10347C007B68196A7B685B6A0B43274913434B6073
:10348C00274B01221A60FFF7E9FA386108E0FFF7D1
:10349C00E5FA02463B69D31A022B01D9032337E024
:1034AC001D4B1B6803F00073002BF0D02FE01C4B5E
:1034BC0000221A60FFF7D2FA386108E0FFF7CEFA63
:1034CC0002463B69D31A022B01D9032320E0124B8D
:1034DC001B6803F00073002BF0D118E07B68DB69EC
:1034EC00012B01D1012313E00B4B5B68FB60FB68E4
:1034FC0003F480327B681B6A9A4206D1FB6803F4A2
:10350C0070127B685B6A9A4201D0012300E00023B1
:10351C0018461837BD4680BD0010024000700040B0
:10352C006000424280B584B000AF786039607B683F
:10353C00002B01D10123D0E06A4B1B6803F0070379
:10354C003A689A4210D9674B1B6823F00702654909
:10355C003B6813430B60634B1B6803F007033A682B
:10356C009A4201D00123B8E07B681B6803F0020388
:10357C00002B20D07B681B6803F00403002B05D0C4
:10358C00594B5B68584A43F4E06353607B681B6893
:10359C0003F00803002B05D0534B5B68524A43F4ED
:1035AC0060535360504B5B6823F0F0027B689B6860
:1035BC004D4913434B607B681B6803F00103002BE0
:1035CC0040D07B685B68012B07D1474B1B6803F429
:1035DC000033002B15D101237FE07B685B68022B45
:1035EC0007D1414B1B6803F00073002B09D1012359
:1035FC0073E03D4B1B6803F00203002B01D1012348
:10360C006BE0394B5B6823F003027B685B683649DF
:10361C0013434B60FFF722FAF8600AE0FFF71EFA3B
:10362C000246FB68D31A41F28832934201D9032334
:10363C0053E02D4B5B6803F00C027B685B689B00CE
:10364C009A42EBD1274B1B6803F007033A689A4266
:10365C0010D2244B1B6823F0070222493B6813430A
:10366C000B60204B1B6803F007033A689A4201D0A9
:10367C00012332E07B681B6803F00403002B08D0A5
:10368C00194B5B6823F4E0627B68DB6816491343D3
:10369C004B607B681B6803F00803002B09D0124BAE
:1036AC005B6823F460527B681B69DB000E49134393
:1036BC004B6000F021F802460B4B5B681B0903F0D2
:1036CC000F030A49CB5C22FA03F3094A1360094B36
:1036DC001B681846FFF780F9002318461037BD46C3
:1036EC0080BD00BF0020024000100240885400083A
:1036FC002C0100203001002090B48AB000AF2A4B7E
:10370C003C1D0FCB84E80F0040F201233B800023CB
:10371C00FB610023BB6100237B6200237B610023E0
:10372C003B62224B5B68FB61FB6903F00C03042BCF
:10373C0002D0082B03D02DE01D4B3B622DE0FB6922
:10374C009B0C03F00F0307F12802134413F8243CDD
:10375C007B61FB6903F48033002B13D0134B5B6844
:10376C005B0C03F0010307F12802134413F8283C07
:10377C00BB617B690E4A02FB03F2BB69B2FBF3F33C
:10378C007B6204E07B690B4A02FB03F37B627B6A7E
:10379C003B6202E0064B3B6200BF3B6A184628378F
:1037AC00BD4690BC704700BF785400080010024022
:1037BC0000127A0000093D0080B400AF024B1B6878
:1037CC001846BD4680BC70472C01002080B500AF68
:1037DC00FFF7F2FF0246054B5B681B0A03F0070379
:1037EC000349CB5C22FA03F3184680BD001002405B
:1037FC009854000880B500AFFFF7DEFF0246054B7A
:10380C005B68DB0A03F007030349CB5C22FA03F382
:10381C00184680BD001002409854000880B485B052
:10382C0000AF78600A4B1B680A4AA2FB03235B0AB1
:10383C007A6802FB03F3FB6000BFFB685A1EFA6058
:10384C00002BF9D100BF00BF1437BD4680BC7047B8
:10385C002C010020D34D621080B582B000AF78608F
:10386C007B68002B01D1012341E07B6893F83D304C
:10387C00DBB2002B06D17B68002283F83C207868F1
:10388C00FEF742FF7B68022283F83D207B681A68B2
:10389C007B6804331946104600F020FC7B6801223B
:1038AC0083F846207B68012283F83E207B68012246
:1038BC0083F83F207B68012283F840207B6801223B
:1038CC0083F841207B68012283F842207B68012227
:1038DC0083F843207B68012283F844207B68012213
:1038EC0083F845207B68012283F83D20002318468D
:1038FC000837BD4680BD000080B485B000AF78604D
:10390C007B6893F83D30DBB2012B01D001233AE008
:10391C007B68022283F83D207B681B68DA687B6831
:10392C001B6842F00102DA607B681B68184A9342FC
:10393C000ED07B681B68B3F1804F09D07B681B6885
:10394C00144A934204D07B681B68134A934211D1EA
:10395C007B681B689B6803F00703FB60FB68062B06
:10396C0010D07B681B681A687B681B6842F00102E8
:10397C001A6007E07B681B681A687B681B6842F05A
:10398C0001021A60002318461437BD4680BC7047EC
:10399C00002C0140000400400008004080B582B0BB
:1039AC0000AF78607B68002B01D1012341E07B687C
:1039BC0093F83D30DBB2002B06D17B68002283F8F4
:1039CC003C207868FEF7C4FE7B68022283F83D2019
:1039DC007B681A687B6804331946104600F07EFB3E
:1039EC007B68012283F846207B68012283F83E2005
:1039FC007B68012283F83F207B68012283F84020FA
:103A0C007B68012283F841207B68012283F84220E5
:103A1C007B68012283F843207B68012283F84420D1
:103A2C007B68012283F845207B68012283F83D20C6
:103A3C00002318460837BD4680BD000080B584B011
:103A4C0000AF786039603B68002B09D17B6893F834
:103A5C003E30DBB2012B14BF01230023DBB222E08A
:103A6C003B68042B09D17B6893F83F30DBB2012B08
:103A7C0014BF01230023DBB215E03B68082B09D1EE
:103A8C007B6893F84030DBB2012B14BF0123002379
:103A9C00DBB208E07B6893F84130DBB2012B14BF3A
:103AAC0001230023DBB2002B01D001235EE03B6835
:103ABC00002B04D17B68022283F83E2013E03B6884
:103ACC00042B04D17B68022283F83F200BE03B6877
:103ADC00082B04D17B68022283F8402003E07B682A
:103AEC00022283F841207B681B6801223968184642
:103AFC0000F074FD7B681B681E4A934207D17B68FB
:103B0C001B685A6C7B681B6842F400425A647B68E1
:103B1C001B68184A93420ED07B681B68B3F1804F28
:103B2C0009D07B681B68144A934204D07B681B68DD
:103B3C00124A934211D17B681B689B6803F0070300
:103B4C00FB60FB68062B10D07B681B681A687B68CF
:103B5C001B6842F001021A6007E07B681B681A6858
:103B6C007B681B6842F001021A600023184610376C
:103B7C00BD4680BD002C0140000400400008004000
:103B8C0080B582B000AF78607B681B681B6903F05E
:103B9C000203022B22D17B681B68DB6803F0020353
:103BAC00022B1BD17B681B686FF002021A617B68C9
:103BBC0001221A777B681B689B6903F00303002BB7
:103BCC0003D0786800F06FFA05E0786800F062FACC
:103BDC00786800F071FA7B6800221A777B681B68A2
:103BEC001B6903F00403042B22D17B681B68DB6880
:103BFC0003F00403042B1BD17B681B686FF00402D9
:103C0C001A617B6802221A777B681B689B6903F434
:103C1C004073002B03D0786800F045FA05E0786813
:103C2C0000F038FA786800F047FA7B6800221A77BF
:103C3C007B681B681B6903F00803082B22D17B6887
:103C4C001B68DB6803F00803082B1BD17B681B681F
:103C5C006FF008021A617B6804221A777B681B6874
:103C6C00DB6903F00303002B03D0786800F01BFA28
:103C7C0005E0786800F00EFA786800F01DFA7B68B1
:103C8C0000221A777B681B681B6903F01003102B4A
:103C9C0022D17B681B68DB6803F01003102B1BD14F
:103CAC007B681B686FF010021A617B6808221A7718
:103CBC007B681B68DB6903F44073002B03D07868C6
:103CCC0000F0F1F905E0786800F0E4F9786800F0AC
:103CDC00F3F97B6800221A777B681B681B6903F079
:103CEC000103012B0ED17B681B68DB6803F0010319
:103CFC00012B07D17B681B686FF001021A61786891
:103D0C00FEF7A6FA7B681B681B6903F08003802B07
:103D1C000ED17B681B68DB6803F08003802B07D116
:103D2C007B681B686FF080021A61786800F0E1FC18
:103D3C007B681B681B6903F04003402B0ED17B682A
:103D4C001B68DB6803F04003402B07D17B681B68C2
:103D5C006FF040021A61786800F0B7F97B681B6855
:103D6C001B6903F02003202B0ED17B681B68DB68DA
:103D7C0003F02003202B07D17B681B686FF0200217
:103D8C001A61786800F0ACFC00BF0837BD4680BDF6
:103D9C0080B584B000AFF860B9607A60FB6893F8C6
:103DAC003C30012B01D10223ACE0FB68012283F8EB
:103DBC003C207B680C2B00F29F8001A252F823F070
:103DCC00013E0008053F0008053F0008053F0008BC
:103DDC00413E0008053F0008053F0008053F00086C
:103DEC00833E0008053F0008053F0008053F00081A
:103DFC00C33E0008FB681B68B968184600F0D0F990
:103E0C00FB681B689A69FB681B6842F008029A61A0
:103E1C00FB681B689A69FB681B6822F004029A61B4
:103E2C00FB681B689969BB681A69FB681B680A43C5
:103E3C009A6162E0FB681B68B968184600F016FAD4
:103E4C00FB681B689A69FB681B6842F400629A6104
:103E5C00FB681B689A69FB681B6822F480629A6194
:103E6C00FB681B689969BB681B691A02FB681B68B5
:103E7C000A439A6141E0FB681B68B968184600F078
:103E8C005FFAFB681B68DA69FB681B6842F0080282
:103E9C00DA61FB681B68DA69FB681B6822F00402B4
:103EAC00DA61FB681B68D969BB681A69FB681B6817
:103EBC000A43DA6121E0FB681B68B968184600F018
:103ECC00A9FAFB681B68DA69FB681B6842F400629C
:103EDC00DA61FB681B68DA69FB681B6822F4806294
:103EEC00DA61FB681B68D969BB681B691A02FB683D
:103EFC001B680A43DA6100E000BFFB68002283F80C
:103F0C003C20002318461037BD4680BD80B584B0D8
:103F1C0000AF786039607B6893F83C30012B01D19D
:103F2C000223B3E07B68012283F83C207B680222E9
:103F3C0083F83D207B681B689B68FB60FB6823F063
:103F4C007703FB60FB6823F47F43FB607B681B6893
:103F5C00FA689A603B681B68B3F5005F3ED0B3F516
:103F6C00005F00F28780B3F5805F00F08580B3F5C9
:103F7C00805F7FD8702B1AD0702B7BD8602B50D0E1
:103F8C00602B77D8502B3CD0502B73D8402B58D06B
:103F9C00402B6FD8302B64D0302B6BD8202B60D0BB
:103FAC00202B67D8002B5CD0102B5AD062E07B689A
:103FBC0018683B6899683B685A683B68DB6800F096
:103FCC00EEFA7B681B689B68FB60FB6843F0770329
:103FDC00FB607B681B68FA689A604EE07B68186827
:103FEC003B6899683B685A683B68DB6800F0D7FA15
:103FFC007B681B689A687B681B6842F480429A60F5
:10400C003BE07B6818683B6859683B68DB681A467C
:10401C0000F04EFA7B681B685021184600F0A5FA98
:10402C002BE07B6818683B6859683B68DB681A466C
:10403C0000F06CFA7B681B686021184600F095FA5A
:10404C001BE07B6818683B6859683B68DB681A465C
:10405C0000F02EFA7B681B684021184600F085FAA8
:10406C000BE07B681A683B681B681946104600F029
:10407C007CFA02E000BF00E000BF7B68012283F8FD
:10408C003D207B68002283F83C2000231846103723
:10409C00BD4680BD80B483B000AF786000BF0C37E4
:1040AC00BD4680BC704780B483B000AF786000BF61
:1040BC000C37BD4680BC704780B483B000AF7860CD
:1040CC0000BF0C37BD4680BC704780B483B000AFD6
:1040DC00786000BF0C37BD4680BC704780B485B09B
:1040EC0000AF786039607B681B68FB607B68294A8D
:1040FC0093420BD07B68B3F1804F07D07B68264A84
:10410C00934203D07B68254A934208D1FB6823F085
:10411C007003FB603B685B68FA681343FB607B6869
:10412C001C4A93420BD07B68B3F1804F07D07B685D
:10413C00194A934203D07B68184A934208D1FB6812
:10414C0023F44073FB603B68DB68FA681343FB6045
:10415C00FB6823F080023B685B691343FB607B6860
:10416C00FA681A603B689A687B68DA623B681A687E
:10417C007B689A627B68074A934203D13B681A6951
:10418C007B681A637B6801225A6100BF1437BD46F5
:10419C0080BC7047002C0140000400400008004027
:1041AC0080B487B000AF786039607B681B6A23F0FD
:1041BC0001027B681A627B681B6A7B617B685B68A7
:1041CC003B617B689B69FB60FB6823F07003FB60C1
:1041DC00FB6823F00303FB603B681B68FA6813431E
:1041EC00FB607B6923F002037B613B689B687A6907
:1041FC0013437B617B681C4A93420CD17B6923F08F
:10420C0008037B613B68DB687A6913437B617B69DC
:10421C0023F004037B617B68134A934211D13B6901
:10422C0023F480733B613B6923F400733B613B686F
:10423C005B693A6913433B613B689B693A69134379
:10424C003B617B683A695A607B68FA689A613B68A3
:10425C005A687B685A637B687A691A6200BF1C379C
:10426C00BD4680BC704700BF002C014080B487B0B5
:10427C0000AF786039607B681B6A23F010027B68A2
:10428C001A627B681B6A7B617B685B683B617B683D
:10429C009B69FB60FB6823F4E043FB60FB6823F441
:1042AC004073FB603B681B681B02FA681343FB609E
:1042BC007B6923F020037B613B689B681B017A6957
:1042CC0013437B617B681D4A93420DD17B6923F0BC
:1042DC0080037B613B68DB681B017A6913437B615C
:1042EC007B6923F040037B617B68144A934213D1B2
:1042FC003B6923F480633B613B6923F400633B61BE
:10430C003B685B699B003A6913433B613B689B6963
:10431C009B003A6913433B617B683A695A607B683E
:10432C00FA689A613B685A687B689A637B687A6919
:10433C001A6200BF1C37BD4680BC7047002C014080
:10434C0080B487B000AF786039607B681B6A23F457
:10435C0080727B681A627B681B6A7B617B685B6816
:10436C003B617B68DB69FB60FB6823F07003FB60DF
:10437C00FB6823F00303FB603B681B68FA6813437C
:10438C00FB607B6923F400737B613B689B681B02B9
:10439C007A6913437B617B681D4A93420DD17B691B
:1043AC0023F400637B613B68DB681B027A6913436F
:1043BC007B617B6923F480637B617B68144A934245
:1043CC0013D13B6923F480533B613B6923F40053C5
:1043DC003B613B685B691B013A6913433B613B687A
:1043EC009B691B013A6913433B617B683A695A60CC
:1043FC007B68FA68DA613B685A687B68DA637B68C9
:10440C007A691A6200BF1C37BD4680BC704700BF7A
:10441C00002C014080B487B000AF786039607B68B5
:10442C001B6A23F480527B681A627B681B6A3B61AF
:10443C007B685B687B617B68DB69FB60FB6823F4F2
:10444C00E043FB60FB6823F44073FB603B681B6834
:10445C001B02FA681343FB603B6923F400533B6176
:10446C003B689B681B033A6913433B617B680F4AAB
:10447C00934209D17B6923F480437B613B685B6980
:10448C009B017A6913437B617B687A695A607B680C
:10449C00FA68DA613B685A687B681A647B683A6927
:1044AC001A6200BF1C37BD4680BC7047002C01400F
:1044BC0080B487B000AFF860B9607A60FB681B6AA3
:1044CC007B61FB681B6A23F00102FB681A62FB68C4
:1044DC009B693B613B6923F0F0033B617B681B01EB
:1044EC003A6913433B617B6923F00A037B617A6968
:1044FC00BB6813437B61FB683A699A61FB687A6914
:10450C001A6200BF1C37BD4680BC704780B487B0B0
:10451C0000AFF860B9607A60FB681B6A23F0100288
:10452C00FB681A62FB689B697B61FB681B6A3B61D9
:10453C007B6923F470437B617B681B037A691343AB
:10454C007B613B6923F0A0033B61BB681B013A69AB
:10455C0013433B61FB687A699A61FB683A691A629A
:10456C0000BF1C37BD4680BC704780B485B000AF1F
:10457C00786039607B689B68FB60FB6823F0700394
:10458C00FB603A68FB68134343F00703FB607B68EE
:10459C00FA689A6000BF1437BD4680BC704780B47F
:1045AC0087B000AFF860B9607A603B60FB689B68CD
:1045BC007B617B6923F47F437B613B681A027B68D8
:1045CC001A43BB6813437A6913437B61FB687A69AE
:1045DC009A6000BF1C37BD4680BC704780B487B062
:1045EC0000AFF860B9607A60BB6803F01F0301226A
:1045FC0002FA03F37B61FB681A6A7B69DB431A409E
:10460C00FB681A62FB681A6ABB6803F01F037968BF
:10461C0001FA03F31A43FB681A6200BF1C37BD464C
:10462C0080BC704780B485B000AF786039607B681F
:10463C0093F83C30012B01D1022346E07B68012228
:10464C0083F83C207B68022283F83D207B681B6842
:10465C005B68FB607B681B689B68BB60FB6823F036
:10466C007003FB603B681B68FA681343FB607B6854
:10467C001B68FA685A607B681B68164A93420ED016
:10468C007B681B68B3F1804F09D07B681B68124AAA
:10469C00934204D07B681B68104A93420CD1BB68D0
:1046AC0023F08003BB603B685B68BA681343BB6054
:1046BC007B681B68BA689A607B68012283F83D208E
:1046CC007B68002283F83C20002318461437BD4633
:1046DC0080BC7047002C01400004004000080040E2
:1046EC0080B483B000AF786000BF0C37BD4680BC8F
:1046FC00704780B483B000AF786000BF0C37BD4604
:10470C0080BC704780B582B000AF78607B68002BAE
:10471C0001D101233FE07B6893F83D30DBB2002BE5
:10472C0006D17B68002283F83C207868FEF760F89D
:10473C007B68242283F83D207B681B68DA687B68E1
:10474C001B6822F40052DA60786800F005F97B6887
:10475C001B681A697B681B6822F490421A617B689B
:10476C001B685A697B681B6822F02A025A617B68B5
:10477C001B68DA687B681B6842F40052DA607B685D
:10478C0000221A647B68202283F83D207B6820225B
:10479C0083F83E20002318460837BD4680BD80B5FF
:1047AC008AB002AFF860B9603B601346FB8000230F
:1047BC007B61FB6893F83D30DBB2202B7CD1BB686E
:1047CC00002B02D0FB88002B01D1012375E0FB6884
:1047DC0093F83C30012B01D102236EE0FB680122DF
:1047EC0083F83C20FB6800221A64FB68212283F8C2
:1047FC003D20FEF733F97861FB68FA889A84FB68F0
:10480C00FA88DA84FB689B68B3F5805F08D1FB6893
:10481C001B69002B04D10023FB61BB68BB6103E067
:10482C00BB68FB610023BB61FB68002283F83C2062
:10483C002AE03B6800937B6900228021F86800F035
:10484C0040F80346002B01D0032336E0FB69002B14
:10485C000BD1BB691B881A46FB681B68C2F30802A4
:10486C005A60BB690233BB6107E0FB691A78FB68CD
:10487C001B685A60FB690133FB61FB68DB8C9BB2E4
:10488C00013B9AB2FB68DA84FB68DB8C9BB2002B91
:10489C00CFD13B6800937B6900224021F86800F07F
:1048AC0010F80346002B01D0032306E0FB682022FE
:1048BC0083F83D20002300E0022318462037BD4634
:1048CC0080BD80B584B000AFF860B9603B60134622
:1048DC00FB712CE0BB69B3F1FF3F28D0BB69002B07
:1048EC0007D0FEF7BBF802463B68D31ABA699A4266
:1048FC001DD2FB681B68DA68FB681B6822F4D07257
:10490C00DA60FB681B685A69FB681B6822F00102BD
:10491C005A61FB68202283F83D20FB68202283F833
:10492C003E20FB68002283F83C2003230FE0FB6849
:10493C001B681A68BB681340BA689A420CBF012303
:10494C000023DBB21A46FB799A42C3D000231846E7
:10495C001037BD4680BD000080B584B000AF7860D4
:10496C007B681B681B6923F440517B68DA687B68A1
:10497C001B680A431A617B689A687B681B691A4337
:10498C007B685B691343BB607B681B68DB6823F443
:10499C00B05323F00C037A681268B9680B43D360E8
:1049AC007B681B685B6923F440717B689A697B6840
:1049BC001B680A435A617B681B682C4A934203D1DB
:1049CC00FEF718FFF86002E0FEF700FFF860FA68E7
:1049DC0013469B0013449A001A447B685B689B0047
:1049EC00B2FBF3F3224AA2FB03235B091901FA6819
:1049FC0013469B0013449A001A447B685B689B0027
:104A0C00B2FBF3F21A4BA3FB02035B09642000FB1D
:104A1C0003F3D31A1B013233154AA2FB03235B09A0
:104A2C0003F0F0031944FA6813469B0013449A00F0
:104A3C001A447B685B689B00B2FBF3F20C4BA3FB44
:104A4C0002035B09642000FB03F3D31A1B0132330E
:104A5C00074AA2FB03235B0903F00F027B681B6868
:104A6C000A449A6000BF1037BD4680BD0038014033
:104A7C001F85EB51014B1868704700BF38010020AF
:104A8C0070B500260C4D0D4C641BA410A64209D128
:104A9C0000F05CFC00260A4D0A4C641BA410A642D4
:104AAC0005D170BD55F8043B98470136EEE755F833
:104ABC00043B98470136F2E7D4540008D45400085C
:104ACC00D4540008D854000803460244934200D141
:104ADC00704703F8011BF9E70EB46FF0004100B505
:104AEC009CB01DAB029006900791049108480949AF
:104AFC0053F8042B0591006802A9019300F068F8A3
:104B0C000022029B1A701CB05DF804EB03B07047D6
:104B1C00380100200802FFFF2DE9F0478E6882461D
:104B2C009E420C4690461F4638D88A8912F4906FE4
:104B3C0032D0256809690133A5EB010965694B443D
:104B4C0005EB450505EBD5756D109D4238BF1D462F
:104B5C00530531D5294600F053FB064650B90C23BA
:104B6C004FF0FF30CAF80030A38943F04003A38113
:104B7C00BDE8F0874A46216900F0CEFAA38923F4F8
:104B8C00906343F08003A38126614E4426603E4629
:104B9C006561A5EB0905A560BE4200D93E463246CB
:104BAC004146206800F0C6FAA36822689B1B324479
:104BBC000020A3602260DBE72A4600F07BFB064660
:104BCC000028E1D15046216900F0CEFAC7E7000079
:104BDC002DE9F04F98468B8907461B060D46144667
:104BEC009DB00ED50B6963B9402100F009FB28601C
:104BFC00286120B90C233B604FF0FF30D1E04023FB
:104C0C006B610023099320238DF8293030234FF05A
:104C1C000109CDF80C80DFF8A4818DF82A302346E9
:104C2C009A4613F8012B0AB1252AF9D1BAEB040BD9
:104C3C000BD05B46224629463846FFF76DFF013004
:104C4C0000F0AA80099A5A4409929AF80030002B75
:104C5C0000F0A28000234FF0FF32CDE905230AF1CA
:104C6C00010A049307938DF853301A935446052286
:104C7C0014F8011B514800F041FA049AD8B9D00637
:104C8C0044BF20238DF85330110744BF2B238DF8DC
:104C9C0053309AF800302A2B15D0544600204FF090
:104CAC000A0C079A214611F8013B303B092B4ED9CF
:104CBC00B0B1079214E0A0EB080309FA03F3134315
:104CCC00A2460493D2E7039B191D1B680391002B8A
:104CDC00BBBF5B4242F0020207930793B8BF04923A
:104CEC0023782E2B0CD163782A2B35D1039B0234DD
:104CFC001A1D1B680392002BB8BF4FF0FF330593AE
:104D0C00DFF8C8A003225046217800F0F7F940B133
:104D1C004023A0EB0A0003FA00F0049B0134034388
:104D2C00049314F8011B062225488DF8281000F076
:104D3C00E5F9002838D0234B1BBB039B073323F02A
:104D4C00070308330393099B3344099367E70C4625
:104D5C0001200CFB0232A5E700234FF00A0C194688
:104D6C0001340593204610F8012B303A092A03D957
:104D7C00002BC5D00591C3E7044601230CFB012190
:104D8C00F0E703AB00932A4638460F4B04A9AFF368
:104D9C000080421C0646D6D1AB895B063FF52CAF92
:104DAC0009981DB0BDE8F08F03AB00932A46384636
:104DBC00054B04A900F07CF8EBE700BFA0540008F9
:104DCC00AA54000800000000254B0008A654000857
:104DDC002DE9F047164699468A680B6907469342B7
:104DEC00B8BF1346336091F843200C46DDF82080A1
:104DFC000AB1013333602368990642BF336802332A
:104E0C003360256815F0060506D104F1190AE3682C
:104E1C0032689B1AAB4228DC94F84320131E22689C
:104E2C0018BF012392062DD44946384604F143029B
:104E3C00C047013020D02368E56803F00603042B3B
:104E4C0018BF002532684FF00006A36808BFAD1AE2
:104E5C00226908BF25EAE5759342C4BF9B1AED1879
:104E6C001A34B5421AD1002008E0012352464946B3
:104E7C003846C047013003D14FF0FF30BDE8F08712
:104E8C000135C4E73020E11881F843005A1C94F82E
:104E9C0045102244023382F84310C5E70123224611
:104EAC0049463846C0470130E6D00136D9E7000004
:104EBC002DE9FF470C46277E9146782F80469A466F
:104ECC000C9904F1430207D8622F0AD8002F00F086
:104EDC00D980582F00F0A48004F1420684F8427067
:104EEC003AE0A7F16303152BF6D801A050F823F094
:104EFC00554F0008694F0008E54E0008E54E0008C4
:104F0C00E54E0008E54E0008694F0008E54E000824
:104F1C00E54E0008E54E0008E54E00087750000805
:104F2C00994F000859500008E54E0008E54E00085E
:104F3C0099500008E54E0008994F0008E54E00080E
:104F4C00E54E0008615000080B6804F142061A1D7A
:104F5C001B680A6084F842300123A4E025680868C5
:104F6C002E0600F104030AD505680B60002D03DA48
:104F7C002D236D4284F843300A235E4819E015F066
:104F8C00400F05680B6018BF2DB2EFE70B68256862
:104F9C00181D0860280601D51D6802E06906FBD5BE
:104FAC001D886F2F0CBF08230A235248002184F858
:104FBC0043106668002EA8BF2168A660A4BF21F02C
:104FCC00040121600DB9002E4DD01646B5FBF3F14E
:104FDC0003FB1157C75D06F8017D2F46BB420D46FA
:104FEC00F4D9082B0BD12368DF0708D52369616836
:104FFC009942DEBF302306F8013C06F1FF36921BC6
:10500C0022614B4621464046CDF800A003AAFFF78B
:10501C00DFFE01304CD14FF0FF3004B0BDE8F0871B
:10502C00344884F845700E68236856F8045B1F06F4
:10503C000E6014D5D90744BF43F0200323601DB97B
:10504C00236823F0200323601023AFE7236843F089
:10505C00200323607823284884F84530E3E75E0674
:10506C0048BFADB2E6E71646BBE70B6826681D1DC8
:10507C0060690D6035061B6801D5186002E0710689
:10508C00FBD51880002316462361BAE70B681A1D5E
:10509C000A601E6800213046626800F02FF808B1E3
:1050AC00801B606063682361002384F84330A8E7A9
:1050BC003246494640462369D0470130ABD023687D
:1050CC009B0713D4E068039B9842B8BF1846A4E72B
:1050DC000123324649464046D04701309BD001352A
:1050EC00E36803995B1AAB42F2DCEBE7002504F1B1
:1050FC001906F5E7B1540008C2540008034610B570
:10510C00C9B202449342184601D1002003E004784E
:10511C0001338C42F6D110BD0A44914200F1FF33A9
:10512C0000D1704710B511F8014B914203F8014FB3
:10513C00F9D110BD884210B501EB020402D98442AA
:10514C00234607D8431EA14208D011F8012B03F8BF
:10515C00012FF8E7014602448A4200D110BD13F832
:10516C00014D02F8014DF7E738B50546002943D04B
:10517C0051F8043C0C1F002BB8BFE41800F0D0F819
:10518C001E4A1368104633B9636014602846BDE8A4
:10519C00384000F0CBB8A3420AD921686218934278
:1051AC0001BF1A685B685218226063600460EDE707
:1051BC001A465B680BB1A342FAD911685018A04289
:1051CC000BD120680144501883421160DED118685D
:1051DC005B68014411605360D8E702D90C232B6043
:1051EC00D4E7206821188B4201BF19685B68091845
:1051FC00216063605460C9E738BD00BFE401002042
:10520C00F8B5CD1C25F0030508350C2D38BF0C2541
:10521C00002D064601DBA94203D90C233360002084
:10522C00F8BD00F07DF821490A6814469CB9204F5E
:10523C003B6823B92146304600F062F838602946B5
:10524C00304600F05DF8431C23D10C23304633600C
:10525C0000F06CF8E3E723685B1B17D40B2B03D926
:10526C0023601C44256004E06368A2420CBF0B6001
:10527C005360304600F05AF804F10B00231D20F067
:10528C000700C21ACCD01B1AA350C9E72246646887
:10529C00CCE7C41C24F00304A042E3D0211A30460E
:1052AC0000F02EF80130DDD1CFE700BFE401002083
:1052BC00E8010020F8B5074614460E4621B9114600
:1052CC00BDE8F840FFF79CBF22B9FFF74DFF25461C
:1052DC002846F8BD00F030F8A0420FD221463846DF
:1052EC00FFF78EFF05460028F2D031462246FFF725
:1052FC0013FF31463846FFF737FFE9E73546E7E756
:10530C0038B50023054D044608462B60FDF7ECFA32
:10531C00431C02D12B6803B1236038BDA4030020C9
:10532C00014800F011B800BFAC030020014800F0A8
:10533C000CB800BFAC03002051F8043C181F002B24
:10534C00BCBF0B58C018704770477047F8B500BF0A
:10535C00F8BC08BC9E467047F8B500BFF8BC08BC4A
:04536C009E467047A2
:10537000214155544F4D41544943230D0A0000002B
:10538000214D414E55414C230D0A00002137534514
:10539000473A25642564230D0A0000002143484153
:1053A0004E4745230D0A000021375345473A2564EF
:1053B0002564235245440D0A00000000213753455F
:1053C000473A256425642359454C0D0A0000000026
:1053D00021375345473A534554235245440D0A005B
:1053E00021375345473A25642564234752450D0A22
:1053F0000000000021375345473A5245445F535956
:105400004E435F4F564552464C4F570D0A00000021
:1054100021375345473A5345542359454C0D0A000B
:1054200021375345473A534554234752450D0A0007
:1054300021375345473A53594E430D0A00000000A7
:1054400021375345473A25642564234E4557524535
:10545000440D0A0021375345473A25642564234EFD
:10546000455759454C0D0A00214155544F4D415463
:105470004943230D0A00000002030405060708093A
:105480000A0B0C0D0E0F10100000000000000000B1
:1054900001020304060708090000000001020304DA
:1054A000232D302B2000686C4C006566674546470D
:1054B0000030313233343536373839414243444590
:1054C00046003031323334353637383961626364FF
:0454D000656600000D
:0454D400310100089A
:0454D8000D010008BA
:1054DC0088130000D0070000B80B0000E4020000A5
:1054EC00E4020000000000004B0200004B02000030
:1054FC00000000004B02000093020000BA02000002
:10550C0000000000930200004B0200002A02000081
:10551C004B02000093020000E4020000E4020000D1
:10552C0000000000DC030000DC03000000000000B1
:10553C00EE0100002A0200004B02000000000000F7
:10554C00930200004B0200002A0200000000000041
:10555C007003000010030000E4020000E4020000ED
:10556C00000000004B0200004B0200000000000095
:10557C004B02000093020000BA0200000000000081
:10558C00930200004B0200002A0200004B020000B4
:10559C0093020000E4020000E4020000000000009E
:1055AC00DC030000DC03000000000000DC03000052
:1055BC0055040000970400000000000010030000D8
:1055CC00E4020000BA02000097040000A4030000EB
:1055DC00DC030000DC030000000000000000000001
:1055EC0000000000000000000000000000000000AF
:1055FC000000000000000000000000000024F40087
:10560C0010000000010000003C0100200000000020
:10561C00000000000000000000000000000000007E
:10562C00000000000000000000000000000000006E
:10563C00000000000000000000000000000000005E
:10564C00000000000000000000000000000000004E
:10565C00000000000000000000000000000000003E
:0C566C0000000000000000000000000032
:040000050800296D59
:00000001FF
