:020000040800F2
:1000000000500020E5270008092700080F270008F6
:10001000152700081B270008212700080000000002
:10002000000000000000000000000000272700087A
:1000300033270008000000003F2700084B27000876
:100040002D2800082D2800082D2800082D2800083C
:100050002D2800082D2800082D2800082D2800082C
:100060002D2800082D2800082D2800082D2800081C
:100070002D2800082D2800082D2800082D2800080C
:100080002D2800082D2800082D2800082D280008FC
:100090002D2800082D2800082D2800082D280008EC
:1000A0002D2800082D2800082D2800082D280008DC
:1000B000592700082D2800082D2800082D280008A1
:1000C0002D2800082D2800082D2800082D280008BC
:1000D0002D2800082D2800082D2800082D280008AC
:1000E0002D2800082D2800082D28000800000000F9
:1000F0000000000000000000000000000000000000
:0C01000000000000000000005FF808F1A3
:10010C0010B5054C237833B9044B13B10448AFF345
:10011C0000800123237010BD7C0000200000000033
:10012C00D051000808B5034B1BB103490348AFF38A
:10013C00008008BD0000000080000020D0510008A5
:10014C0080B582B000AF00237B60D0E06C4A7B6846
:10015C00134419786B4A7B6813440A461A706A4A2E
:10016C007B6813441978664A7B6813440A461A70F4
:10017C007B68002B0BD10221644802F047FE03463A
:10018C001946614A7B6813440A461A702BE07B6857
:10019C00012B0BD110215D4802F038FE03461946A5
:1001AC00594A7B6813440A461A701CE07B68022B80
:1001BC000BD10121564802F029FE03461946524A3A
:1001CC007B6813440A461A700DE07B68032B0AD136
:1001DC0001214E4802F01AFE034619464A4A7B6832
:1001EC0013440A461A70484A7B6813441A784449E7
:1001FC007B680B441B789A4223D1434A7B68134497
:10020C001A7840497B680B441B789A4219D1414AB1
:10021C007B6813441B78012B0AD13B4A7B6813443F
:10022C001B78002B04D13C4A7B68012142F8231037
:10023C00354A7B6813441978364A7B6813440A465E
:10024C001A70344A7B6813441B78002B17D1334A3D
:10025C007B6832F81330B3F5967F0AD22F4A7B684D
:10026C0032F81330013399B22C4A7B6822F8131000
:10027C003AE02B4A7B68134401221A7034E0254A79
:10028C007B6813441B78012B1AD1254A7B681344D5
:10029C001B78012B14D1234A7B68012142F82310CF
:1002AC001D4A7B68002142F823101C4A7B68002100
:1002BC0022F813101A4A7B68134400221A7013E0B8
:1002CC00184A7B68002142F82310134A7B680021EE
:1002DC0042F82310114A7B68002122F81310104AAF
:1002EC007B68134400221A707B6801337B607B6847
:1002FC00032B7FF72BAF00BF00BF0837BD4680BD77
:10030C00A0000020A40000209C0000200008014058
:10031C00000C014098000020DC000020AC00002004
:10032C00A8000020CC00002080B483B000AF78601F
:10033C00094A7B6852F82330012B06D1064A7B68A8
:10034C00002142F82310012300E0002318460C374B
:10035C00BD4680BC704700BFDC00002080B483B079
:10036C0000AF7860094A7B6852F82330012B06D124
:10037C00064A7B68002142F82310012300E0002389
:10038C0018460C37BD4680BC704700BFCC0000201F
:10039C0080B483B000AF0346FB71FB79032B01D90A
:1003AC00002307E0FB79064AD35C002B0CBF01232A
:1003BC000023DBB218460C37BD4680BC704700BF2B
:1003CC009800002080B483B000AF0346FB71FB792A
:1003DC00032B01D9FF2307E0FB79064AD35C012BE1
:1003EC000CBF01230023DBB218460C37BD4680BC82
:1003FC00704700BFA800002080B588B000AF7B4BD1
:10040C001B78042B00F2408301A252F823F000BFAA
:10041C00310400088B040008450600088307000817
:10042C0045090008714B01221A7001F03FFC704B1A
:10043C001B68704A82FB03129211DB17D31A6E4AA7
:10044C0013606E4B1B686B4A82FB03129211DB1715
:10045C00D31A6B4A13604FF47A7001F051FF694B59
:10046C0000221A606849694804F072FA03469AB28D
:10047C004FF47A736549664804F0CDF80DE3032117
:10048C00012001F0A7FB634B1B68012B02D1042058
:10049C0001F02AFC5F4B1B68002B02D1062001F0F7
:1004AC0023FC5D4B1B68012B0ED1504B0D221A7097
:1004BC005A49564804F04CFA03469AB24FF47A73F0
:1004CC005249534804F0A7F80020FFF72DFF0346CC
:1004DC00002B14D051494D4804F03AFA03469AB215
:1004EC004FF47A7349494A4804F095F83F4B0D2272
:1004FC001A70494B01221A60494B00221A600020E5
:10050C00FFF760FF0346002B0AD001F0CFFB374BFF
:10051C0005221A70434B01221A60FA2001F0D4FE16
:10052C000320FFF701FF0346002B02D0394B0122B9
:10053C001A603D4B1B68012B40F0A8822E4B1B68A8
:10054C003A4A82FB03129210DB17D31A7B602A4BB8
:10055C001A68364B83FB02139910D317C91A0B4632
:10056C009B000B445B00D31A3B603B687A683049B4
:10057C00264804F0EDF903469AB24FF47A732349F6
:10058C00234804F048F81C4B1B68013B1A4A1360C3
:10059C001B4B1B68013B1A4A1360194B1B68002B41
:1005AC001FD1244B1B68134A82FB03129211DB17D9
:1005BC00D31A134A13600D4B02221A70154B1B6889
:1005CC00012B0ED10F4B1B6801330E4A13600D4BE0
:1005DC001B68082B05D10B4B00221A600D4B002217
:1005EC001A604FF47A7001F08BFE4FE2400100204C
:1005FC0000000020D34D62103001002008000020C4
:10060C003801002060010020E8510008EC000020B7
:10061C00F40100203401002020010020F8510008D2
:10062C0044010020480100204002002067666666F5
:10063C0004520008040000200221012001F0CAFA33
:10064C00AB4B1B68012B02D1042001F04DFBA84BD6
:10065C001B68002B02D1062001F046FB0020FFF79F
:10066C0063FE0346002B05D0A24B01221A60A24B5D
:10067C0000221A600320FFF757FE0346002B02D01E
:10068C009B4B01221A600020FFF79CFE0346002BB7
:10069C000AD001F00BFB994B05221A70984B0122E2
:1006AC001A60FA2001F010FE964B1B68012B40F0EB
:1006BC00EF81954B1B68954A82FB03129210DB1756
:1006CC00D31AFB60904B1A68904B83FB0213991062
:1006DC00D317C91A0B469B000B445B00D31ABB60A3
:1006EC00BB68FA688A498B4804F032F903469AB21F
:1006FC004FF47A738749884803F08DFF824B1B684F
:10070C00013B814A1360854B1B68013B834A136094
:10071C00824B1B68002B29DC814B1B68814A82FBB6
:10072C0003129211DB17D31A774A13607E4B1B68A6
:10073C007C4A82FB03129211DB17D31A774A13609F
:10074C006E4B03221A706A4B1B68012B0ED1774B30
:10075C001B680133754A1360744B1B68082B05D159
:10076C00724B00221A60624B00221A604FF47A70AE
:10077C0001F0C6FD8CE10121032001F02BFA5C4B4A
:10078C001B68012B02D1052001F0AEFA584B1B68F7
:10079C00002B02D1062001F0A7FA564B1B68012B47
:1007AC000ED1564B0F221A7061495A4804F0D0F8FA
:1007BC0003469AB24FF47A735649574803F02BFF0D
:1007CC000020FFF7B1FD0346002B1AD00020FFF7E5
:1007DC00C5FD0346002B14D1484B0F221A70544907
:1007EC004C4804F0B5F803469AB24FF47A73494971
:1007FC00494803F010FF3F4B01221A603E4B002288
:10080C001A600020FFF7DEFD0346002B0AD001F032
:10081C004DFA3A4B05221A70394B01221A60FA2014
:10082C0001F052FD0320FFF77FFD0346002B02D0A1
:10083C002F4B01221A60334B1B68012B40F02A818D
:10084C00314B1B68314A82FB03129210DB17D31A0F
:10085C007B612D4B1A682D4B83FB02139910D31718
:10086C00C91A0B469B000B445B00D31A3B613B69D6
:10087C007A692749274804F06BF803469AB24FF47B
:10088C007A732449244803F0C6FE1F4B1B68013BB6
:10089C001D4A1360214B1B68013B204A13601A4B05
:1008AC001B68002B1FDC234B1B681E4A82FB0312A8
:1008BC009211DB17D31A144A1360104B04221A70CE
:1008CC000B4B1B68012B0ED1184B1B680133174ABD
:1008DC001360164B1B68082B05D1144B00221A60B1
:1008EC00034B00221A604FF47A7001F009FDD1E03D
:1008FC003401002020010020440100204001002090
:10090C004801002040020020300100206766666626
:10091C0004520008EC000020F401002038010020F3
:10092C0008000020D34D6210000000206001002060
:10093C00F8510008040000200121022001F04AF9BE
:10094C00584B1B68012B02D1052001F0CDF9554BFA
:10095C001B68002B02D1062001F0C6F90020FFF71E
:10096C00E3FC0346002B05D04F4B01221A604F4B82
:10097C0000221A600020FFF725FD0346002B0AD049
:10098C0001F094F94A4B05221A704A4B01221A6065
:10099C00FA2001F099FC0320FFF7C6FC0346002B5C
:1009AC0002D0404B01221A603E4B1B68012B02D136
:1009BC00414B01221A60414B1B68012B6CD1404BFF
:1009CC001B68404A82FB03129210DB17D31AFB619F
:1009DC003B4B1A683B4B83FB02139910D317C91A74
:1009EC000B469B000B445B00D31ABB61BB69FA69D5
:1009FC003549364803F0ACFF03469AB24FF47A738C
:100A0C003249334803F007FE2D4B1B68013B2C4A3F
:100A1C001360304B1B68013B2E4A1360284B1B683C
:100A2C00002B2CDC2C4B1B682C4A82FB03129211E2
:100A3C00DB17D31A224A1360294B1B68274A82FB07
:100A4C0003129211DB17D31A224A1360184B01229E
:100A5C001A70194B00221A60124B1B68012B0ED115
:100A6C00204B1B6801331F4A13601E4B1B68082B5D
:100A7C0005D11C4B00221A600A4B00221A604FF45D
:100A8C007A7001F03DFC07E000BF06E000BF04E017
:100A9C0000BF02E000BF00E000BF00BF2037BD4632
:100AAC0080BD00BF34010020200100204401002043
:100ABC004001002048010020B4000020400200202A
:100ACC00300100206766666604520008EC000020C6
:100ADC00F40100203801002000000020D34D6210EA
:100AEC00080000206001002080B5A0B000AFB64B1C
:100AFC001B78053B062B00F26D8601A252F823F001
:100B0C00290B0008810B00088F0C0008210E00082F
:100B1C00630F00087111000869130008AB4B012228
:100B2C001A60AB4B00221A60AA4B00221A60AA4B27
:100B3C0001221A60A44B06221A70A84B1B68A84A03
:100B4C0082FB03129211DB17D31AA64A1360A64933
:100B5C00A64803F0FDFE03469AB24FF47A73A349FC
:100B6C00A34803F058FD01F0A1F8FA2001F0ACFB0A
:100B7C0000F03DBE954B01221A60954B00221A6085
:100B8C00944B00221A600020FFF7CEFB0346002B8B
:100B9C000ED0984B1B68924A82FB03129211DB1702
:100BAC00D31A904A136001F081F8874B07221A7010
:100BBC000120FFF7B9FB0346002B02D0824B092220
:100BCC001A700120FFF7E4FB0346002B3DD00120F7
:100BDC00FFF7F8FB0346002B37D07B4B0A221A7029
:100BEC00804B1B680A337F4A13607E4B1B68824A1A
:100BFC0082FB03129210DB17D31A7B60794B1A68B5
:100C0C007D4B83FB02139910D317C91A0B469B001B
:100C1C000B445B00D31A3B603B687A687749734896
:100C2C0003F096FE03469AB24FF47A736F497048FC
:100C3C0003F0F1FC6B4B1B68632B02DD694B00224C
:100C4C001A604FF47A7001F023FB0220FFF76CFB63
:100C5C000346002B00F0C0855B4B0B221A706849D1
:100C6C00624803F075FE03469AB24FF47A735F49FB
:100C7C005F4803F0D0FC40F6B83001F0EDFA00F01C
:100C8C00ABBD524B00221A60514B01221A60514BE2
:100C9C0000221A600020FFF747FB0346002B0ED002
:100CAC00584B1B684E4A82FB03129211DB17D31A66
:100CBC004C4A136000F0FAFF434B08221A700120D3
:100CCC00FFF732FB0346002B02D03F4B09221A7070
:100CDC000120FFF75DFB0346002B59D00120FFF7E5
:100CEC0071FB0346002B53D0374B0A221A703D4B35
:100CFC001B680A333B4A13603A4B1B683E4A82FB23
:100D0C0003129210DB17D31AFB60364B1A683A4B5E
:100D1C0083FB02139910D317C91A0B469B000B4483
:100D2C005B00D31ABB60BB68FA6837492F4803F0E5
:100D3C000FFE03469AB24FF47A732C492C4803F0F9
:100D4C006AFC284B1B68632B02DD264B00221A60C1
:100D5C002C4B1B68224A82FB03129211DB17D21A0E
:100D6C00204B1B681344632B0EDD28491F4803F0EE
:100D7C00EFFD03469AB24FF47A731C491C4803F0FA
:100D8C004AFC184B00221A604FF47A7001F080FA7A
:100D9C000220FFF7C9FA0346002B00F01F850A4B0F
:100DAC000B221A701A49114803F0D2FD03469AB26D
:100DBC004FF47A730D490E4803F02DFC40F6B83011
:100DCC0001F04AFA00F00ABD400100202C0100207D
:100DDC00280100204C0100204801002000000020C8
:100DEC00D34D62103C01002014520008EC0000208E
:100DFC00F40100200400002067666666205200089B
:100E0C0034520008080000204452000858520008D0
:100E1C0074520008974B00221A60974B00221A60FC
:100E2C00964B01221A600020FFF77EFA0346002B36
:100E3C000CD0934B1B68934A82FB03129211DB1765
:100E4C00D31A914A1360914B06221A700120FFF7B6
:100E5C006BFA0346002B02D08C4B09221A7001202E
:100E6C00FFF796FA0346002B59D00120FFF7AAFA98
:100E7C000346002B53D0854B0A221A70824B1B68F9
:100E8C000A33814A1360804B1B68814A82FB031230
:100E9C009210DB17D31A7B617B4B1A687C4B83FB5C
:100EAC0002139910D317C91A0B469B000B445B0015
:100EBC00D31A3B613B697A697649774803F048FD60
:100ECC0003469AB24FF47A737349744803F0A3FB48
:100EDC006D4B1B68632B02DD6B4B00221A60704B51
:100EEC001B68684A82FB03129211DB17D21A664BFD
:100EFC001B681344632B0EDD6A49674803F028FD19
:100F0C0003469AB24FF47A736349644803F083FB47
:100F1C005D4B00221A604FF47A7001F0B9F902208F
:100F2C00FFF702FA0346002B00F05A84574B0B22B2
:100F3C001A705D49584803F00BFD03469AB24FF402
:100F4C007A735549554803F066FB40F6B83001F00A
:100F5C0083F900F045BC474B1B68012B35D14A4B3C
:100F6C001B680133484A1360474B1B68484A82FB95
:100F7C0003129210DB17D31AFB61434B1A68444BD4
:100F8C0083FB02139910D317C91A0B469B000B4411
:100F9C005B00D31ABB61BB69FA6944493E4803F054
:100FAC00D7FC03469AB24FF47A733B493B4803F0A3
:100FBC0032FB354B1B68632B02DD334B00221A606E
:100FCC00324B06221A7000F00DBC2B4B1B68012B08
:100FDC0072D12D4B1B6801332B4A13602A4B1B68B3
:100FEC002B4A82FB03129210DB17D31A7B62264B1F
:100FFC001A68274B83FB02139910D317C91A0B4697
:10100C009B000B445B00D31A3B623B6A7A6A28490B
:10101C00214803F09DFC03469AB24FF47A731E49A3
:10102C001E4803F0F8FA184B1B68632B02DD164BB5
:10103C0000221A601F4B1B68124A82FB031292118A
:10104C00DB17D21A104B1B681344632B0EDD1549AA
:10105C00114803F07DFC03469AB24FF47A730E49A3
:10106C000E4803F0D8FA084B00221A60074B0722EF
:10107C001A70B7E32C010020280100204C0100203D
:10108C0000000020D34D62103C01002040010020E4
:10109C006766666684520008EC000020F4010020AC
:1010AC0004000020585200089852000820520008F2
:1010BC004452000808000020964B1B68012B40F09E
:1010CC009183954B1B680133934A1360924B1B68B9
:1010DC00924A82FB03129210DB17D31AFB628E4BDF
:1010EC001A688E4B83FB02139910D317C91A0B463F
:1010FC009B000B445B00D31ABB62BB6AFA6A88493B
:10110C00884803F025FC03469AB24FF47A7385495C
:10111C00854803F080FA804B1B68632B02DD7E4B05
:10112C0000221A60814B1B68814A82FB03129211C8
:10113C00DB17D21A784B1B681344632B0EDD7D49E9
:10114C00784803F005FC03469AB24FF47A7375495C
:10115C00754803F060FA704B00221A60764B082237
:10116C001A703FE3754B1B68012B0ED1744B1B6837
:10117C000133734A1360724B1B68012B02DD704BF9
:10118C0000221A60C82001F0D7F86E4B1B68012BA7
:10119C0040F0A080604B1B680A335F4A13606A4BB7
:1011AC001B68012B1CD1694B1B68614A82FB031223
:1011BC009211DB17D21A584B1B681344632B2FDD8B
:1011CC005C49584803F0C4FB03469AB24FF47A7357
:1011DC005449554803F01FFA4F4B00221A601FE088
:1011EC004C4B1B68012B1BD1504B1B68504A82FB8C
:1011FC0003129211DB17D21A474B1B681344632B53
:10120C000EDD4C49474803F0A3FB03469AB24FF45A
:10121C007A734449444803F0FEF93F4B00221A60AC
:10122C003D4B1B683D4A82FB03129210DB17D31A0D
:10123C007B63394B1A68394B83FB02139910D31714
:10124C00C91A0B469B000B445B00D31A3B63404B03
:10125C001B68012B0ED13B6B7A6B3E49314803F076
:10126C0077FB03469AB24FF47A732E492E4803F05B
:10127C00D2F924E0344B1B68012B0ED13B6B7A6BFB
:10128C003549284803F064FB03469AB24FF47A734D
:10129C002449254803F0BFF911E01E4B1B68012BB4
:1012AC000DD13B6B7A6B1E491E4803F051FB034674
:1012BC009AB24FF47A731B491B4803F0ACF9164BE6
:1012CC001B68632B02DD144B00221A604FF47A70FA
:1012DC0000F0DEFF0120FFF75BF80346002B40F027
:1012EC0083821B4B1B68012B03D1134B06221A70F4
:1012FC007AE2154B1B68012B03D10F4B07221A7096
:10130C0072E2044B1B68012B40F06E820A4B0822E0
:10131C001A7069E24C0100203C0100206766666689
:10132C0084520008EC000020F4010020040000208E
:10133C00D34D621058520008400100206402002076
:10134C00240100205C02002028010020080000205D
:10135C002C0100202052000844520008A14B1B68AD
:10136C00012B40F09D80A049A04803F0F1FA034600
:10137C009AB24FF47A739D499D4803F04CF99D4BFA
:10138C001B684FF47A7202FB03F39B4A13609A4B6F
:10139C001A689A4B1B68D31A994A1360964B1B68B0
:1013AC00984A82FB03121213DB17D31AFB64924B7D
:1013BC001B68954A82FB03129211DB17D21A934BCE
:1013CC0083FB02139910D317C91A0B469B000B44CD
:1013DC005B00D31ABB64894B1B688A4A82FB0312DD
:1013EC001213DB17D31A7B64844B1B68864A82FB6F
:1013FC0003129211DB17D21A844B83FB0213991040
:10140C00D317C91A0B469B000B445B00D31A3B64E1
:10141C007B4B1B687B4A82FB03121213DB17D31A1C
:10142C00FB63774B1B68784A82FB03129211DB1724
:10143C00D21A764B83FB02139910D317C91A0B4699
:10144C009B000B445B00D31ABB63BB6CFA6C7049FA
:10145C00664803F07DFA03469AB24FF47A736349F7
:10146C00634803F0D8F83B6C7A6C6A495F4803F028
:10147C006FFA03469AB24FF47A735C495C4803F0F6
:10148C00CAF8BB6BFA6B6349584803F061FA034620
:10149C009AB24FF47A735549554803F0BCF85EE1A3
:1014AC005D4B1B68012B40F0B9804F494F4803F04E
:1014BC004FFA03469AB24FF47A734C494C4803F0F6
:1014CC00AAF84C4B1B684FF47A7202FB03F34B4A9D
:1014DC0013604A4B1A684A4B1B681344464A136004
:1014EC00454B1B68474A82FB03121213DB17D31AB6
:1014FC007B66414B1B68444A82FB03129211DB173B
:10150C00D21A424B83FB02139910D317C91A0B46FC
:10151C009B000B445B00D31A3B66384B1B68394A63
:10152C0082FB03121213DB17D31AFB65334B1B68B8
:10153C00354A82FB03129211DB17D21A334B83FB11
:10154C0002139910D317C91A0B469B000B445B006E
:10155C00D31ABB652A4B1B682A4A82FB031212134F
:10156C00DB17D31A7B65264B1B68274A82FB0312B9
:10157C009211DB17D21A254B83FB02139910D31748
:10158C00C91A0B469B000B445B00D31A3B653B6EA0
:10159C007A6E1F49154803F0DBF903469AB24FF4F3
:1015AC007A731249124803F036F8BB6DFA6D19497B
:1015BC000E4803F0CDF903469AB24FF47A730B49F7
:1015CC000B4803F028F83B6D7A6D1249074803F07D
:1015DC00BFF903469AB24FF47A730449044803F0F6
:1015EC001AF8BCE02C010020A8520008EC000020E6
:1015FC00F40100203C010020000000200400002029
:10160C0008000020AD8BDB68D34D62106766666600
:10161C00B8520008CC52000828010020764B1B68F9
:10162C00012B40F09C807549754803F091F90346F5
:10163C009AB24FF47A737249724802F0ECFF724B13
:10164C001B684FF47A7202FB03F3704A1360704B01
:10165C001A686E4B1B6813446E4A13606D4B1B6803
:10166C006D4A82FB03121213DB17D31AFB67694B0B
:10167C001B686A4A82FB03129211DB17D21A684B61
:10168C0083FB02139910D317C91A0B469B000B440A
:10169C005B00D31ABB675E4B1B685F4A82FB03126D
:1016AC001213DB17D31A7B67594B1B685B4A82FBFF
:1016BC0003129211DB17D21A594B83FB02139910A8
:1016CC00D317C91A0B469B000B445B00D31A3B671C
:1016DC004E4B1B68504A82FB03121213DB17D31AB2
:1016EC00FB664A4B1B684D4A82FB03129211DB17B7
:1016FC00D21A4B4B83FB02139910D317C91A0B4602
:10170C009B000B445B00D31ABB66BB6FFA6F454959
:10171C003B4803F01DF903469AB24FF47A733849EB
:10172C00384802F078FF3B6F7A6F3F49344803F03A
:10173C000FF903469AB24FF47A733149314802F0EB
:10174C006AFFBB6EFA6E38492D4803F001F9034667
:10175C009AB24FF47A732A492A4802F05CFF334B51
:10176C0000221A60324B00221A60234B00221A60AE
:10177C00304B00221A60304B00221A602F4B002293
:10178C001A60214B00221A6000F090FA0020FEF73C
:10179C00CBFD0346002B15D0264B01221A60FA20F4
:1017AC0000F092FDC82000F0C7FD1A4B1B681B4AC5
:1017BC0082FB03129211DB17D31A134A1360204BCE
:1017CC0006221A701F4B1B68012B0FD11C4B0022D9
:1017DC001A700BE000BF0AE000BF08E000BF06E093
:1017EC0000BF04E000BF02E000BF00E000BF00BF8C
:1017FC008037BD4680BD00BF4C010020A8520008B8
:10180C00EC000020F40100203C0100200800002026
:10181C000400002000000020AD8BDB68D34D62106B
:10182C0067666666B8520008CC5200082C0100208E
:10183C002801002048010020200100206402002023
:10184C00400100206802002080B500AF2E4B1B68C1
:10185C00012B57D12D4B1B68012B19D12C4B1B681D
:10186C00012B15D1002208212A4801F0E6FA0022AA
:10187C001021284801F0E1FA4FF48061264801F06C
:10188C00F4FA2021234801F0F0FAFA2000F01CFDB4
:10189C00224B1B68012B17D11D4B1B68012B13D13D
:1018AC004FF480611C4801F0E0FA0821194801F05E
:1018BC00DCFA2021174801F0D8FA1021154801F064
:1018CC00D4FAFA2000F000FD154B1B68012B19D13E
:1018DC000F4B1B68012B15D100224FF480610E4871
:1018EC0001F0ABFA002220210A4801F0A6FA0821E7
:1018FC00084801F0BAFA1021064801F0B6FAFA20AD
:10190C0000F0E2FC00BF80BD500200202C01002042
:10191C0048010020000C0140000801402801002073
:10192C004C01002080B500AF9D4B1B780D3B032B69
:10193C0000F22A8101A252F823F000BF59190008C5
:10194C00CD190008791A0008EB1A000803210120B0
:10195C0000F040F90120FEF7E7FC0346002B07D00E
:10196C008F4B0E221A708F4B1B68184600F058FCD8
:10197C000220FEF7D9FC0346002B16D08A4B01221D
:10198C001A608A498A4802F0E3FF03469AB24FF480
:10199C007A738749874802F03EFE814B0E221A70FB
:1019AC00804B1B68184600F03BFC0020FEF7D6FC71
:1019BC000346002B00F0EA80794B05221A70E5E013
:1019CC000221012000F006F90220FEF7ADFC0346CF
:1019DC00002B0ED07549764802F0BAFF03469AB236
:1019EC004FF47A737249734802F015FE6E4B012264
:1019FC001A60714B1B68012B07D16B4B1B68002BBA
:101A0C0003D1674B0F221A7025E06B4B1B68012B1F
:101A1C0021D1654B1B68012B1DD1684B00221A602C
:101A2C00674B1B68674A82FB03129211DB17D31AB0
:101A3C00654A1360654B1B68624A82FB0312921164
:101A4C00DB17D31A624A1360554B03221A704FF4FA
:101A5C007A7000F055FC0020FEF780FC0346002B4A
:101A6C0000F096804E4B05221A7091E00121032064
:101A7C0000F0B0F80220FEF757FC0346002B16D0FE
:101A8C00494B01221A604949494802F061FF03465B
:101A9C009AB24FF47A734649464802F0BCFD404B6B
:101AAC0010221A703F4B1B68184600F0B9FB01203E
:101ABC00FEF73AFC0346002B07D0394B10221A7064
:101ACC00384B1B68184600F0ABFB0020FEF746FCB9
:101ADC000346002B5ED0324B05221A705AE00220CE
:101AEC00FEF722FC0346002B0ED03049304802F0A2
:101AFC002FFF03469AB24FF47A732D492D4802F00A
:101B0C008AFD294B01221A600121022000F062F8A3
:101B1C00294B1B68012B07D1234B1B68002B03D1CE
:101B2C001F4B0D221A7025E0234B1B68012B21D172
:101B3C001D4B1B68012B1DD1204B00221A60234B1F
:101B4C001B68204A82FB03129211DB17D31A1E4A20
:101B5C0013601B4B1B681B4A82FB03129211DB1791
:101B6C00D31A1B4A13600E4B01221A704FF47A7071
:101B7C0000F0C6FB0020FEF7F1FB0346002B0BD058
:101B8C00074B05221A7007E000BF06E000BF04E017
:101B9C0000BF02E000BF00E000BF00BF80BD00BF7F
:101BAC00400100200400002044010020E052000805
:101BBC00EC000020F4010020740200202001002021
:101BCC0008000020D34D62103001002000000020DE
:101BDC003801002080B582B000AF786039607B6836
:101BEC00032B21D07B68032B2ADC7B68012B03D0D1
:101BFC007B68022B0CD023E001224FF48061294832
:101C0C0001F01BF900220821274801F016F917E012
:101C1C0001224FF48061234801F00FF901220821C1
:101C2C00214801F00AF90BE000224FF480611D48B5
:101C3C0001F003F9012208211B4801F0FEF800BF56
:101C4C003B68032B1FD03B68032B27DC3B68012B25
:101C5C0003D03B68022B0BD020E00122202112483C
:101C6C0001F0EBF8002210210F4801F0E6F815E026
:101C7C00012220210C4801F0E0F8012210210A4831
:101C8C0001F0DBF80AE000222021074801F0D5F82A
:101C9C0001221021044801F0D0F800BF00BF083722
:101CAC00BD4680BD00080140000C014080B500AF6E
:101CBC0000224FF480610A4801F0BFF8002208218D
:101CCC00084801F0BAF800222021064801F0B5F8C6
:101CDC0000221021034801F0B0F800BF80BD00BF06
:101CEC0000080140000C014080B582B000AF786064
:101CFC007B68062B23D07B68062B2CDC7B68042BA3
:101D0C0003D07B68052B0DD025E001224FF48061B8
:101D1C00194801F092F800224FF48071174801F035
:101D2C008CF825E000224FF48061134801F085F80F
:101D3C0001224FF48071114801F07FF818E0002265
:101D4C004FF480610C4801F078F800224FF4807158
:101D5C000A4801F072F800224FF48061064801F045
:101D6C006CF800224FF48071044801F066F800BF53
:101D7C0000BF0837BD4680BD000C01400008014083
:101D8C0080B500AF00F04EFD00F026F800F036F9FB
:101D9C0000F064F800F0AEF800F006F90A4801F023
:101DAC00E7FC0021094801F085FD094800F0A8F97D
:101DBC00084B00221A70FEF71FFBFEF795FEFFF78B
:101DCC00B1FDFFF741FDF6E7AC01002064010020F6
:101DDC00000400404001002080B590B000AF07F136
:101DEC00180328220021184602F0AAFD3B1D0022F0
:101DFC001A605A609A60DA601A610223BB6101238F
:101E0C00BB621023FB6202237B630023BB634FF492
:101E1C006013FB6307F11803184601F03FF8034603
:101E2C00002B01D000F066F90F237B600223BB600E
:101E3C000023FB604FF480633B6100237B613B1DFF
:101E4C000221184601F0AAFA0346002B01D000F03B
:101E5C0051F900BF4037BD4680BD000080B586B04B
:101E6C0000AF07F1080300221A605A609A60DA602A
:101E7C003B4600221A605A601D4B4FF080421A609C
:101E8C001B4B41F63F725A60194B00229A60184B5B
:101E9C004F22DA60164B00221A61154B00229A6110
:101EAC00134801F015FC0346002B01D000F022F979
:101EBC004FF48053BB6007F1080319460C4801F03E
:101ECC0061FF0346002B01D000F014F900233B60A6
:101EDC0000237B603B461946054802F0DFFA0346B7
:101EEC00002B01D000F006F900BF1837BD4680BDAD
:101EFC00AC01002080B58AB000AF07F120030022AE
:101F0C001A605A603B1D00221A605A609A60DA60AF
:101F1C001A615A619A61224B224A1A60204B3F2265
:101F2C005A601F4B00229A601D4B40F2E732DA6078
:101F3C001B4B00221A611A4B00229A61184801F0BF
:101F4C0069FC0346002B01D000F0D4F800233B625F
:101F5C0000237B6207F120031946114802F09EFA18
:101F6C000346002B01D000F0C5F860237B600023F2
:101F7C00BB600023FB6000237B613B1D00221946E4
:101F8C00074801F041FE0346002B01D000F0B2F8E7
:101F9C00034800F037FB00BF2837BD4680BD00BFAB
:101FAC00640100200004004080B500AF114B124AC0
:101FBC001A60104B4FF4E1325A600E4B00229A60BB
:101FCC000C4B0022DA600B4B00221A61094B0C22DD
:101FDC005A61084B00229A61064B0022DA610548CF
:101FEC0002F0CCFA0346002B01D000F083F800BFBE
:101FFC0080BD00BFF40100200044004080B586B0D5
:10200C0000AF07F1080300221A605A609A60DA6088
:10201C002E4B9B692D4A43F0040393612B4B9B6918
:10202C0003F004037B607B68284B9B69274A43F0D1
:10203C0008039361254B9B6903F008033B603B68E5
:10204C0000224FF48761224800F0F7FE00224FF483
:10205C00A061204800F0F1FE1323BB600023FB605D
:10206C0001233B6107F1080319461A4800F04AFDA9
:10207C000123BB600023FB6001233B6107F10803D4
:10208C001946134800F03EFD4FF48763BB600123F3
:10209C00FB6000233B6102237B6107F108031946B7
:1020AC000B4800F02FFD4FF4A063BB600123FB60D5
:1020BC0000233B6102237B6107F1080319460548A5
:1020CC0000F020FD00BF1837BD4680BD0010024057
:1020DC00000C01400008014080B582B000AF786070
:1020EC0000F05CF8FEF72CF800F05EF900BF083742
:1020FC00BD4680BD80B400AF72B600BFFEE70000E5
:10210C0080B582B000AF78607B689B6A044A13602C
:10211C000A2000F02DF900BF0837BD4680BD00BF76
:10212C00BC00002084B080B500AF07F1080C8CE82F
:10213C000F0001220021164802F08CF9154B1B7878
:10214C001A4613469B0013449B001A463B6D1A44D7
:10215C00BB685A630E4B9B6A591C0F4BA3FB0123A4
:10216C00CA1A520813445A0913469B019B1ACA1ADD
:10217C00074902F114038B62064B1B780133DAB268
:10218C00044B1A7000BFBD46BDE8804004B07047D8
:10219C0000040040B800002005411004F0B591B0D7
:1021AC0010AF194B1B68012B2AD1184B1B68012B44
:1021BC0013D1174E28230E936D4606F110040FCC45
:1021CC000FC50FCC0FC50FCC0FC594E8030085E8E5
:1021DC00030096E80F00FFF7A5FF0C4B1B68002BC4
:1021EC000BD1002200210B4802F034F90A4B0022DB
:1021FC001A70084A094B1B689362AA2000F0B8F8C1
:10220C0000BF0437BD46F0BD78020020B4000020AA
:10221C006401002000040040B8000020BC00002035
:10222C0080B483B000AF78607B68084A82FB0312ED
:10223C009210DB17D31A064A1360064B00221A6061
:10224C0000BF0C37BD4680BC704700BF6766666632
:10225C00580200207402002080B483B000AF786074
:10226C007B68084A82FB03129210DB17D31A064ACA
:10227C001360064B00221A6000BF0C37BD4680BCB1
:10228C00704700BF676666664C020020680200203B
:10229C0080B483B000AF78607B68084A82FB03127D
:1022AC009210DB17D31A064A1360064B00221A60F1
:1022BC0000BF0C37BD4680BC704700BF67666666C2
:1022CC007C0200205C02002080B483B000AF7860F8
:1022DC007B68084A82FB03129210DB17D31A064A5A
:1022EC001360064B00221A6000BF0C37BD4680BC41
:1022FC00704700BF676666664402002050020020EB
:10230C0080B483B000AF78607B68084A82FB03120C
:10231C009210DB17D31A064A1360064B00221A6080
:10232C0000BF0C37BD4680BC704700BF6766666651
:10233C00400200203C02002080B483B000AF7860E3
:10234C007B68084A82FB03129210DB17D31A064AE9
:10235C001360064B00221A6000BF0C37BD4680BCD0
:10236C00704700BF676666666C020020640200203E
:10237C0080B483B000AF78607B68084A82FB03129C
:10238C009210DB17D31A064A1360064B00221A6010
:10239C0000BF0C37BD4680BC704700BF67666666E1
:1023AC00700200207802002080B400AF494B1B68FB
:1023BC00002B0BDB474B1B68013B464A1360454B1C
:1023CC001B68002B02D1444B01221A60434B1B6843
:1023DC00002B0BDB414B1B68013B404A13603F4B0E
:1023EC001B68002B02D13E4B01221A603D4B1B682F
:1023FC00002B0BDB3B4B1B68013B3A4A1360394B00
:10240C001B68002B02D1384B01221A60374B1B681A
:10241C00002B0BDB354B1B68013B344A1360334BF1
:10242C001B68002B02D1324B01221A60314B1B6806
:10243C00002B0BDB2F4B1B68013B2E4A13602D4BE3
:10244C001B68002B02D12C4B01221A602B4B1B68F2
:10245C00002B0BDB294B1B68013B284A1360274BD5
:10246C001B68002B02D1264B01221A60254B1B68DE
:10247C00002B0BDB234B1B68013B224A1360214BC7
:10248C001B68002B02D1204B01221A601F4B1B68CA
:10249C00002B0BDB1D4B1B68013B1C4A13601B4BB9
:1024AC001B68002B02D11A4B01221A60194B1B68B6
:1024BC00002B0BDB174B1B68013B164A1360154BAB
:1024CC001B68002B02D1144B01221A6000BFBD46C1
:1024DC0080BC704758020020740200204802002083
:1024EC00380200204C020020680200207C020020F0
:1024FC005C02002044020020500200204002002018
:10250C003C02002060020020540200206C020020DB
:10251C0064020020700200207802002080B485B094
:10252C0000AF154B9B69144A43F001039361124BA6
:10253C009B6903F00103BB60BB680F4BDB690E4A60
:10254C0043F08053D3610C4BDB6903F080537B6009
:10255C007B680A4B5B68FB60FB6823F0E063FB6005
:10256C00FB6843F00073FB60044AFB68536000BFD8
:10257C001437BD4680BC704700100240000001407B
:10258C0080B584B000AF78607B681B68B3F1804F76
:10259C0013D10C4BDB690B4A43F00103D361094B9C
:1025AC00DB6903F00103FB60FB68002200211C20A7
:1025BC0000F071FA1C2000F08AFA00BF1037BD46FB
:1025CC0080BD00BF0010024080B485B000AF7860C1
:1025DC007B681B68094A93420BD1094BDB69084A9B
:1025EC0043F00203D361064BDB6903F00203FB608B
:1025FC00FB6800BF1437BD4680BC70470004004028
:10260C000010024080B588B000AF786007F110036D
:10261C0000221A605A609A60DA607B681B680F4A65
:10262C00934217D10E4B9B690D4A43F004039361FF
:10263C000B4B9B6903F00403FB60FB6840233B617D
:10264C0002237B610223FB6107F110031946054845
:10265C0000F058FA00BF2037BD4680BD0004004092
:10266C00001002400008014080B588B000AF7860CF
:10267C0007F1100300221A605A609A60DA607B68D6
:10268C001B681B4A93422FD11A4BDB69194A43F43E
:10269C000033D361174BDB6903F40033FB60FB6839
:1026AC00144B9B69134A43F004039361114B9B69D0
:1026BC0003F00403BB60BB6804233B6102237B6112
:1026CC000323FB6107F1100319460B4800F01AFABB
:1026DC0008233B6100237B610023BB6107F11003DE
:1026EC001946054800F00EFA00BF2037BD4680BDE4
:1026FC0000440040001002400008014080B400AFCC
:10270C00FEE780B400AFFEE780B400AFFEE780B414
:10271C0000AFFEE780B400AFFEE780B400AF00BFAF
:10272C00BD4680BC704780B400AF00BFBD4680BCC6
:10273C00704780B400AF00BFBD4680BC704780B509
:10274C0000AF00F0B5F800BF80BD000080B500AF51
:10275C00024801F051F900BF80BD00BFAC01002060
:10276C0080B586B000AF7860144A154BD31A7B61E4
:10277C007B693B61134B1B68002B02D1114B124A36
:10278C001A60104B1A687B6813443A699A4207D254
:10279C0002F0ACF803460C221A604FF0FF3309E04C
:1027AC00084B1B68FB60074B1A687B681344054A8F
:1027BC001360FB6818461837BD4680BD00500020DA
:1027CC0000040000C00000209802002080B400AF7C
:1027DC0000BFBD4680BC70470C480D490D4A002314
:1027EC0002E0D458C4500433C4188C42F9D30A4ABA
:1027FC000A4C002301E013600432A242FBD3FFF722
:10280C00E5FF02F079F8FFF7BBFA704700000020F3
:10281C007C000020545300087C000020940200200F
:10282C00FEE7000080B500AF084B1B68074A43F079
:10283C0010031360032000F023F90F2000F008F8B8
:10284C00FFF76CFE0023184680BD00BF002002403D
:10285C0080B582B000AF7860124B1A68124B1B78AF
:10286C0019464FF47A73B3FBF1F3B2FBF3F318464A
:10287C0000F03BF90346002B01D001230EE07B68EE
:10288C000F2B0AD8002279684FF0FF3000F003F9C3
:10289C00064A7B681360002300E0012318460837C2
:1028AC00BD4680BD0C00002014000020100000204C
:1028BC0080B400AF054B1B781A46054B1B681344BC
:1028CC00034A136000BFBD4680BC70471400002053
:1028DC008002002080B400AF024B1B681846BD4636
:1028EC0080BC70478002002080B485B000AF786057
:1028FC007B6803F00703FB600C4BDB68BB60BA68BA
:10290C004FF6FF031340BB60FB681A02BB6813430E
:10291C0043F0BF6343F40033BB60044ABB68D3602D
:10292C0000BF1437BD4680BC704700BF00ED00E00F
:10293C0080B400AF044BDB681B0A03F00703184696
:10294C00BD4680BC704700BF00ED00E080B483B092
:10295C0000AF0346FB7197F90730002B0BDBFB79BB
:10296C0003F01F02064997F907305B09012000FAB2
:10297C0002F241F8232000BF0C37BD4680BC7047E3
:10298C0000E100E080B483B000AF03463960FB7116
:10299C0097F90730002B0ADB3B68DAB20C4997F940
:1029AC0007301201D2B20B4483F800230AE03B68D3
:1029BC00DAB20849FB7903F00F03043B1201D2B2DF
:1029CC000B441A7600BF0C37BD4680BC704700BF65
:1029DC0000E100E000ED00E080B489B000AFF860E9
:1029EC00B9607A60FB6803F00703FB61FB69C3F114
:1029FC000703042B28BF0423BB61FB690433062B9C
:102A0C0002D9FB69033B00E000237B614FF0FF32EE
:102A1C00BB6902FA03F3DA43BB681A407B699A403C
:102A2C004FF0FF317B6901FA03F3D9437B680B400C
:102A3C00134318462437BD4680BC704780B582B01E
:102A4C0000AF78607B68013BB3F1807F01D3012339
:102A5C000FE00A4A7B68013B53600F214FF0FF30B7
:102A6C00FFF790FF054B00229A60044B07221A6077
:102A7C00002318460837BD4680BD00BF10E000E0BB
:102A8C0080B582B000AF78607868FFF72DFF00BF8B
:102A9C000837BD4680BD80B586B000AF0346B9602F
:102AAC007A60FB7300237B61FFF742FF78617A68E1
:102ABC00B9687869FFF790FF024697F90F30114615
:102ACC001846FFF75FFF00BF1837BD4680BD80B5C5
:102ADC0082B000AF0346FB7197F907301846FFF739
:102AEC0035FF00BF0837BD4680BD80B582B000AF52
:102AFC0078607868FFF7A2FF034618460837BD4692
:102B0C0080BD000080B48BB000AF786039600023CA
:102B1C007B6200233B6269E101227B6A02FA03F3C8
:102B2C00FB613B681B68FA691340BB61BA69FB69BE
:102B3C009A4240F058813B685B689A4A93425ED057
:102B4C00984A934275D8984A934258D0964A9342E1
:102B5C006FD8964A934252D0944A934269D8944A79
:102B6C0093424CD0924A934263D8924A934246D0B5
:102B7C00904A93425DD8122B2AD8122B59D801A215
:102B8C0052F823F00B2C0008E52B0008F72B00085B
:102B9C00392C00083F2C00083F2C00083F2C000863
:102BAC003F2C00083F2C00083F2C00083F2C00084D
:102BBC003F2C00083F2C00083F2C00083F2C00083D
:102BCC003F2C00083F2C0008ED2B0008012C0008BE
:102BDC00794A934213D02CE03B68DB683B6229E0D6
:102BEC003B68DB6804333B6224E03B68DB680833FA
:102BFC003B621FE03B68DB680C333B621AE03B68CE
:102C0C009B68002B02D104233B6213E03B689B685A
:102C1C00012B05D108233B627B68FA691A6109E034
:102C2C0008233B627B68FA695A6103E000233B622C
:102C3C0000E000BFBB69FF2B01D87B6801E07B681B
:102C4C0004337B61BB69FF2B02D87B6A9B0002E0DB
:102C5C007B6A083B9B003B617B691A680F213B69CF
:102C6C0001FA03F3DB431A40396A3B6901FA03F3B7
:102C7C001A437B691A603B685B6803F08053002B36
:102C8C0000F0B1804D4B9B694C4A43F001039361BA
:102C9C004A4B9B6903F00103BB60BB68484A7B6AE3
:102CAC009B08023352F82330FB607B6A03F003036A
:102CBC009B000F2202FA03F3DB43FA681340FB601C
:102CCC007B68404A934213D07B683F4A93420DD0B5
:102CDC007B683E4A934207D07B683D4A934201D1C0
:102CEC00032306E0042304E0022302E0012300E0B6
:102CFC0000237A6A02F0030292009340FA681343AD
:102D0C00FB602F497B6A9B080233FA6841F8232049
:102D1C003B685B6803F48033002B06D02D4B1A689C
:102D2C002C49BB6913430B6006E02A4B1A68BB693C
:102D3C00DB43284913400B603B685B6803F40033AA
:102D4C00002B06D0234B5A682249BB6913434B60B6
:102D5C0006E0204B5A68BB69DB431E4913404B60AD
:102D6C003B685B6803F48013002B06D0194B9A6800
:102D7C001849BB6913438B6006E0164B9A68BB6914
:102D8C00DB43144913408B603B685B6803F400130E
:102D9C00002B21D00F4BDA680E49BB691343CB6073
:102DAC0021E000BF000032100000311000002210A2
:102DBC000000211000001210000011100010024041
:102DCC000000014000080140000C014000100140CF
:102DDC0000140140000401400B4BDA68BB69DB4373
:102DEC0009491340CB607B6A01337B623B681A68EC
:102DFC007B6A22FA03F3002B7FF48EAE00BF00BF78
:102E0C002C37BD4680BC70470004014080B485B0AF
:102E1C0000AF78600B467B807B689A687B88134098
:102E2C00002B02D00123FB7301E00023FB73FB7B1F
:102E3C0018461437BD4680BC704780B483B000AFD1
:102E4C0078600B467B8013467B707B78002B03D01D
:102E5C007A887B681A6103E07B881A047B681A61A4
:102E6C0000BF0C37BD4680BC704780B485B000AF46
:102E7C0078600B467B807B68DB68FB607A88FB683C
:102E8C0013401A04FB68D9437B880B401A437B68B8
:102E9C001A6100BF1437BD4680BC704780B586B040
:102EAC0000AF78607B68002B01D101236CE27B685A
:102EBC001B6803F00103002B00F08780924B5B68CA
:102ECC0003F00C03042B0CD08F4B5B6803F00C034A
:102EDC00082B12D18C4B5B6803F48033B3F5803F25
:102EEC000BD1894B1B6803F40033002B6CD07B682F
:102EFC005B68002B68D1012346E27B685B68B3F505
:102F0C00803F06D1804B1B687F4A43F480331360AB
:102F1C002EE07B685B68002B0CD17B4B1B687A4ADC
:102F2C0023F480331360784B1B68774A23F4802397
:102F3C0013601DE07B685B68B3F5A02F0CD1724B5E
:102F4C001B68714A43F4802313606F4B1B686E4AF5
:102F5C0043F4803313600BE06B4B1B686A4A23F419
:102F6C0080331360684B1B68674A23F4802313601B
:102F7C007B685B68002B13D0FFF7ACFC386108E072
:102F8C00FFF7A8FC02463B69D31A642B01D9032333
:102F9C00FAE15D4B1B6803F40033002BF0D014E016
:102FAC00FFF798FC386108E0FFF794FC02463B6998
:102FBC00D31A642B01D90323E6E1534B1B6803F4AA
:102FCC000033002BF0D100E000BF7B681B6803F0DE
:102FDC000203002B63D04C4B5B6803F00C03002BFB
:102FEC000BD0494B5B6803F00C03082B1CD1464BF0
:102FFC005B6803F48033002B16D1434B1B6803F042
:10300C000203002B05D07B681B69012B01D0012327
:10301C00BAE13D4B1B6823F0F8027B685B69DB006F
:10302C00394913430B603AE07B681B69002B20D0B5
:10303C00364B01221A60FFF74DFC386108E0FFF7B0
:10304C0049FC02463B69D31A022B01D903239BE1AD
:10305C002D4B1B6803F00203002BF0D02A4B1B688E
:10306C0023F0F8027B685B69DB00274913430B6094
:10307C0015E0264B00221A60FFF72CFC386108E0A3
:10308C00FFF728FC02463B69D31A022B01D9032314
:10309C007AE11D4B1B6803F00203002BF0D17B6817
:1030AC001B6803F00803002B3AD07B689B69002B4C
:1030BC0019D0174B01221A60FFF70CFC386108E09D
:1030CC00FFF708FC02463B69D31A022B01D90323F4
:1030DC005AE10D4B5B6A03F00203002BF0D0012088
:1030EC0000F0D8FA1CE00A4B00221A60FFF7F2FB42
:1030FC0038610FE0FFF7EEFB02463B69D31A022B57
:10310C0008D9032340E100BF0010024000004242F6
:10311C00800442429E4B5B6A03F00203002BE9D110
:10312C007B681B6803F00403002B00F0A6800023CF
:10313C00FB75974BDB6903F08053002B0DD1944B3F
:10314C00DB69934A43F08053D361914BDB6903F005
:10315C008053BB60BB680123FB758E4B1B6803F46B
:10316C008073002B18D18B4B1B688A4A43F48073F5
:10317C001360FFF7AFFB386108E0FFF7ABFB0246CB
:10318C003B69D31A642B01D90323FDE0814B1B68E7
:10319C0003F48073002BF0D07B68DB68012B06D125
:1031AC007B4B1B6A7A4A43F0010313622DE07B6868
:1031BC00DB68002B0CD1764B1B6A754A23F001039C
:1031CC001362734B1B6A724A23F0040313621CE0F4
:1031DC007B68DB68052B0CD16D4B1B6A6C4A43F08A
:1031EC00040313626A4B1B6A694A43F001031362BE
:1031FC000BE0674B1B6A664A23F001031362644BB6
:10320C001B6A634A23F0040313627B68DB68002BA0
:10321C0015D0FFF75FFB38610AE0FFF75BFB024656
:10322C003B69D31A41F28832934201D90323ABE0B4
:10323C00574B1B6A03F00203002BEED014E0FFF790
:10324C0049FB38610AE0FFF745FB02463B69D31A9C
:10325C0041F28832934201D9032395E04C4B1B6A0F
:10326C0003F00203002BEED1FB7D012B05D1484B63
:10327C00DB69474A23F08053D3617B68DB69002B01
:10328C0000F08180424B5B6803F00C03082B61D08B
:10329C007B68DB69022B46D13F4B00221A60FFF79B
:1032AC0019FB386108E0FFF715FB02463B69D31A9E
:1032BC00022B01D9032367E0354B1B6803F0007325
:1032CC00002BF0D17B681B6AB3F5803F08D1304BE3
:1032DC005B6823F400327B689B682D4913434B6079
:1032EC002B4B5B6823F474127B68196A7B685B6AEE
:1032FC000B43274913434B60274B01221A60FFF7FE
:10330C00E9FA386108E0FFF7E5FA02463B69D31A9F
:10331C00022B01D9032337E01D4B1B6803F000730C
:10332C00002BF0D02FE01C4B00221A60FFF7D2FAD2
:10333C00386108E0FFF7CEFA02463B69D31A022B3C
:10334C0001D9032320E0124B1B6803F00073002B00
:10335C00F0D118E07B68DB69012B01D1012313E06C
:10336C000B4B5B68FB60FB6803F480327B681B6A69
:10337C009A4206D1FB6803F470127B685B6A9A422E
:10338C0001D0012300E0002318461837BD4680BD4C
:10339C0000100240007000406000424280B584B0D2
:1033AC0000AF786039607B68002B01D10123D0E03D
:1033BC006A4B1B6803F007033A689A4210D9674BB3
:1033CC001B6823F0070265493B6813430B60634B92
:1033DC001B6803F007033A689A4201D00123B8E056
:1033EC007B681B6803F00203002B20D07B681B68F2
:1033FC0003F00403002B05D0594B5B68584A43F487
:10340C00E06353607B681B6803F00803002B05D056
:10341C00534B5B68524A43F460535360504B5B68A8
:10342C0023F0F0027B689B684D4913434B607B682B
:10343C001B6803F00103002B40D07B685B68012BF9
:10344C0007D1474B1B6803F40033002B15D1012324
:10345C007FE07B685B68022B07D1414B1B6803F054
:10346C000073002B09D1012373E03D4B1B6803F063
:10347C000203002B01D101236BE0394B5B6823F075
:10348C0003027B685B68364913434B60FFF722FAF3
:10349C00F8600AE0FFF71EFA0246FB68D31A41F205
:1034AC008832934201D9032353E02D4B5B6803F020
:1034BC000C027B685B689B009A42EBD1274B1B6824
:1034CC0003F007033A689A4210D2244B1B6823F08E
:1034DC00070222493B6813430B60204B1B6803F027
:1034EC0007033A689A4201D0012332E07B681B68DB
:1034FC0003F00403002B08D0194B5B6823F4E06243
:10350C007B68DB68164913434B607B681B6803F0D0
:10351C000803002B09D0124B5B6823F460527B68C4
:10352C001B69DB000E4913434B6000F021F8024687
:10353C000B4B5B681B0903F00F030A49CB5C22FAA7
:10354C0003F3094A1360094B1B681846FFF780F90F
:10355C00002318461037BD4680BD00BF0020024036
:10356C0000100240005300080C0000201000002046
:10357C0090B48AB000AF2A4B3C1D0FCB84E80F00EF
:10358C0040F201233B800023FB610023BB6100233D
:10359C007B6200237B6100233B62224B5B68FB61F7
:1035AC00FB6903F00C03042B02D0082B03D02DE095
:1035BC001D4B3B622DE0FB699B0C03F00F0307F1E5
:1035CC002802134413F8243C7B61FB6903F4803319
:1035DC00002B13D0134B5B685B0C03F0010307F15A
:1035EC002802134413F8283CBB617B690E4A02FB8A
:1035FC0003F2BB69B2FBF3F37B6204E07B690B4A19
:10360C0002FB03F37B627B6A3B6202E0064B3B628C
:10361C0000BF3B6A18462837BD4690BC704700BFB8
:10362C00F05200080010024000127A0000093D0020
:10363C0080B400AF024B1B681846BD4680BC704777
:10364C000C00002080B500AFFFF7F2FF0246054BDF
:10365C005B681B0A03F007030349CB5C22FA03F3F4
:10366C00184680BD001002401053000880B500AF12
:10367C00FFF7DEFF0246054B5B68DB0A03F007032E
:10368C000349CB5C22FA03F3184680BD00100240BC
:10369C001053000880B485B000AF78600A4B1B68EB
:1036AC000A4AA2FB03235B0A7A6802FB03F3FB6062
:1036BC0000BFFB685A1EFA60002BF9D100BF00BF97
:1036CC001437BD4680BC70470C000020D34D6210EF
:1036DC0080B582B000AF78607B68002B01D10123EC
:1036EC0041E07B6893F83D30DBB2002B06D17B6860
:1036FC00002283F83C207868FEF742FF7B680222A8
:10370C0083F83D207B681A687B68043319461046A1
:10371C0000F020FC7B68012283F846207B680122A4
:10372C0083F83E207B68012283F83F207B680122CE
:10373C0083F840207B68012283F841207B680122BA
:10374C0083F842207B68012283F843207B680122A6
:10375C0083F844207B68012283F845207B68012292
:10376C0083F83D20002318460837BD4680BD000075
:10377C0080B485B000AF78607B6893F83D30DBB2E5
:10378C00012B01D001233AE07B68022283F83D2013
:10379C007B681B68DA687B681B6842F00102DA60A0
:1037AC007B681B68184A93420ED07B681B68B3F188
:1037BC00804F09D07B681B68144A934204D07B6805
:1037CC001B68134A934211D17B681B689B6803F0FA
:1037DC000703FB60FB68062B10D07B681B681A681C
:1037EC007B681B6842F001021A6007E07B681B686B
:1037FC001A687B681B6842F001021A6000231846A5
:10380C001437BD4680BC7047002C014000040040BA
:10381C000008004080B582B000AF78607B68002B58
:10382C0001D1012341E07B6893F83D30DBB2002BE2
:10383C0006D17B68002283F83C207868FEF7C4FE32
:10384C007B68022283F83D207B681A687B6804330E
:10385C001946104600F07EFB7B68012283F8462057
:10386C007B68012283F83E207B68012283F83F208D
:10387C007B68012283F840207B68012283F8412079
:10388C007B68012283F842207B68012283F8432065
:10389C007B68012283F844207B68012283F8452051
:1038AC007B68012283F83D20002318460837BD466B
:1038BC0080BD000080B584B000AF786039603B6893
:1038CC00002B09D17B6893F83E30DBB2012B14BF7F
:1038DC0001230023DBB222E03B68042B09D17B6877
:1038EC0093F83F30DBB2012B14BF01230023DBB272
:1038FC0015E03B68082B09D17B6893F84030DBB2AC
:10390C00012B14BF01230023DBB208E07B6893F882
:10391C004130DBB2012B14BF01230023DBB2002B9F
:10392C0001D001235EE03B68002B04D17B680222AE
:10393C0083F83E2013E03B68042B04D17B68022201
:10394C0083F83F200BE03B68082B04D17B680222F4
:10395C0083F8402003E07B68022283F841207B68D7
:10396C001B6801223968184600F074FD7B681B68DF
:10397C001E4A934207D17B681B685A6C7B681B6894
:10398C0042F400425A647B681B68184A93420ED07A
:10399C007B681B68B3F1804F09D07B681B68144AA5
:1039AC00934204D07B681B68124A934211D17B6806
:1039BC001B689B6803F00703FB60FB68062B10D0A9
:1039CC007B681B681A687B681B6842F001021A60EE
:1039DC0007E07B681B681A687B681B6842F0010271
:1039EC001A60002318461037BD4680BD002C0140DC
:1039FC00000400400008004080B582B000AF786041
:103A0C007B681B681B6903F00203022B22D17B68C5
:103A1C001B68DB6803F00203022B1BD17B681B685D
:103A2C006FF002021A617B6801221A777B681B68AF
:103A3C009B6903F00303002B03D0786800F06FFA46
:103A4C0005E0786800F062FA786800F071FA7B683B
:103A5C0000221A777B681B681B6903F00403042B94
:103A6C0022D17B681B68DB6803F00403042B1BD199
:103A7C007B681B686FF004021A617B6802221A775C
:103A8C007B681B689B6903F44073002B03D0786838
:103A9C0000F045FA05E0786800F038FA786800F034
:103AAC0047FA7B6800221A777B681B681B6903F056
:103ABC000803082B22D17B681B68DB6803F0080322
:103ACC00082B1BD17B681B686FF008021A617B689E
:103ADC0004221A777B681B68DB6903F00303002B55
:103AEC0003D0786800F01BFA05E0786800F00EFA55
:103AFC00786800F01DFA7B6800221A777B681B68D7
:103B0C001B6903F01003102B22D17B681B68DB6848
:103B1C0003F01003102B1BD17B681B686FF0100295
:103B2C001A617B6808221A777B681B68DB6903F4CF
:103B3C004073002B03D0786800F0F1F905E0786849
:103B4C0000F0E4F9786800F0F3F97B6800221A774A
:103B5C007B681B681B6903F00103012B0ED17B688A
:103B6C001B68DB6803F00103012B07D17B681B6822
:103B7C006FF001021A617868FEF7AEFA7B681B6879
:103B8C001B6903F08003802B0ED17B681B68DB68FC
:103B9C0003F08003802B07D17B681B686FF08002D9
:103BAC001A61786800F0E1FC7B681B681B6903F004
:103BBC004003402B0ED17B681B68DB6803F040038D
:103BCC00402B07D17B681B686FF040021A61786844
:103BDC0000F0B7F97B681B681B6903F02003202BEE
:103BEC000ED17B681B68DB6803F02003202B07D108
:103BFC007B681B686FF020021A61786800F0ACFCDF
:103C0C0000BF0837BD4680BD80B584B000AFF860FA
:103C1C00B9607A60FB6893F83C30012B01D1022328
:103C2C00ACE0FB68012283F83C207B680C2B00F293
:103C3C009F8001A252F823F0793C00087D3D0008DA
:103C4C007D3D00087D3D0008B93C00087D3D000825
:103C5C007D3D00087D3D0008FB3C00087D3D0008D3
:103C6C007D3D00087D3D00083B3D0008FB681B685E
:103C7C00B968184600F0D0F9FB681B689A69FB68B4
:103C8C001B6842F008029A61FB681B689A69FB6822
:103C9C001B6822F004029A61FB681B689969BB6877
:103CAC001A69FB681B680A439A6162E0FB681B682F
:103CBC00B968184600F016FAFB681B689A69FB682D
:103CCC001B6842F400629A61FB681B689A69FB6886
:103CDC001B6822F480629A61FB681B689969BB6857
:103CEC001B691A02FB681B680A439A6141E0FB6876
:103CFC001B68B968184600F05FFAFB681B68DA6944
:103D0C00FB681B6842F00802DA61FB681B68DA6921
:103D1C00FB681B6822F00402DA61FB681B68D96936
:103D2C00BB681A69FB681B680A43DA6121E0FB680F
:103D3C001B68B968184600F0A9FAFB681B68DA69B9
:103D4C00FB681B6842F40062DA61FB681B68DA6985
:103D5C00FB681B6822F48062DA61FB681B68D96916
:103D6C00BB681B691A02FB681B680A43DA6100E036
:103D7C0000BFFB68002283F83C2000231846103754
:103D8C00BD4680BD80B584B000AF786039607B687B
:103D9C0093F83C30012B01D10223B3E07B68012264
:103DAC0083F83C207B68022283F83D207B681B68EB
:103DBC009B68FB60FB6823F07703FB60FB6823F4D4
:103DCC007F43FB607B681B68FA689A603B681B68E2
:103DDC00B3F5005F3ED0B3F5005F00F28780B3F51A
:103DEC00805F00F08580B3F5805F7FD8702B1AD090
:103DFC00702B7BD8602B50D0602B77D8502B3CD0BD
:103E0C00502B73D8402B58D0402B6FD8302B64D00C
:103E1C00302B6BD8202B60D0202B67D8002B5CD09C
:103E2C00102B5AD062E07B6818683B6899683B6835
:103E3C005A683B68DB6800F0EEFA7B681B689B688D
:103E4C00FB60FB6843F07703FB607B681B68FA68D8
:103E5C009A604EE07B6818683B6899683B685A68C2
:103E6C003B68DB6800F0D7FA7B681B689A687B6854
:103E7C001B6842F480429A603BE07B6818683B68A0
:103E8C0059683B68DB681A4600F04EFA7B681B6881
:103E9C005021184600F0A5FA2BE07B6818683B68A7
:103EAC0059683B68DB681A4600F06CFA7B681B6843
:103EBC006021184600F095FA1BE07B6818683B6897
:103ECC0059683B68DB681A4600F02EFA7B681B6861
:103EDC004021184600F085FA0BE07B681A683B68B5
:103EEC001B681946104600F07CFA02E000BF00E0A7
:103EFC0000BF7B68012283F83D207B68002283F899
:103F0C003C20002318461037BD4680BD80B483B0DA
:103F1C0000AF786000BF0C37BD4680BC704780B4E2
:103F2C0083B000AF786000BF0C37BD4680BC7047D3
:103F3C0080B483B000AF786000BF0C37BD4680BC46
:103F4C00704780B483B000AF786000BF0C37BD46BB
:103F5C0080BC704780B485B000AF786039607B68F6
:103F6C001B68FB607B68294A93420BD07B68B3F1DA
:103F7C00804F07D07B68264A934203D07B68254A42
:103F8C00934208D1FB6823F07003FB603B685B68CD
:103F9C00FA681343FB607B681C4A93420BD07B6826
:103FAC00B3F1804F07D07B68194A934203D07B68EA
:103FBC00184A934208D1FB6823F44073FB603B68BA
:103FCC00DB68FA681343FB60FB6823F080023B68F4
:103FDC005B691343FB607B68FA681A603B689A68FC
:103FEC007B68DA623B681A687B689A627B68074A6E
:103FFC00934203D13B681A697B681A637B68012280
:10400C005A6100BF1437BD4680BC7047002C01407C
:10401C00000400400008004080B487B000AF786016
:10402C0039607B681B6A23F001027B681A627B682B
:10403C001B6A7B617B685B683B617B689B69FB608F
:10404C00FB6823F07003FB60FB6823F00303FB6049
:10405C003B681B68FA681343FB607B6923F002031F
:10406C007B613B689B687A6913437B617B681C4A64
:10407C0093420CD17B6923F008037B613B68DB68BE
:10408C007A6913437B617B6923F004037B617B6852
:10409C00134A934211D13B6923F480733B613B6912
:1040AC0023F400733B613B685B693A6913433B61E2
:1040BC003B689B693A6913433B617B683A695A6078
:1040CC007B68FA689A613B685A687B685A637B68BC
:1040DC007A691A6200BF1C37BD4680BC704700BFAE
:1040EC00002C014080B487B000AF786039607B68E9
:1040FC001B6A23F010027B681A627B681B6A7B6167
:10410C007B685B683B617B689B69FB60FB6823F4A5
:10411C00E043FB60FB6823F44073FB603B681B6867
:10412C001B02FA681343FB607B6923F020037B615D
:10413C003B689B681B017A6913437B617B681D4A52
:10414C0093420DD17B6923F080037B613B68DB6874
:10415C001B017A6913437B617B6923F040037B610C
:10416C007B68144A934213D13B6923F480633B610F
:10417C003B6923F400633B613B685B699B003A69D4
:10418C0013433B613B689B699B003A6913433B615A
:10419C007B683A695A607B68FA689A613B685A682E
:1041AC007B689A637B687A691A6200BF1C37BD46CC
:1041BC0080BC7047002C014080B487B000AF7860A1
:1041CC0039607B681B6A23F480727B681A627B6897
:1041DC001B6A7B617B685B683B617B68DB69FB60AE
:1041EC00FB6823F07003FB60FB6823F00303FB60A8
:1041FC003B681B68FA681343FB607B6923F400730C
:10420C007B613B689B681B027A6913437B617B680B
:10421C001D4A93420DD17B6923F400637B613B689B
:10422C00DB681B027A6913437B617B6923F480632F
:10423C007B617B68144A934213D13B6923F480530E
:10424C003B613B6923F400533B613B685B691B0199
:10425C003A6913433B613B689B691B013A69134301
:10426C003B617B683A695A607B68FA68DA613B6843
:10427C005A687B68DA637B687A691A6200BF1C37FC
:10428C00BD4680BC704700BF002C014080B487B095
:10429C0000AF786039607B681B6A23F480527B68BE
:1042AC001A627B681B6A3B617B685B687B617B681D
:1042BC00DB69FB60FB6823F4E043FB60FB6823F4E1
:1042CC004073FB603B681B681B02FA681343FB607E
:1042DC003B6923F400533B613B689B681B033A69C1
:1042EC0013433B617B680F4A934209D17B6923F4EA
:1042FC0080437B613B685B699B017A6913437B61FB
:10430C007B687A695A607B68FA68DA613B685A683C
:10431C007B681A647B683A691A6200BF1C37BD4619
:10432C0080BC7047002C014080B487B000AFF860AF
:10433C00B9607A60FB681B6A7B61FB681B6A23F0BF
:10434C000102FB681A62FB689B693B613B6923F0C5
:10435C00F0033B617B681B013A6913433B617B694A
:10436C0023F00A037B617A69BB6813437B61FB68AA
:10437C003A699A61FB687A691A6200BF1C37BD46BC
:10438C0080BC704780B487B000AFF860B9607A60C9
:10439C00FB681B6A23F01002FB681A62FB689B69BE
:1043AC007B61FB681B6A3B617B6923F470437B6117
:1043BC007B681B037A6913437B613B6923F0A00381
:1043CC003B61BB681B013A6913433B61FB687A692B
:1043DC009A61FB683A691A6200BF1C37BD4680BC03
:1043EC00704780B485B000AF786039607B689B689B
:1043FC00FB60FB6823F07003FB603A68FB681343B7
:10440C0043F00703FB607B68FA689A6000BF1437BF
:10441C00BD4680BC704780B487B000AFF860B9600F
:10442C007A603B60FB689B687B617B6923F47F430C
:10443C007B613B681A027B681A43BB6813437A6939
:10444C0013437B61FB687A699A6000BF1C37BD46D9
:10445C0080BC704780B487B000AFF860B9607A60F8
:10446C00BB6803F01F03012202FA03F37B61FB68B4
:10447C001A6A7B69DB431A40FB681A62FB681A6A8A
:10448C00BB6803F01F03796801FA03F31A43FB6856
:10449C001A6200BF1C37BD4680BC704780B485B023
:1044AC0000AF786039607B6893F83C30012B01D108
:1044BC00022346E07B68012283F83C207B680222C1
:1044CC0083F83D207B681B685B68FB607B681B681E
:1044DC009B68BB60FB6823F07003FB603B681B6848
:1044EC00FA681343FB607B681B68FA685A607B6848
:1044FC001B68164A93420ED07B681B68B3F1804F41
:10450C0009D07B681B68124A934204D07B681B68F5
:10451C00104A93420CD1BB6823F08003BB603B680C
:10452C005B68BA681343BB607B681B68BA689A60A7
:10453C007B68012283F83D207B68002283F83C20B5
:10454C00002318461437BD4680BC7047002C014030
:10455C00000400400008004080B483B000AF7860D5
:10456C0000BF0C37BD4680BC704780B483B000AF31
:10457C00786000BF0C37BD4680BC704780B582B0F8
:10458C0000AF78607B68002B01D101233FE07B6892
:10459C0093F83D30DBB2002B06D17B68002283F808
:1045AC003C207868FEF760F87B68242283F83D2075
:1045BC007B681B68DA687B681B6822F40052DA603F
:1045CC00786800F005F97B681B681A697B681B68C2
:1045DC0022F490421A617B681B685A697B681B68DD
:1045EC0022F02A025A617B681B68DA687B681B68B8
:1045FC0042F40052DA607B6800221A647B68202245
:10460C0083F83D207B68202283F83E200023184647
:10461C000837BD4680BD80B58AB002AFF860B9607E
:10462C003B601346FB8000237B61FB6893F83D30B5
:10463C00DBB2202B7CD1BB68002B02D0FB88002B7B
:10464C0001D1012375E0FB6893F83C30012B01D1BB
:10465C0002236EE0FB68012283F83C20FB680022F9
:10466C001A64FB68212283F83D20FEF733F9786148
:10467C00FB68FA889A84FB68FA88DA84FB689B6882
:10468C00B3F5805F08D1FB681B69002B04D10023B4
:10469C00FB61BB68BB6103E0BB68FB610023BB61D2
:1046AC00FB68002283F83C202AE03B6800937B697E
:1046BC0000228021F86800F040F80346002B01D05E
:1046CC00032336E0FB69002B0BD1BB691B881A4610
:1046DC00FB681B68C2F308025A60BB690233BB61FA
:1046EC0007E0FB691A78FB681B685A60FB690133A9
:1046FC00FB61FB68DB8C9BB2013B9AB2FB68DA84F2
:10470C00FB68DB8C9BB2002BCFD13B6800937B69A1
:10471C0000224021F86800F010F80346002B01D06D
:10472C00032306E0FB68202283F83D20002300E0F1
:10473C00022318462037BD4680BD80B584B000AF3B
:10474C00F860B9603B601346FB712CE0BB69B3F1B8
:10475C00FF3F28D0BB69002B07D0FEF7BBF8024601
:10476C003B68D31ABA699A421DD2FB681B68DA6897
:10477C00FB681B6822F4D072DA60FB681B685A690C
:10478C00FB681B6822F001025A61FB68202283F847
:10479C003D20FB68202283F83E20FB68002283F832
:1047AC003C2003230FE0FB681B681A68BB681340AE
:1047BC00BA689A420CBF01230023DBB21A46FB797C
:1047CC009A42C3D0002318461037BD4680BD000066
:1047DC0080B584B000AF78607B681B681B6923F4DC
:1047EC0040517B68DA687B681B680A431A617B68F6
:1047FC009A687B681B691A437B685B691343BB60CF
:10480C007B681B68DB6823F4B05323F00C037A68D5
:10481C001268B9680B43D3607B681B685B6923F42F
:10482C0040717B689A697B681B680A435A617B6894
:10483C001B682C4A934203D1FEF718FFF86002E084
:10484C00FEF700FFF860FA6813469B0013449A00C9
:10485C001A447B685B689B00B2FBF3F3224AA2FB11
:10486C0003235B091901FA6813469B0013449A0051
:10487C001A447B685B689B00B2FBF3F21A4BA3FBF8
:10488C0002035B09642000FB03F3D31A1B013233D0
:10489C00154AA2FB03235B0903F0F0031944FA68E1
:1048AC0013469B0013449A001A447B685B689B0078
:1048BC00B2FBF3F20C4BA3FB02035B09642000FB7D
:1048CC0003F3D31A1B013233074AA2FB03235B0900
:1048DC0003F00F027B681B680A449A6000BF103714
:1048EC00BD4680BD003801401F85EB51014B186857
:1048FC00704700BF1800002070B500260C4D0D4C01
:10490C00641BA410A64209D100F05CFC00260A4DE1
:10491C000A4C641BA410A64205D170BD55F8043B8B
:10492C0098470136EEE755F8043B98470136F2E715
:10493C004C5300084C5300084C53000850530008CB
:10494C0003460244934200D1704703F8011BF9E778
:10495C000EB46FF0004100B59CB01DAB02900690F8
:10496C00079104910848094953F8042B05910068F4
:10497C0002A9019300F068F80022029B1A701CB087
:10498C005DF804EB03B07047180000200802FFFF2D
:10499C002DE9F0478E6882469E420C4690461F4693
:1049AC0038D88A8912F4906F32D02568096901339E
:1049BC00A5EB010965694B4405EB450505EBD57580
:1049CC006D109D4238BF1D46530531D5294600F068
:1049DC0053FB064650B90C234FF0FF30CAF8003099
:1049EC00A38943F04003A381BDE8F0874A462169BF
:1049FC0000F0CEFAA38923F4906343F08003A381E3
:104A0C0026614E4426603E466561A5EB0905A5600E
:104A1C00BE4200D93E4632464146206800F0C6FAF6
:104A2C00A36822689B1B32440020A3602260DBE752
:104A3C002A4600F07BFB06460028E1D1504621694E
:104A4C0000F0CEFAC7E700002DE9F04F98468B89AD
:104A5C0007461B060D4614469DB00ED50B6963B96F
:104A6C00402100F009FB2860286120B90C233B6031
:104A7C004FF0FF30D1E040236B61002309932023DA
:104A8C008DF8293030234FF00109CDF80C80DFF878
:104A9C00A4818DF82A3023469A4613F8012B0AB1CB
:104AAC00252AF9D1BAEB040B0BD05B4622462946DA
:104ABC003846FFF76DFF013000F0AA80099A5A447E
:104ACC0009929AF80030002B00F0A28000234FF0DE
:104ADC00FF32CDE905230AF1010A049307938DF8FF
:104AEC0053301A935446052214F8011B514800F018
:104AFC0041FA049AD8B9D00644BF20238DF853301C
:104B0C00110744BF2B238DF853309AF800302A2B11
:104B1C0015D0544600204FF00A0C079A214611F884
:104B2C00013B303B092B4ED9B0B1079214E0A0EBFE
:104B3C00080309FA03F31343A2460493D2E7039B39
:104B4C00191D1B680391002BBBBF5B4242F0020294
:104B5C0007930793B8BF049223782E2B0CD163785C
:104B6C002A2B35D1039B02341A1D1B680392002B90
:104B7C00B8BF4FF0FF330593DFF8C8A003225046AF
:104B8C00217800F0F7F940B14023A0EB0A0003FABA
:104B9C0000F0049B01340343049314F8011B062218
:104BAC0025488DF8281000F0E5F9002838D0234B63
:104BBC001BBB039B073323F0070308330393099BA9
:104BCC003344099367E70C4601200CFB0232A5E73E
:104BDC0000234FF00A0C194601340593204610F8B7
:104BEC00012B303A092A03D9002BC5D00591C3E714
:104BFC00044601230CFB0121F0E703AB00932A468A
:104C0C0038460F4B04A9AFF30080421C0646D6D1A0
:104C1C00AB895B063FF52CAF09981DB0BDE8F08F52
:104C2C0003AB00932A463846054B04A900F07CF8E8
:104C3C00EBE700BF185300082253000800000000E7
:104C4C009D4900081E5300082DE9F0471646994669
:104C5C008A680B6907469342B8BF1346336091F8D4
:104C6C0043200C46DDF820800AB101333360236801
:104C7C00990642BF336802333360256815F0060588
:104C8C0006D104F1190AE36832689B1AAB4228DC9E
:104C9C0094F84320131E226818BF012392062DD4CA
:104CAC004946384604F14302C047013020D02368FE
:104CBC00E56803F00603042B18BF002532684FF09B
:104CCC000006A36808BFAD1A226908BF25EAE5757E
:104CDC009342C4BF9B1AED181A34B5421AD1002066
:104CEC0008E00123524649463846C047013003D1FB
:104CFC004FF0FF30BDE8F0870135C4E73020E118F4
:104D0C0081F843005A1C94F845102244023382F86F
:104D1C004310C5E70123224649463846C0470130B7
:104D2C00E6D00136D9E700002DE9FF470C46277E77
:104D3C009146782F80469A460C9904F1430207D885
:104D4C00622F0AD8002F00F0D980582F00F0A480D1
:104D5C0004F1420684F842703AE0A7F16303152B84
:104D6C00F6D801A050F823F0CD4D0008E14D000815
:104D7C005D4D00085D4D00085D4D00085D4D00085F
:104D8C00E14D00085D4D00085D4D00085D4D0008CB
:104D9C005D4D0008EF4E0008114E0008D14E000882
:104DAC005D4D00085D4D0008114F00085D4D000879
:104DBC00114E00085D4D00085D4D0008D94E0008ED
:104DCC000B6804F142061A1D1B680A6084F8423015
:104DDC000123A4E0256808682E0600F104030AD517
:104DEC0005680B60002D03DA2D236D4284F84330E7
:104DFC000A235E4819E015F0400F05680B6018BFD8
:104E0C002DB2EFE70B682568181D0860280601D540
:104E1C001D6802E06906FBD51D886F2F0CBF0823A7
:104E2C000A235248002184F843106668002EA8BF5C
:104E3C002168A660A4BF21F0040121600DB9002EE9
:104E4C004DD01646B5FBF3F103FB1157C75D06F8C1
:104E5C00017D2F46BB420D46F4D9082B0BD123689C
:104E6C00DF0708D5236961689942DEBF302306F855
:104E7C00013C06F1FF36921B22614B46214640460F
:104E8C00CDF800A003AAFFF7DFFE01304CD14FF0A4
:104E9C00FF3004B0BDE8F087344884F845700E68E4
:104EAC00236856F8045B1F060E6014D5D90744BF5F
:104EBC0043F0200323601DB9236823F020032360F3
:104ECC001023AFE7236843F020032360782328489E
:104EDC0084F84530E3E75E0648BFADB2E6E7164618
:104EEC00BBE70B6826681D1D60690D6035061B68E5
:104EFC0001D5186002E07106FBD518800023164618
:104F0C002361BAE70B681A1D0A601E68002130463F
:104F1C00626800F02FF808B1801B60606368236141
:104F2C00002384F84330A8E73246494640462369BB
:104F3C00D0470130ABD023689B0713D4E068039BA8
:104F4C009842B8BF1846A4E701233246494640466A
:104F5C00D04701309BD00135E36803995B1AAB4213
:104F6C00F2DCEBE7002504F11906F5E729530008FC
:104F7C003A530008034610B5C9B20244934218468E
:104F8C0001D1002003E0047801338C42F6D110BD2E
:104F9C000A44914200F1FF3300D1704710B511F86B
:104FAC00014B914203F8014FF9D110BD884210B565
:104FBC0001EB020402D98442234607D8431EA142C6
:104FCC0008D011F8012B03F8012FF8E70146024431
:104FDC008A4200D110BD13F8014D02F8014DF7E7DC
:104FEC0038B50546002943D051F8043C0C1F002B62
:104FFC00B8BFE41800F0D0F81E4A1368104633B955
:10500C00636014602846BDE8384000F0CBB8A3427A
:10501C000AD921686218934201BF1A685B6852185A
:10502C00226063600460EDE71A465B680BB1A34233
:10503C00FAD911685018A0420BD1206801445018BD
:10504C0083421160DED118685B68014411605360C3
:10505C00D8E702D90C232B60D4E7206821188B42A7
:10506C0001BF19685B680918216063605460C9E767
:10507C0038BD00BFC4000020F8B5CD1C25F00305D9
:10508C0008350C2D38BF0C25002D064601DBA94236
:10509C0003D90C2333600020F8BD00F07DF82149C2
:1050AC000A6814469CB9204F3B6823B92146304608
:1050BC0000F062F838602946304600F05DF8431C79
:1050CC0023D10C233046336000F06CF8E3E72368FF
:1050DC005B1B17D40B2B03D923601C44256004E005
:1050EC006368A2420CBF0B605360304600F05AF864
:1050FC0004F10B00231D20F00700C21ACCD01B1AA0
:10510C00A350C9E722466468CCE7C41C24F003040E
:10511C00A042E3D0211A304600F02EF80130DDD148
:10512C00CFE700BFC4000020C8000020F8B5074638
:10513C0014460E4621B91146BDE8F840FFF79CBF56
:10514C0022B9FFF74DFF25462846F8BD00F030F890
:10515C00A0420FD221463846FFF78EFF05460028A5
:10516C00F2D031462246FFF713FF31463846FFF79F
:10517C0037FFE9E73546E7E738B50023054D044628
:10518C0008462B60FDF7ECFA431C02D12B6803B1E7
:10519C00236038BD84020020014800F011B800BF24
:1051AC008C020020014800F00CB800BF8C020020DB
:1051BC0051F8043C181F002BBCBF0B58C01870478B
:1051CC0070477047F8B500BFF8BC08BC9E467047E6
:0C51DC00F8B500BFF8BC08BC9E46704748
:1051E800214155544F4D41544943230D0A000000B5
:1051F800214D414E55414C230D0A0000213753459E
:10520800473A25642564230D0A00000021434841DC
:105218004E4745230D0A000021375345473A256478
:105228002564235245440D0A0000000021375345E8
:10523800473A534554235245440D0A0021375345F4
:10524800473A256425642359454C0D0A000000009F
:1052580021375345473A5245445F53594E435F4FB0
:10526800564552464C4F570D0A000000213753450A
:10527800473A5345542359454C0D0A0021375345A5
:10528800473A25642564234752450D0A000000006B
:1052980021375345473A534554234752450D0A0091
:1052A80021375345473A53594E430D0A0000000031
:1052B80021375345473A25642564234E45575245BF
:1052C800440D0A0021375345473A25642564234E87
:1052D800455759454C0D0A00214155544F4D4154ED
:1052E8004943230D0A0000000203040506070809C4
:1052F8000A0B0C0D0E0F101000000000000000003B
:105308000102030406070809000000000102030463
:10531800232D302B2000686C4C0065666745464796
:105328000030313233343536373839414243444519
:105338004600303132333435363738396162636488
:045348006566000096
:04534C003101000823
:045350000D01000843
:1053540088130000D0070000B80B00000024F400FC
:1053640010000000010000001C00002000000000EC
:105374000000000000000000000000000000000029
:105384000000000000000000000000000000000019
:105394000000000000000000000000000000000009
:1053A40000000000000000000000000000000000F9
:1053B40000000000000000000000000000000000E9
:0C53C400000000000000000000000000DD
:04000005080027E5E3
:00000001FF
